{
	"sportsbet/contracts/sportsbetting.sol": {
		"sportsbetting": {
			"abi": [
				{
					"inputs": [],
					"stateMutability": "payable",
					"type": "constructor"
				},
				{
					"anonymous": false,
					"inputs": [
						{
							"indexed": false,
							"internalType": "address",
							"name": "addr",
							"type": "address"
						},
						{
							"indexed": false,
							"internalType": "uint256",
							"name": "amount",
							"type": "uint256"
						},
						{
							"components": [
								{
									"internalType": "string",
									"name": "teamname",
									"type": "string"
								},
								{
									"internalType": "uint256",
									"name": "totalbet",
									"type": "uint256"
								}
							],
							"indexed": false,
							"internalType": "struct sportsbetting.Team",
							"name": "team",
							"type": "tuple"
						}
					],
					"name": "NewBet",
					"type": "event"
				},
				{
					"anonymous": false,
					"inputs": [
						{
							"indexed": true,
							"internalType": "address",
							"name": "previousOwner",
							"type": "address"
						},
						{
							"indexed": true,
							"internalType": "address",
							"name": "newOwner",
							"type": "address"
						}
					],
					"name": "OwnershipTransferred",
					"type": "event"
				},
				{
					"inputs": [
						{
							"internalType": "address",
							"name": "",
							"type": "address"
						}
					],
					"name": "betAmounts",
					"outputs": [
						{
							"internalType": "uint256",
							"name": "",
							"type": "uint256"
						}
					],
					"stateMutability": "view",
					"type": "function"
				},
				{
					"inputs": [
						{
							"internalType": "uint256",
							"name": "",
							"type": "uint256"
						}
					],
					"name": "bets",
					"outputs": [
						{
							"internalType": "string",
							"name": "name",
							"type": "string"
						},
						{
							"internalType": "address",
							"name": "addr",
							"type": "address"
						},
						{
							"internalType": "uint256",
							"name": "amount",
							"type": "uint256"
						},
						{
							"components": [
								{
									"internalType": "string",
									"name": "teamname",
									"type": "string"
								},
								{
									"internalType": "uint256",
									"name": "totalbet",
									"type": "uint256"
								}
							],
							"internalType": "struct sportsbetting.Team",
							"name": "team",
							"type": "tuple"
						}
					],
					"stateMutability": "view",
					"type": "function"
				},
				{
					"inputs": [
						{
							"internalType": "string",
							"name": "_name",
							"type": "string"
						},
						{
							"internalType": "uint256",
							"name": "_team",
							"type": "uint256"
						}
					],
					"name": "createBet",
					"outputs": [],
					"stateMutability": "payable",
					"type": "function"
				},
				{
					"inputs": [
						{
							"internalType": "string",
							"name": "_name",
							"type": "string"
						}
					],
					"name": "createTeam",
					"outputs": [],
					"stateMutability": "nonpayable",
					"type": "function"
				},
				{
					"inputs": [
						{
							"internalType": "uint256",
							"name": "_team",
							"type": "uint256"
						}
					],
					"name": "getTotalBetAmount",
					"outputs": [
						{
							"internalType": "uint256",
							"name": "",
							"type": "uint256"
						}
					],
					"stateMutability": "view",
					"type": "function"
				},
				{
					"inputs": [],
					"name": "isOwner",
					"outputs": [
						{
							"internalType": "bool",
							"name": "",
							"type": "bool"
						}
					],
					"stateMutability": "view",
					"type": "function"
				},
				{
					"inputs": [],
					"name": "owner",
					"outputs": [
						{
							"internalType": "address",
							"name": "",
							"type": "address"
						}
					],
					"stateMutability": "view",
					"type": "function"
				},
				{
					"inputs": [],
					"name": "renounceOwnership",
					"outputs": [],
					"stateMutability": "nonpayable",
					"type": "function"
				},
				{
					"inputs": [
						{
							"internalType": "uint256",
							"name": "",
							"type": "uint256"
						}
					],
					"name": "teams",
					"outputs": [
						{
							"internalType": "string",
							"name": "teamname",
							"type": "string"
						},
						{
							"internalType": "uint256",
							"name": "totalbet",
							"type": "uint256"
						}
					],
					"stateMutability": "view",
					"type": "function"
				},
				{
					"inputs": [],
					"name": "total",
					"outputs": [
						{
							"internalType": "uint256",
							"name": "",
							"type": "uint256"
						}
					],
					"stateMutability": "view",
					"type": "function"
				},
				{
					"inputs": [
						{
							"internalType": "address",
							"name": "newOwner",
							"type": "address"
						}
					],
					"name": "transferOwnership",
					"outputs": [],
					"stateMutability": "nonpayable",
					"type": "function"
				},
				{
					"inputs": [
						{
							"internalType": "uint256",
							"name": "_team",
							"type": "uint256"
						}
					],
					"name": "winningTeam",
					"outputs": [],
					"stateMutability": "payable",
					"type": "function"
				}
			],
			"devdoc": {
				"kind": "dev",
				"methods": {
					"isOwner()": {
						"returns": {
							"_0": "true if `msg.sender` is the owner of the contract."
						}
					},
					"owner()": {
						"returns": {
							"_0": "the address of the owner."
						}
					},
					"renounceOwnership()": {
						"details": "Allows the current owner to relinquish control of the contract."
					},
					"transferOwnership(address)": {
						"details": "Allows the current owner to transfer control of the contract to a newOwner.",
						"params": {
							"newOwner": "The address to transfer ownership to."
						}
					}
				},
				"version": 1
			},
			"evm": {
				"assembly": "    /* \"sportsbet/contracts/sportsbetting.sol\":81:2953  contract sportsbetting is Ownable{... */\n  0x80\n  0x40\n  dup2\n  swap1\n  mstore\n    /* \"sportsbet/contracts/Ownable.sol\":510:516  _owner */\n  0x00\n    /* \"sportsbet/contracts/Ownable.sol\":510:529  _owner = msg.sender */\n  dup1\n  sload\n  not(sub(exp(0x02, 0xa0), 0x01))\n  and\n    /* \"sportsbet/contracts/Ownable.sol\":519:529  msg.sender */\n  caller\n    /* \"sportsbet/contracts/Ownable.sol\":510:529  _owner = msg.sender */\n  swap1\n  dup2\n  or\n  dup3\n  sstore\n    /* \"sportsbet/contracts/Ownable.sol\":519:529  msg.sender */\n  swap2\n    /* \"sportsbet/contracts/Ownable.sol\":540:580  OwnershipTransferred(address(0), _owner) */\n  0x8be0079c531659141344cd1fd0a4f28419497f9722a3daafe3b4186f6b6457e0\n  swap1\n    /* \"sportsbet/contracts/Ownable.sol\":510:516  _owner */\n  dup3\n  swap1\n    /* \"sportsbet/contracts/Ownable.sol\":540:580  OwnershipTransferred(address(0), _owner) */\n  log3\n    /* \"sportsbet/contracts/sportsbetting.sol\":539:544  Owner */\n  0x03\n    /* \"sportsbet/contracts/sportsbetting.sol\":539:566  Owner = payable(msg.sender) */\n  dup1\n  sload\n  not(sub(exp(0x02, 0xa0), 0x01))\n  and\n    /* \"sportsbet/contracts/sportsbetting.sol\":555:565  msg.sender */\n  caller\n    /* \"sportsbet/contracts/sportsbetting.sol\":539:566  Owner = payable(msg.sender) */\n  or\n  swap1\n  sstore\n    /* \"sportsbet/contracts/sportsbetting.sol\":587:603  Team(\"team1\", 0) */\n  0x40\n  dup1\n  mload\n  0x80\n  dup2\n  add\n  dup3\n  mstore\n  0x05\n  swap2\n  dup2\n  add\n  swap2\n  dup3\n  mstore\n  0x7465616d31000000000000000000000000000000000000000000000000000000\n  0x60\n  dup3\n  add\n  mstore\n  swap1\n  dup2\n  mstore\n    /* \"sportsbet/contracts/sportsbetting.sol\":539:544  Owner */\n  0x00\n    /* \"sportsbet/contracts/sportsbetting.sol\":587:603  Team(\"team1\", 0) */\n  0x20\n  dup1\n  dup4\n  add\n  dup3\n  swap1\n  mstore\n    /* \"sportsbet/contracts/sportsbetting.sol\":576:581  teams */\n  0x02\n    /* \"sportsbet/contracts/sportsbetting.sol\":576:604  teams.push(Team(\"team1\", 0)) */\n  dup1\n  sload\n    /* \"sportsbet/contracts/sportsbetting.sol\":539:566  Owner = payable(msg.sender) */\n  0x01\n    /* \"sportsbet/contracts/sportsbetting.sol\":576:604  teams.push(Team(\"team1\", 0)) */\n  dup2\n  add\n  dup3\n  sstore\n  swap3\n  dup2\n  swap1\n  mstore\n  dup4\n  mload\n  dup1\n  mload\n  swap4\n  swap1\n  swap2\n  mul\n  0x00\n  dup1\n  mload\n  0x20\n  data_1ab0c6948a275349ae45a06aad66a8bd65ac18074615d53676c09b67809099e0\n  dup4\n  codecopy\n  dup2\n  mload\n  swap2\n  mstore\n  add\n  swap3\n  tag_6\n  swap3\n  dup5\n  swap3\n  add\n  swap1\n  tag_7\n  jump\t// in\ntag_6:\n  pop\n  0x20\n  swap2\n  dup3\n  add\n  mload\n  0x01\n  swap2\n  dup3\n  add\n  sstore\n    /* \"sportsbet/contracts/sportsbetting.sol\":625:641  Team(\"team2\", 0) */\n  0x40\n  dup1\n  mload\n  0x80\n  dup2\n  add\n  dup3\n  mstore\n  0x05\n  swap2\n  dup2\n  add\n  swap2\n  dup3\n  mstore\n  0x7465616d32000000000000000000000000000000000000000000000000000000\n  0x60\n  dup3\n  add\n  mstore\n  swap1\n  dup2\n  mstore\n  0x00\n  dup2\n  dup5\n  add\n  dup2\n  swap1\n  mstore\n    /* \"sportsbet/contracts/sportsbetting.sol\":614:619  teams */\n  0x02\n    /* \"sportsbet/contracts/sportsbetting.sol\":614:642  teams.push(Team(\"team2\", 0)) */\n  dup1\n  sload\n  swap4\n  dup5\n  add\n  dup2\n  sstore\n  swap1\n  dup2\n  swap1\n  mstore\n  dup2\n  mload\n  dup1\n  mload\n    /* \"sportsbet/contracts/sportsbetting.sol\":625:641  Team(\"team2\", 0) */\n  swap3\n  swap5\n    /* \"sportsbet/contracts/sportsbetting.sol\":614:642  teams.push(Team(\"team2\", 0)) */\n  swap4\n  swap1\n  swap2\n  mul\n  0x00\n  dup1\n  mload\n  0x20\n  data_1ab0c6948a275349ae45a06aad66a8bd65ac18074615d53676c09b67809099e0\n  dup4\n  codecopy\n  dup2\n  mload\n  swap2\n  mstore\n  add\n  swap3\n  tag_9\n  swap3\n  dup5\n  swap3\n  swap1\n  swap2\n  add\n  swap1\n  tag_7\n  jump\t// in\ntag_9:\n  pop\n  0x20\n  dup3\n  add\n  mload\n  dup2\n  0x01\n  add\n  sstore\n  pop\n  pop\n    /* \"sportsbet/contracts/sportsbetting.sol\":81:2953  contract sportsbetting is Ownable{... */\n  jump(tag_22)\ntag_7:\n  dup3\n  dup1\n  sload\n  tag_11\n  swap1\n  tag_12\n  jump\t// in\ntag_11:\n  swap1\n  0x00\n  mstore\n  keccak256(0x00, 0x20)\n  swap1\n  0x1f\n  add\n  0x20\n  swap1\n  div\n  dup2\n  add\n  swap3\n  dup3\n  tag_14\n  jumpi\n  0x00\n  dup6\n  sstore\n  jump(tag_17)\ntag_14:\n  dup3\n  0x1f\n  lt\n  tag_15\n  jumpi\n  dup1\n  mload\n  not(0xff)\n  and\n  dup4\n  dup1\n  add\n  or\n  dup6\n  sstore\n  jump(tag_17)\ntag_15:\n  dup3\n  dup1\n  add\n  0x01\n  add\n  dup6\n  sstore\n  dup3\n  iszero\n  tag_17\n  jumpi\n  swap2\n  dup3\n  add\ntag_16:\n  dup3\n  dup2\n  gt\n  iszero\n  tag_17\n  jumpi\n  dup3\n  mload\n  dup3\n  sstore\n  swap2\n  0x20\n  add\n  swap2\n  swap1\n  0x01\n  add\n  swap1\n  jump(tag_16)\ntag_17:\n  pop\n  tag_18\n  swap3\n  swap2\n  pop\n  tag_19\n  jump\t// in\ntag_18:\n  pop\n  swap1\n  jump\t// out\ntag_19:\ntag_20:\n  dup1\n  dup3\n  gt\n  iszero\n  tag_18\n  jumpi\n  0x00\n  dup2\n  sstore\n  0x01\n  add\n  jump(tag_20)\n    /* \"#utility.yul\":14:451   */\ntag_12:\n    /* \"#utility.yul\":99:100   */\n  0x02\n    /* \"#utility.yul\":89:101   */\n  dup2\n  div\n    /* \"#utility.yul\":146:147   */\n  0x01\n    /* \"#utility.yul\":136:148   */\n  dup3\n  and\n  dup1\n    /* \"#utility.yul\":157:218   */\n  tag_24\n  jumpi\n    /* \"#utility.yul\":211:215   */\n  0x7f\n    /* \"#utility.yul\":203:209   */\n  dup3\n    /* \"#utility.yul\":199:216   */\n  and\n    /* \"#utility.yul\":189:216   */\n  swap2\n  pop\n    /* \"#utility.yul\":157:218   */\ntag_24:\n    /* \"#utility.yul\":264:266   */\n  0x20\n    /* \"#utility.yul\":256:262   */\n  dup3\n    /* \"#utility.yul\":253:267   */\n  lt\n    /* \"#utility.yul\":233:251   */\n  dup2\n    /* \"#utility.yul\":230:268   */\n  sub\n    /* \"#utility.yul\":227:445   */\n  tag_25\n  jumpi\n    /* \"#utility.yul\":301:378   */\n  0x4e487b7100000000000000000000000000000000000000000000000000000000\n    /* \"#utility.yul\":298:299   */\n  0x00\n    /* \"#utility.yul\":291:379   */\n  mstore\n    /* \"#utility.yul\":402:406   */\n  0x22\n    /* \"#utility.yul\":399:400   */\n  0x04\n    /* \"#utility.yul\":392:407   */\n  mstore\n    /* \"#utility.yul\":430:434   */\n  0x24\n    /* \"#utility.yul\":427:428   */\n  0x00\n    /* \"#utility.yul\":420:435   */\n  revert\n    /* \"#utility.yul\":227:445   */\ntag_25:\n  pop\n    /* \"#utility.yul\":14:451   */\n  swap2\n  swap1\n  pop\n  jump\t// out\ntag_22:\n    /* \"sportsbet/contracts/sportsbetting.sol\":81:2953  contract sportsbetting is Ownable{... */\n  dataSize(sub_0)\n  dup1\n  dataOffset(sub_0)\n  0x00\n  codecopy\n  0x00\n  return\nstop\ndata_1ab0c6948a275349ae45a06aad66a8bd65ac18074615d53676c09b67809099e0 405787fa12a823e0f2b7631cc41b3ba8828b3321ca811111fa75cd3aa3bb5ace\n\nsub_0: assembly {\n        /* \"sportsbet/contracts/sportsbetting.sol\":81:2953  contract sportsbetting is Ownable{... */\n      mstore(0x40, 0x80)\n      jumpi(tag_1, lt(calldatasize, 0x04))\n      calldataload(0x00)\n      0x0100000000000000000000000000000000000000000000000000000000\n      swap1\n      div\n      dup1\n      0x8da5cb5b\n      gt\n      tag_14\n      jumpi\n      dup1\n      0x8da5cb5b\n      eq\n      tag_8\n      jumpi\n      dup1\n      0x8f32d59b\n      eq\n      tag_9\n      jumpi\n      dup1\n      0x972fa53f\n      eq\n      tag_10\n      jumpi\n      dup1\n      0xd6704206\n      eq\n      tag_11\n      jumpi\n      dup1\n      0xebcfcf6b\n      eq\n      tag_12\n      jumpi\n      dup1\n      0xf2fde38b\n      eq\n      tag_13\n      jumpi\n      0x00\n      dup1\n      revert\n    tag_14:\n      dup1\n      0x0e89da56\n      eq\n      tag_2\n      jumpi\n      dup1\n      0x20f73162\n      eq\n      tag_3\n      jumpi\n      dup1\n      0x22af00fa\n      eq\n      tag_4\n      jumpi\n      dup1\n      0x2ddbd13a\n      eq\n      tag_5\n      jumpi\n      dup1\n      0x3ed2b77a\n      eq\n      tag_6\n      jumpi\n      dup1\n      0x715018a6\n      eq\n      tag_7\n      jumpi\n    tag_1:\n      0x00\n      dup1\n      revert\n        /* \"sportsbet/contracts/sportsbetting.sol\":753:861  function getTotalBetAmount (uint _team) public view returns (uint) {... */\n    tag_2:\n      callvalue\n      dup1\n      iszero\n      tag_15\n      jumpi\n      0x00\n      dup1\n      revert\n    tag_15:\n      pop\n      tag_16\n      tag_17\n      calldatasize\n      0x04\n      tag_18\n      jump\t// in\n    tag_17:\n      tag_19\n      jump\t// in\n    tag_16:\n      mload(0x40)\n        /* \"#utility.yul\":345:370   */\n      swap1\n      dup2\n      mstore\n        /* \"#utility.yul\":333:335   */\n      0x20\n        /* \"#utility.yul\":318:336   */\n      add\n        /* \"sportsbet/contracts/sportsbetting.sol\":753:861  function getTotalBetAmount (uint _team) public view returns (uint) {... */\n    tag_20:\n      mload(0x40)\n      dup1\n      swap2\n      sub\n      swap1\n      return\n        /* \"sportsbet/contracts/sportsbetting.sol\":1583:2951  function winningTeam(uint _team) public payable onlyOwner() {... */\n    tag_3:\n      tag_22\n      tag_23\n      calldatasize\n      0x04\n      tag_18\n      jump\t// in\n    tag_23:\n      tag_24\n      jump\t// in\n    tag_22:\n      stop\n        /* \"sportsbet/contracts/sportsbetting.sol\":358:375  bet[] public bets */\n    tag_4:\n      callvalue\n      dup1\n      iszero\n      tag_25\n      jumpi\n      0x00\n      dup1\n      revert\n    tag_25:\n      pop\n      tag_26\n      tag_27\n      calldatasize\n      0x04\n      tag_18\n      jump\t// in\n    tag_27:\n      tag_28\n      jump\t// in\n    tag_26:\n      mload(0x40)\n      tag_20\n      swap5\n      swap4\n      swap3\n      swap2\n      swap1\n      tag_30\n      jump\t// in\n        /* \"sportsbet/contracts/sportsbetting.sol\":483:500  uint public total */\n    tag_5:\n      callvalue\n      dup1\n      iszero\n      tag_31\n      jumpi\n      0x00\n      dup1\n      revert\n    tag_31:\n      pop\n      tag_16\n      sload(0x05)\n      dup2\n      jump\n        /* \"sportsbet/contracts/sportsbetting.sol\":381:400  Team[] public teams */\n    tag_6:\n      callvalue\n      dup1\n      iszero\n      tag_35\n      jumpi\n      0x00\n      dup1\n      revert\n    tag_35:\n      pop\n      tag_36\n      tag_37\n      calldatasize\n      0x04\n      tag_18\n      jump\t// in\n    tag_37:\n      tag_38\n      jump\t// in\n    tag_36:\n      mload(0x40)\n      tag_20\n      swap3\n      swap2\n      swap1\n      tag_40\n      jump\t// in\n        /* \"sportsbet/contracts/Ownable.sol\":1263:1390  function renounceOwnership() public onlyOwner {... */\n    tag_7:\n      callvalue\n      dup1\n      iszero\n      tag_41\n      jumpi\n      0x00\n      dup1\n      revert\n    tag_41:\n      pop\n      tag_22\n      tag_43\n      jump\t// in\n        /* \"sportsbet/contracts/Ownable.sol\":638:708  function owner() public view returns(address) {... */\n    tag_8:\n      callvalue\n      dup1\n      iszero\n      tag_44\n      jumpi\n      0x00\n      dup1\n      revert\n    tag_44:\n      pop\n        /* \"sportsbet/contracts/Ownable.sol\":675:682  address */\n      0x00\n        /* \"sportsbet/contracts/Ownable.sol\":697:703  _owner */\n      sload\n        /* \"sportsbet/contracts/Ownable.sol\":638:708  function owner() public view returns(address) {... */\n      mload(0x40)\n      sub(exp(0x02, 0xa0), 0x01)\n        /* \"sportsbet/contracts/Ownable.sol\":697:703  _owner */\n      swap1\n      swap2\n      and\n        /* \"#utility.yul\":2121:2195   */\n      dup2\n      mstore\n        /* \"#utility.yul\":2109:2111   */\n      0x20\n        /* \"#utility.yul\":2094:2112   */\n      add\n        /* \"sportsbet/contracts/Ownable.sol\":638:708  function owner() public view returns(address) {... */\n      tag_20\n        /* \"#utility.yul\":1975:2201   */\n      jump\n        /* \"sportsbet/contracts/Ownable.sol\":921:1004  function isOwner() public view returns(bool) {... */\n    tag_9:\n      callvalue\n      dup1\n      iszero\n      tag_49\n      jumpi\n      0x00\n      dup1\n      revert\n    tag_49:\n      pop\n        /* \"sportsbet/contracts/Ownable.sol\":960:964  bool */\n      0x00\n        /* \"sportsbet/contracts/Ownable.sol\":993:999  _owner */\n      sload\n      sub(exp(0x02, 0xa0), 0x01)\n      and\n        /* \"sportsbet/contracts/Ownable.sol\":979:989  msg.sender */\n      caller\n        /* \"sportsbet/contracts/Ownable.sol\":979:999  msg.sender == _owner */\n      eq\n        /* \"sportsbet/contracts/Ownable.sol\":921:1004  function isOwner() public view returns(bool) {... */\n      mload(0x40)\n        /* \"#utility.yul\":2371:2385   */\n      swap1\n      iszero\n        /* \"#utility.yul\":2364:2386   */\n      iszero\n        /* \"#utility.yul\":2346:2387   */\n      dup2\n      mstore\n        /* \"#utility.yul\":2334:2336   */\n      0x20\n        /* \"#utility.yul\":2319:2337   */\n      add\n        /* \"sportsbet/contracts/Ownable.sol\":921:1004  function isOwner() public view returns(bool) {... */\n      tag_20\n        /* \"#utility.yul\":2206:2393   */\n      jump\n        /* \"sportsbet/contracts/sportsbetting.sol\":655:747  function createTeam (string memory _name) public {... */\n    tag_10:\n      callvalue\n      dup1\n      iszero\n      tag_54\n      jumpi\n      0x00\n      dup1\n      revert\n    tag_54:\n      pop\n      tag_22\n      tag_56\n      calldatasize\n      0x04\n      tag_57\n      jump\t// in\n    tag_56:\n      tag_58\n      jump\t// in\n        /* \"sportsbet/contracts/sportsbetting.sol\":867:1573  function createBet (string memory _name, uint _team) external payable { ... */\n    tag_11:\n      tag_22\n      tag_60\n      calldatasize\n      0x04\n      tag_61\n      jump\t// in\n    tag_60:\n      tag_62\n      jump\t// in\n        /* \"sportsbet/contracts/sportsbetting.sol\":434:477  mapping (address => uint) public betAmounts */\n    tag_12:\n      callvalue\n      dup1\n      iszero\n      tag_63\n      jumpi\n      0x00\n      dup1\n      revert\n    tag_63:\n      pop\n      tag_16\n      tag_65\n      calldatasize\n      0x04\n      tag_66\n      jump\t// in\n    tag_65:\n      mstore(0x20, 0x04)\n      0x00\n      swap1\n      dup2\n      mstore\n      0x40\n      swap1\n      keccak256\n      sload\n      dup2\n      jump\n        /* \"sportsbet/contracts/Ownable.sol\":1548:1649  function transferOwnership(address newOwner) public onlyOwner {... */\n    tag_13:\n      callvalue\n      dup1\n      iszero\n      tag_69\n      jumpi\n      0x00\n      dup1\n      revert\n    tag_69:\n      pop\n      tag_22\n      tag_71\n      calldatasize\n      0x04\n      tag_66\n      jump\t// in\n    tag_71:\n      tag_72\n      jump\t// in\n        /* \"sportsbet/contracts/sportsbetting.sol\":753:861  function getTotalBetAmount (uint _team) public view returns (uint) {... */\n    tag_19:\n        /* \"sportsbet/contracts/sportsbetting.sol\":814:818  uint */\n      0x00\n        /* \"sportsbet/contracts/sportsbetting.sol\":833:838  teams */\n      0x02\n        /* \"sportsbet/contracts/sportsbetting.sol\":839:844  _team */\n      dup3\n        /* \"sportsbet/contracts/sportsbetting.sol\":833:845  teams[_team] */\n      dup2\n      sload\n      dup2\n      lt\n      tag_75\n      jumpi\n      tag_75\n      tag_76\n      jump\t// in\n    tag_75:\n      swap1\n      0x00\n      mstore\n      keccak256(0x00, 0x20)\n      swap1\n      0x02\n      mul\n      add\n        /* \"sportsbet/contracts/sportsbetting.sol\":833:854  teams[_team].totalbet */\n      0x01\n      add\n      sload\n        /* \"sportsbet/contracts/sportsbetting.sol\":826:854  return teams[_team].totalbet */\n      swap1\n      pop\n        /* \"sportsbet/contracts/sportsbetting.sol\":753:861  function getTotalBetAmount (uint _team) public view returns (uint) {... */\n      swap2\n      swap1\n      pop\n      jump\t// out\n        /* \"sportsbet/contracts/sportsbetting.sol\":1583:2951  function winningTeam(uint _team) public payable onlyOwner() {... */\n    tag_24:\n        /* \"sportsbet/contracts/Ownable.sol\":960:964  bool */\n      0x00\n        /* \"sportsbet/contracts/Ownable.sol\":993:999  _owner */\n      sload\n      sub(exp(0x02, 0xa0), 0x01)\n      and\n        /* \"sportsbet/contracts/Ownable.sol\":979:989  msg.sender */\n      caller\n        /* \"sportsbet/contracts/Ownable.sol\":979:999  msg.sender == _owner */\n      eq\n        /* \"sportsbet/contracts/Ownable.sol\":813:831  require(isOwner()) */\n      tag_80\n      jumpi\n      0x00\n      dup1\n      revert\n    tag_80:\n        /* \"sportsbet/contracts/sportsbetting.sol\":1655:1665  uint slice */\n      0x00\n        /* \"sportsbet/contracts/sportsbetting.sol\":1679:1684  _team */\n      dup2\n        /* \"sportsbet/contracts/sportsbetting.sol\":1688:1689  0 */\n      0x00\n        /* \"sportsbet/contracts/sportsbetting.sol\":1679:1689  _team == 0 */\n      sub\n        /* \"sportsbet/contracts/sportsbetting.sol\":1675:2213  if (_team == 0){... */\n      tag_82\n      jumpi\n        /* \"sportsbet/contracts/sportsbetting.sol\":1709:1715  uint i */\n      0x00\n        /* \"sportsbet/contracts/sportsbetting.sol\":1704:2203  for (uint i = 0; i < bets.length; i++){... */\n    tag_83:\n        /* \"sportsbet/contracts/sportsbetting.sol\":1725:1729  bets */\n      0x01\n        /* \"sportsbet/contracts/sportsbetting.sol\":1725:1736  bets.length */\n      sload\n        /* \"sportsbet/contracts/sportsbetting.sol\":1721:1736  i < bets.length */\n      dup2\n      lt\n        /* \"sportsbet/contracts/sportsbetting.sol\":1704:2203  for (uint i = 0; i < bets.length; i++){... */\n      iszero\n      tag_84\n      jumpi\n        /* \"sportsbet/contracts/sportsbetting.sol\":1824:1849  abi.encodePacked(\"team1\") */\n      mload(0x40)\n        /* \"#utility.yul\":4750:4757   */\n      0x7465616d31000000000000000000000000000000000000000000000000000000\n        /* \"sportsbet/contracts/sportsbetting.sol\":1824:1849  abi.encodePacked(\"team1\") */\n      0x20\n      dup3\n      add\n        /* \"#utility.yul\":4738:4758   */\n      mstore\n        /* \"sportsbet/contracts/sportsbetting.sol\":1817:1850  sha256(abi.encodePacked(\"team1\")) */\n      0x02\n      swap1\n        /* \"#utility.yul\":4774:4785   */\n      0x25\n      add\n        /* \"sportsbet/contracts/sportsbetting.sol\":1824:1849  abi.encodePacked(\"team1\") */\n      0x40\n      dup1\n      mload\n      not(0x1f)\n      dup2\n      dup5\n      sub\n      add\n      dup2\n      mstore\n      swap1\n      dup3\n      swap1\n      mstore\n        /* \"sportsbet/contracts/sportsbetting.sol\":1817:1850  sha256(abi.encodePacked(\"team1\")) */\n      tag_88\n      swap2\n      tag_89\n      jump\t// in\n    tag_88:\n      0x20\n      mload(0x40)\n      dup1\n      dup4\n      sub\n      dup2\n      dup6\n      gas\n      staticcall\n      iszero\n      dup1\n      iszero\n      tag_91\n      jumpi\n      returndatasize\n      0x00\n      dup1\n      returndatacopy\n      revert(0x00, returndatasize)\n    tag_91:\n      pop\n      pop\n      pop\n      mload(0x40)\n      returndatasize\n      not(0x1f)\n      0x1f\n      dup3\n      add\n      and\n      dup3\n      add\n      dup1\n      0x40\n      mstore\n      pop\n      dup2\n      add\n      swap1\n      tag_92\n      swap2\n      swap1\n      tag_93\n      jump\t// in\n    tag_92:\n        /* \"sportsbet/contracts/sportsbetting.sol\":1764:1813  sha256(abi.encodePacked((bets[i].team.teamname))) */\n      0x02\n        /* \"sportsbet/contracts/sportsbetting.sol\":1789:1793  bets */\n      0x01\n        /* \"sportsbet/contracts/sportsbetting.sol\":1794:1795  i */\n      dup4\n        /* \"sportsbet/contracts/sportsbetting.sol\":1789:1796  bets[i] */\n      dup2\n      sload\n      dup2\n      lt\n      tag_95\n      jumpi\n      tag_95\n      tag_76\n      jump\t// in\n    tag_95:\n      swap1\n      0x00\n      mstore\n      keccak256(0x00, 0x20)\n      swap1\n      0x05\n      mul\n      add\n        /* \"sportsbet/contracts/sportsbetting.sol\":1789:1801  bets[i].team */\n      0x03\n      add\n        /* \"sportsbet/contracts/sportsbetting.sol\":1789:1810  bets[i].team.teamname */\n      0x00\n      add\n        /* \"sportsbet/contracts/sportsbetting.sol\":1771:1812  abi.encodePacked((bets[i].team.teamname)) */\n      add(0x20, mload(0x40))\n      tag_97\n      swap2\n      swap1\n      tag_98\n      jump\t// in\n    tag_97:\n      0x40\n      dup1\n      mload\n      not(0x1f)\n      dup2\n      dup5\n      sub\n      add\n      dup2\n      mstore\n      swap1\n      dup3\n      swap1\n      mstore\n        /* \"sportsbet/contracts/sportsbetting.sol\":1764:1813  sha256(abi.encodePacked((bets[i].team.teamname))) */\n      tag_99\n      swap2\n      tag_89\n      jump\t// in\n    tag_99:\n      0x20\n      mload(0x40)\n      dup1\n      dup4\n      sub\n      dup2\n      dup6\n      gas\n      staticcall\n      iszero\n      dup1\n      iszero\n      tag_101\n      jumpi\n      returndatasize\n      0x00\n      dup1\n      returndatacopy\n      revert(0x00, returndatasize)\n    tag_101:\n      pop\n      pop\n      pop\n      mload(0x40)\n      returndatasize\n      not(0x1f)\n      0x1f\n      dup3\n      add\n      and\n      dup3\n      add\n      dup1\n      0x40\n      mstore\n      pop\n      dup2\n      add\n      swap1\n      tag_102\n      swap2\n      swap1\n      tag_93\n      jump\t// in\n    tag_102:\n        /* \"sportsbet/contracts/sportsbetting.sol\":1764:1850  sha256(abi.encodePacked((bets[i].team.teamname))) == sha256(abi.encodePacked(\"team1\")) */\n      sub\n        /* \"sportsbet/contracts/sportsbetting.sol\":1760:2189  if (sha256(abi.encodePacked((bets[i].team.teamname))) == sha256(abi.encodePacked(\"team1\"))){... */\n      tag_103\n      jumpi\n        /* \"sportsbet/contracts/sportsbetting.sol\":1873:1897  address payable receiver */\n      0x00\n        /* \"sportsbet/contracts/sportsbetting.sol\":1908:1912  bets */\n      0x01\n        /* \"sportsbet/contracts/sportsbetting.sol\":1913:1914  i */\n      dup3\n        /* \"sportsbet/contracts/sportsbetting.sol\":1908:1915  bets[i] */\n      dup2\n      sload\n      dup2\n      lt\n      tag_105\n      jumpi\n      tag_105\n      tag_76\n      jump\t// in\n    tag_105:\n      0x00\n      swap2\n      dup3\n      mstore\n      0x20\n      swap1\n      swap2\n      keccak256\n        /* \"sportsbet/contracts/sportsbetting.sol\":1908:1920  bets[i].addr */\n      0x01\n        /* \"sportsbet/contracts/sportsbetting.sol\":1908:1915  bets[i] */\n      0x05\n      swap1\n      swap3\n      mul\n      add\n        /* \"sportsbet/contracts/sportsbetting.sol\":1908:1920  bets[i].addr */\n      dup2\n      add\n      sload\n      sub(exp(0x02, 0xa0), 0x01)\n      and\n      swap2\n      pop\n        /* \"sportsbet/contracts/sportsbetting.sol\":2036:2041  10000 */\n      0x2710\n      swap1\n        /* \"sportsbet/contracts/sportsbetting.sol\":2010:2030  getTotalBetAmount(1) */\n      tag_107\n      swap1\n        /* \"sportsbet/contracts/sportsbetting.sol\":2010:2027  getTotalBetAmount */\n      tag_19\n        /* \"sportsbet/contracts/sportsbetting.sol\":2010:2030  getTotalBetAmount(1) */\n      jump\t// in\n    tag_107:\n        /* \"sportsbet/contracts/sportsbetting.sol\":1979:1999  getTotalBetAmount(0) */\n      tag_108\n        /* \"sportsbet/contracts/sportsbetting.sol\":1997:1998  0 */\n      0x00\n        /* \"sportsbet/contracts/sportsbetting.sol\":1979:1996  getTotalBetAmount */\n      tag_19\n        /* \"sportsbet/contracts/sportsbetting.sol\":1979:1999  getTotalBetAmount(0) */\n      jump\t// in\n    tag_108:\n        /* \"sportsbet/contracts/sportsbetting.sol\":1979:2007  getTotalBetAmount(0) * 10000 */\n      tag_109\n      swap1\n        /* \"sportsbet/contracts/sportsbetting.sol\":2002:2007  10000 */\n      0x2710\n        /* \"sportsbet/contracts/sportsbetting.sol\":1979:2007  getTotalBetAmount(0) * 10000 */\n      tag_110\n      jump\t// in\n    tag_109:\n        /* \"sportsbet/contracts/sportsbetting.sol\":1979:2030  getTotalBetAmount(0) * 10000 / getTotalBetAmount(1) */\n      tag_111\n      swap2\n      swap1\n      tag_112\n      jump\t// in\n    tag_111:\n        /* \"sportsbet/contracts/sportsbetting.sol\":1970:2031  10000 + (getTotalBetAmount(0) * 10000 / getTotalBetAmount(1)) */\n      tag_113\n      swap1\n        /* \"sportsbet/contracts/sportsbetting.sol\":1970:1975  10000 */\n      0x2710\n        /* \"sportsbet/contracts/sportsbetting.sol\":1970:2031  10000 + (getTotalBetAmount(0) * 10000 / getTotalBetAmount(1)) */\n      tag_114\n      jump\t// in\n    tag_113:\n        /* \"sportsbet/contracts/sportsbetting.sol\":1952:1956  bets */\n      0x01\n        /* \"sportsbet/contracts/sportsbetting.sol\":1957:1958  i */\n      dup5\n        /* \"sportsbet/contracts/sportsbetting.sol\":1952:1959  bets[i] */\n      dup2\n      sload\n      dup2\n      lt\n      tag_116\n      jumpi\n      tag_116\n      tag_76\n      jump\t// in\n    tag_116:\n      swap1\n      0x00\n      mstore\n      keccak256(0x00, 0x20)\n      swap1\n      0x05\n      mul\n      add\n        /* \"sportsbet/contracts/sportsbetting.sol\":1952:1966  bets[i].amount */\n      0x02\n      add\n      sload\n        /* \"sportsbet/contracts/sportsbetting.sol\":1952:2032  bets[i].amount * (10000 + (getTotalBetAmount(0) * 10000 / getTotalBetAmount(1))) */\n      tag_118\n      swap2\n      swap1\n      tag_110\n      jump\t// in\n    tag_118:\n        /* \"sportsbet/contracts/sportsbetting.sol\":1951:2041  (bets[i].amount * (10000 + (getTotalBetAmount(0) * 10000 / getTotalBetAmount(1)))) / 10000 */\n      tag_119\n      swap2\n      swap1\n      tag_112\n      jump\t// in\n    tag_119:\n        /* \"sportsbet/contracts/sportsbetting.sol\":1943:2041  slice = (bets[i].amount * (10000 + (getTotalBetAmount(0) * 10000 / getTotalBetAmount(1)))) / 10000 */\n      swap3\n      pop\n        /* \"sportsbet/contracts/sportsbetting.sol\":2064:2073  bool sent */\n      0x00\n        /* \"sportsbet/contracts/sportsbetting.sol\":2078:2086  receiver */\n      dup2\n      sub(exp(0x02, 0xa0), 0x01)\n        /* \"sportsbet/contracts/sportsbetting.sol\":2078:2091  receiver.call */\n      and\n        /* \"sportsbet/contracts/sportsbetting.sol\":2100:2105  slice */\n      dup5\n        /* \"sportsbet/contracts/sportsbetting.sol\":2078:2111  receiver.call{ value: slice }(\"\") */\n      mload(0x40)\n      0x00\n      mload(0x40)\n      dup1\n      dup4\n      sub\n      dup2\n      dup6\n      dup8\n      gas\n      call\n      swap3\n      pop\n      pop\n      pop\n      returndatasize\n      dup1\n      0x00\n      dup2\n      eq\n      tag_124\n      jumpi\n      mload(0x40)\n      swap2\n      pop\n      and(add(returndatasize, 0x3f), not(0x1f))\n      dup3\n      add\n      0x40\n      mstore\n      returndatasize\n      dup3\n      mstore\n      returndatasize\n      0x00\n      0x20\n      dup5\n      add\n      returndatacopy\n      jump(tag_123)\n    tag_124:\n      0x60\n      swap2\n      pop\n    tag_123:\n      pop\n        /* \"sportsbet/contracts/sportsbetting.sol\":2063:2111  (bool sent,) = receiver.call{ value: slice }(\"\") */\n      pop\n      swap1\n      pop\n        /* \"sportsbet/contracts/sportsbetting.sol\":2141:2145  sent */\n      dup1\n        /* \"sportsbet/contracts/sportsbetting.sol\":2133:2170  require(sent, \"Failed to send Ether\") */\n      tag_125\n      jumpi\n      mload(0x40)\n      mul(0x461bcd, exp(0x02, 0xe5))\n      dup2\n      mstore\n      0x04\n      add\n      tag_126\n      swap1\n      tag_127\n      jump\t// in\n    tag_126:\n      mload(0x40)\n      dup1\n      swap2\n      sub\n      swap1\n      revert\n    tag_125:\n        /* \"sportsbet/contracts/sportsbetting.sol\":1851:2189  {... */\n      pop\n      pop\n        /* \"sportsbet/contracts/sportsbetting.sol\":1760:2189  if (sha256(abi.encodePacked((bets[i].team.teamname))) == sha256(abi.encodePacked(\"team1\"))){... */\n    tag_103:\n        /* \"sportsbet/contracts/sportsbetting.sol\":1738:1741  i++ */\n      dup1\n      tag_128\n      dup2\n      tag_129\n      jump\t// in\n    tag_128:\n      swap2\n      pop\n      pop\n        /* \"sportsbet/contracts/sportsbetting.sol\":1704:2203  for (uint i = 0; i < bets.length; i++){... */\n      jump(tag_83)\n    tag_84:\n      pop\n        /* \"sportsbet/contracts/sportsbetting.sol\":1675:2213  if (_team == 0){... */\n    tag_82:\n        /* \"sportsbet/contracts/sportsbetting.sol\":2226:2231  _team */\n      dup2\n        /* \"sportsbet/contracts/sportsbetting.sol\":2235:2236  1 */\n      0x01\n        /* \"sportsbet/contracts/sportsbetting.sol\":2226:2236  _team == 1 */\n      sub\n        /* \"sportsbet/contracts/sportsbetting.sol\":2222:2760  if (_team == 1){... */\n      tag_130\n      jumpi\n        /* \"sportsbet/contracts/sportsbetting.sol\":2256:2262  uint i */\n      0x00\n        /* \"sportsbet/contracts/sportsbetting.sol\":2251:2750  for (uint i = 0; i < bets.length; i++){... */\n    tag_131:\n        /* \"sportsbet/contracts/sportsbetting.sol\":2272:2276  bets */\n      0x01\n        /* \"sportsbet/contracts/sportsbetting.sol\":2272:2283  bets.length */\n      sload\n        /* \"sportsbet/contracts/sportsbetting.sol\":2268:2283  i < bets.length */\n      dup2\n      lt\n        /* \"sportsbet/contracts/sportsbetting.sol\":2251:2750  for (uint i = 0; i < bets.length; i++){... */\n      iszero\n      tag_132\n      jumpi\n        /* \"sportsbet/contracts/sportsbetting.sol\":2371:2396  abi.encodePacked(\"team2\") */\n      mload(0x40)\n        /* \"#utility.yul\":8211:8218   */\n      0x7465616d32000000000000000000000000000000000000000000000000000000\n        /* \"sportsbet/contracts/sportsbetting.sol\":2371:2396  abi.encodePacked(\"team2\") */\n      0x20\n      dup3\n      add\n        /* \"#utility.yul\":8199:8219   */\n      mstore\n        /* \"sportsbet/contracts/sportsbetting.sol\":2364:2397  sha256(abi.encodePacked(\"team2\")) */\n      0x02\n      swap1\n        /* \"#utility.yul\":8235:8246   */\n      0x25\n      add\n        /* \"sportsbet/contracts/sportsbetting.sol\":2371:2396  abi.encodePacked(\"team2\") */\n      0x40\n      dup1\n      mload\n      not(0x1f)\n      dup2\n      dup5\n      sub\n      add\n      dup2\n      mstore\n      swap1\n      dup3\n      swap1\n      mstore\n        /* \"sportsbet/contracts/sportsbetting.sol\":2364:2397  sha256(abi.encodePacked(\"team2\")) */\n      tag_136\n      swap2\n      tag_89\n      jump\t// in\n    tag_136:\n      0x20\n      mload(0x40)\n      dup1\n      dup4\n      sub\n      dup2\n      dup6\n      gas\n      staticcall\n      iszero\n      dup1\n      iszero\n      tag_138\n      jumpi\n      returndatasize\n      0x00\n      dup1\n      returndatacopy\n      revert(0x00, returndatasize)\n    tag_138:\n      pop\n      pop\n      pop\n      mload(0x40)\n      returndatasize\n      not(0x1f)\n      0x1f\n      dup3\n      add\n      and\n      dup3\n      add\n      dup1\n      0x40\n      mstore\n      pop\n      dup2\n      add\n      swap1\n      tag_139\n      swap2\n      swap1\n      tag_93\n      jump\t// in\n    tag_139:\n        /* \"sportsbet/contracts/sportsbetting.sol\":2311:2360  sha256(abi.encodePacked((bets[i].team.teamname))) */\n      0x02\n        /* \"sportsbet/contracts/sportsbetting.sol\":2336:2340  bets */\n      0x01\n        /* \"sportsbet/contracts/sportsbetting.sol\":2341:2342  i */\n      dup4\n        /* \"sportsbet/contracts/sportsbetting.sol\":2336:2343  bets[i] */\n      dup2\n      sload\n      dup2\n      lt\n      tag_141\n      jumpi\n      tag_141\n      tag_76\n      jump\t// in\n    tag_141:\n      swap1\n      0x00\n      mstore\n      keccak256(0x00, 0x20)\n      swap1\n      0x05\n      mul\n      add\n        /* \"sportsbet/contracts/sportsbetting.sol\":2336:2348  bets[i].team */\n      0x03\n      add\n        /* \"sportsbet/contracts/sportsbetting.sol\":2336:2357  bets[i].team.teamname */\n      0x00\n      add\n        /* \"sportsbet/contracts/sportsbetting.sol\":2318:2359  abi.encodePacked((bets[i].team.teamname)) */\n      add(0x20, mload(0x40))\n      tag_143\n      swap2\n      swap1\n      tag_98\n      jump\t// in\n    tag_143:\n      0x40\n      dup1\n      mload\n      not(0x1f)\n      dup2\n      dup5\n      sub\n      add\n      dup2\n      mstore\n      swap1\n      dup3\n      swap1\n      mstore\n        /* \"sportsbet/contracts/sportsbetting.sol\":2311:2360  sha256(abi.encodePacked((bets[i].team.teamname))) */\n      tag_144\n      swap2\n      tag_89\n      jump\t// in\n    tag_144:\n      0x20\n      mload(0x40)\n      dup1\n      dup4\n      sub\n      dup2\n      dup6\n      gas\n      staticcall\n      iszero\n      dup1\n      iszero\n      tag_146\n      jumpi\n      returndatasize\n      0x00\n      dup1\n      returndatacopy\n      revert(0x00, returndatasize)\n    tag_146:\n      pop\n      pop\n      pop\n      mload(0x40)\n      returndatasize\n      not(0x1f)\n      0x1f\n      dup3\n      add\n      and\n      dup3\n      add\n      dup1\n      0x40\n      mstore\n      pop\n      dup2\n      add\n      swap1\n      tag_147\n      swap2\n      swap1\n      tag_93\n      jump\t// in\n    tag_147:\n        /* \"sportsbet/contracts/sportsbetting.sol\":2311:2397  sha256(abi.encodePacked((bets[i].team.teamname))) == sha256(abi.encodePacked(\"team2\")) */\n      sub\n        /* \"sportsbet/contracts/sportsbetting.sol\":2307:2736  if (sha256(abi.encodePacked((bets[i].team.teamname))) == sha256(abi.encodePacked(\"team2\"))){... */\n      tag_148\n      jumpi\n        /* \"sportsbet/contracts/sportsbetting.sol\":2420:2444  address payable receiver */\n      0x00\n        /* \"sportsbet/contracts/sportsbetting.sol\":2455:2459  bets */\n      0x01\n        /* \"sportsbet/contracts/sportsbetting.sol\":2460:2461  i */\n      dup3\n        /* \"sportsbet/contracts/sportsbetting.sol\":2455:2462  bets[i] */\n      dup2\n      sload\n      dup2\n      lt\n      tag_150\n      jumpi\n      tag_150\n      tag_76\n      jump\t// in\n    tag_150:\n      0x00\n      swap2\n      dup3\n      mstore\n      0x20\n      swap1\n      swap2\n      keccak256\n        /* \"sportsbet/contracts/sportsbetting.sol\":2455:2467  bets[i].addr */\n      0x01\n        /* \"sportsbet/contracts/sportsbetting.sol\":2455:2462  bets[i] */\n      0x05\n      swap1\n      swap3\n      mul\n      add\n        /* \"sportsbet/contracts/sportsbetting.sol\":2455:2467  bets[i].addr */\n      dup2\n      add\n      sload\n      sub(exp(0x02, 0xa0), 0x01)\n      and\n      swap2\n      pop\n        /* \"sportsbet/contracts/sportsbetting.sol\":2583:2588  10000 */\n      0x2710\n      swap1\n        /* \"sportsbet/contracts/sportsbetting.sol\":2557:2577  getTotalBetAmount(1) */\n      tag_152\n      swap1\n        /* \"sportsbet/contracts/sportsbetting.sol\":2557:2574  getTotalBetAmount */\n      tag_19\n        /* \"sportsbet/contracts/sportsbetting.sol\":2557:2577  getTotalBetAmount(1) */\n      jump\t// in\n    tag_152:\n        /* \"sportsbet/contracts/sportsbetting.sol\":2526:2546  getTotalBetAmount(0) */\n      tag_153\n        /* \"sportsbet/contracts/sportsbetting.sol\":2544:2545  0 */\n      0x00\n        /* \"sportsbet/contracts/sportsbetting.sol\":2526:2543  getTotalBetAmount */\n      tag_19\n        /* \"sportsbet/contracts/sportsbetting.sol\":2526:2546  getTotalBetAmount(0) */\n      jump\t// in\n    tag_153:\n        /* \"sportsbet/contracts/sportsbetting.sol\":2526:2554  getTotalBetAmount(0) * 10000 */\n      tag_154\n      swap1\n        /* \"sportsbet/contracts/sportsbetting.sol\":2549:2554  10000 */\n      0x2710\n        /* \"sportsbet/contracts/sportsbetting.sol\":2526:2554  getTotalBetAmount(0) * 10000 */\n      tag_110\n      jump\t// in\n    tag_154:\n        /* \"sportsbet/contracts/sportsbetting.sol\":2526:2577  getTotalBetAmount(0) * 10000 / getTotalBetAmount(1) */\n      tag_155\n      swap2\n      swap1\n      tag_112\n      jump\t// in\n    tag_155:\n        /* \"sportsbet/contracts/sportsbetting.sol\":2517:2578  10000 + (getTotalBetAmount(0) * 10000 / getTotalBetAmount(1)) */\n      tag_156\n      swap1\n        /* \"sportsbet/contracts/sportsbetting.sol\":2517:2522  10000 */\n      0x2710\n        /* \"sportsbet/contracts/sportsbetting.sol\":2517:2578  10000 + (getTotalBetAmount(0) * 10000 / getTotalBetAmount(1)) */\n      tag_114\n      jump\t// in\n    tag_156:\n        /* \"sportsbet/contracts/sportsbetting.sol\":2499:2503  bets */\n      0x01\n        /* \"sportsbet/contracts/sportsbetting.sol\":2504:2505  i */\n      dup5\n        /* \"sportsbet/contracts/sportsbetting.sol\":2499:2506  bets[i] */\n      dup2\n      sload\n      dup2\n      lt\n      tag_158\n      jumpi\n      tag_158\n      tag_76\n      jump\t// in\n    tag_158:\n      swap1\n      0x00\n      mstore\n      keccak256(0x00, 0x20)\n      swap1\n      0x05\n      mul\n      add\n        /* \"sportsbet/contracts/sportsbetting.sol\":2499:2513  bets[i].amount */\n      0x02\n      add\n      sload\n        /* \"sportsbet/contracts/sportsbetting.sol\":2499:2579  bets[i].amount * (10000 + (getTotalBetAmount(0) * 10000 / getTotalBetAmount(1))) */\n      tag_160\n      swap2\n      swap1\n      tag_110\n      jump\t// in\n    tag_160:\n        /* \"sportsbet/contracts/sportsbetting.sol\":2498:2588  (bets[i].amount * (10000 + (getTotalBetAmount(0) * 10000 / getTotalBetAmount(1)))) / 10000 */\n      tag_161\n      swap2\n      swap1\n      tag_112\n      jump\t// in\n    tag_161:\n        /* \"sportsbet/contracts/sportsbetting.sol\":2490:2588  slice = (bets[i].amount * (10000 + (getTotalBetAmount(0) * 10000 / getTotalBetAmount(1)))) / 10000 */\n      swap3\n      pop\n        /* \"sportsbet/contracts/sportsbetting.sol\":2611:2620  bool sent */\n      0x00\n        /* \"sportsbet/contracts/sportsbetting.sol\":2625:2633  receiver */\n      dup2\n      sub(exp(0x02, 0xa0), 0x01)\n        /* \"sportsbet/contracts/sportsbetting.sol\":2625:2638  receiver.call */\n      and\n        /* \"sportsbet/contracts/sportsbetting.sol\":2647:2652  slice */\n      dup5\n        /* \"sportsbet/contracts/sportsbetting.sol\":2625:2658  receiver.call{ value: slice }(\"\") */\n      mload(0x40)\n      0x00\n      mload(0x40)\n      dup1\n      dup4\n      sub\n      dup2\n      dup6\n      dup8\n      gas\n      call\n      swap3\n      pop\n      pop\n      pop\n      returndatasize\n      dup1\n      0x00\n      dup2\n      eq\n      tag_165\n      jumpi\n      mload(0x40)\n      swap2\n      pop\n      and(add(returndatasize, 0x3f), not(0x1f))\n      dup3\n      add\n      0x40\n      mstore\n      returndatasize\n      dup3\n      mstore\n      returndatasize\n      0x00\n      0x20\n      dup5\n      add\n      returndatacopy\n      jump(tag_164)\n    tag_165:\n      0x60\n      swap2\n      pop\n    tag_164:\n      pop\n        /* \"sportsbet/contracts/sportsbetting.sol\":2610:2658  (bool sent,) = receiver.call{ value: slice }(\"\") */\n      pop\n      swap1\n      pop\n        /* \"sportsbet/contracts/sportsbetting.sol\":2688:2692  sent */\n      dup1\n        /* \"sportsbet/contracts/sportsbetting.sol\":2680:2717  require(sent, \"Failed to send Ether\") */\n      tag_166\n      jumpi\n      mload(0x40)\n      mul(0x461bcd, exp(0x02, 0xe5))\n      dup2\n      mstore\n      0x04\n      add\n      tag_126\n      swap1\n      tag_127\n      jump\t// in\n    tag_166:\n        /* \"sportsbet/contracts/sportsbetting.sol\":2398:2736  {... */\n      pop\n      pop\n        /* \"sportsbet/contracts/sportsbetting.sol\":2307:2736  if (sha256(abi.encodePacked((bets[i].team.teamname))) == sha256(abi.encodePacked(\"team2\"))){... */\n    tag_148:\n        /* \"sportsbet/contracts/sportsbetting.sol\":2285:2288  i++ */\n      dup1\n      tag_168\n      dup2\n      tag_129\n      jump\t// in\n    tag_168:\n      swap2\n      pop\n      pop\n        /* \"sportsbet/contracts/sportsbetting.sol\":2251:2750  for (uint i = 0; i < bets.length; i++){... */\n      jump(tag_131)\n    tag_132:\n      pop\n        /* \"sportsbet/contracts/sportsbetting.sol\":2222:2760  if (_team == 1){... */\n    tag_130:\n        /* \"sportsbet/contracts/sportsbetting.sol\":2777:2778  0 */\n      0x00\n        /* \"sportsbet/contracts/sportsbetting.sol\":2769:2774  total */\n      0x05\n        /* \"sportsbet/contracts/sportsbetting.sol\":2769:2778  total = 0 */\n      dup2\n      swap1\n      sstore\n        /* \"sportsbet/contracts/sportsbetting.sol\":2788:2793  teams */\n      0x02\n        /* \"sportsbet/contracts/sportsbetting.sol\":2788:2796  teams[0] */\n      dup1\n      sload\n        /* \"sportsbet/contracts/sportsbetting.sol\":2777:2778  0 */\n      dup3\n      swap1\n        /* \"sportsbet/contracts/sportsbetting.sol\":2788:2796  teams[0] */\n      tag_170\n      jumpi\n      tag_170\n      tag_76\n      jump\t// in\n    tag_170:\n      swap1\n      0x00\n      mstore\n      keccak256(0x00, 0x20)\n      swap1\n      0x02\n      mul\n      add\n        /* \"sportsbet/contracts/sportsbetting.sol\":2788:2805  teams[0].totalbet */\n      0x01\n      add\n        /* \"sportsbet/contracts/sportsbetting.sol\":2788:2809  teams[0].totalbet = 0 */\n      dup2\n      swap1\n      sstore\n      pop\n        /* \"sportsbet/contracts/sportsbetting.sol\":2839:2840  0 */\n      0x00\n        /* \"sportsbet/contracts/sportsbetting.sol\":2819:2824  teams */\n      0x02\n        /* \"sportsbet/contracts/sportsbetting.sol\":2825:2826  1 */\n      0x01\n        /* \"sportsbet/contracts/sportsbetting.sol\":2819:2827  teams[1] */\n      dup2\n      sload\n      dup2\n      lt\n      tag_173\n      jumpi\n      tag_173\n      tag_76\n      jump\t// in\n    tag_173:\n      swap1\n      0x00\n      mstore\n      keccak256(0x00, 0x20)\n      swap1\n      0x02\n      mul\n      add\n        /* \"sportsbet/contracts/sportsbetting.sol\":2819:2836  teams[1].totalbet */\n      0x01\n      add\n        /* \"sportsbet/contracts/sportsbetting.sol\":2819:2840  teams[1].totalbet = 0 */\n      dup2\n      swap1\n      sstore\n      pop\n        /* \"sportsbet/contracts/sportsbetting.sol\":2856:2862  uint i */\n      0x00\n        /* \"sportsbet/contracts/sportsbetting.sol\":2851:2943  for (uint i = 0; i < bets.length; i++) {... */\n    tag_175:\n        /* \"sportsbet/contracts/sportsbetting.sol\":2872:2876  bets */\n      0x01\n        /* \"sportsbet/contracts/sportsbetting.sol\":2872:2883  bets.length */\n      sload\n        /* \"sportsbet/contracts/sportsbetting.sol\":2868:2883  i < bets.length */\n      dup2\n      lt\n        /* \"sportsbet/contracts/sportsbetting.sol\":2851:2943  for (uint i = 0; i < bets.length; i++) {... */\n      iszero\n      tag_176\n      jumpi\n        /* \"sportsbet/contracts/sportsbetting.sol\":2931:2932  0 */\n      0x00\n        /* \"sportsbet/contracts/sportsbetting.sol\":2904:2914  betAmounts */\n      0x04\n        /* \"sportsbet/contracts/sportsbetting.sol\":2904:2928  betAmounts[bets[i].addr] */\n      0x00\n        /* \"sportsbet/contracts/sportsbetting.sol\":2915:2919  bets */\n      0x01\n        /* \"sportsbet/contracts/sportsbetting.sol\":2920:2921  i */\n      dup5\n        /* \"sportsbet/contracts/sportsbetting.sol\":2915:2922  bets[i] */\n      dup2\n      sload\n      dup2\n      lt\n      tag_179\n      jumpi\n      tag_179\n      tag_76\n      jump\t// in\n    tag_179:\n      0x00\n      swap2\n      dup3\n      mstore\n      0x20\n      dup1\n      dup4\n      keccak256\n        /* \"sportsbet/contracts/sportsbetting.sol\":2915:2927  bets[i].addr */\n      0x01\n        /* \"sportsbet/contracts/sportsbetting.sol\":2915:2922  bets[i] */\n      0x05\n      swap1\n      swap4\n      mul\n      add\n        /* \"sportsbet/contracts/sportsbetting.sol\":2915:2927  bets[i].addr */\n      swap2\n      swap1\n      swap2\n      add\n      sload\n      sub(exp(0x02, 0xa0), 0x01)\n      and\n        /* \"sportsbet/contracts/sportsbetting.sol\":2904:2928  betAmounts[bets[i].addr] */\n      dup4\n      mstore\n      dup3\n      add\n      swap3\n      swap1\n      swap3\n      mstore\n      0x40\n      add\n      swap1\n      keccak256\n        /* \"sportsbet/contracts/sportsbetting.sol\":2904:2932  betAmounts[bets[i].addr] = 0 */\n      sstore\n        /* \"sportsbet/contracts/sportsbetting.sol\":2885:2888  i++ */\n      dup1\n      tag_181\n      dup2\n      tag_129\n      jump\t// in\n    tag_181:\n      swap2\n      pop\n      pop\n        /* \"sportsbet/contracts/sportsbetting.sol\":2851:2943  for (uint i = 0; i < bets.length; i++) {... */\n      jump(tag_175)\n    tag_176:\n      pop\n        /* \"sportsbet/contracts/sportsbetting.sol\":1643:2951  {... */\n      pop\n        /* \"sportsbet/contracts/sportsbetting.sol\":1583:2951  function winningTeam(uint _team) public payable onlyOwner() {... */\n      pop\n      jump\t// out\n        /* \"sportsbet/contracts/sportsbetting.sol\":358:375  bet[] public bets */\n    tag_28:\n      0x01\n      dup2\n      dup2\n      sload\n      dup2\n      lt\n      tag_182\n      jumpi\n      0x00\n      dup1\n      revert\n    tag_182:\n      swap1\n      0x00\n      mstore\n      keccak256(0x00, 0x20)\n      swap1\n      0x05\n      mul\n      add\n      0x00\n      swap2\n      pop\n      swap1\n      pop\n      dup1\n      0x00\n      add\n      dup1\n      sload\n      tag_184\n      swap1\n      tag_185\n      jump\t// in\n    tag_184:\n      dup1\n      0x1f\n      add\n      0x20\n      dup1\n      swap2\n      div\n      mul\n      0x20\n      add\n      mload(0x40)\n      swap1\n      dup2\n      add\n      0x40\n      mstore\n      dup1\n      swap3\n      swap2\n      swap1\n      dup2\n      dup2\n      mstore\n      0x20\n      add\n      dup3\n      dup1\n      sload\n      tag_186\n      swap1\n      tag_185\n      jump\t// in\n    tag_186:\n      dup1\n      iszero\n      tag_187\n      jumpi\n      dup1\n      0x1f\n      lt\n      tag_188\n      jumpi\n      0x0100\n      dup1\n      dup4\n      sload\n      div\n      mul\n      dup4\n      mstore\n      swap2\n      0x20\n      add\n      swap2\n      jump(tag_187)\n    tag_188:\n      dup3\n      add\n      swap2\n      swap1\n      0x00\n      mstore\n      keccak256(0x00, 0x20)\n      swap1\n    tag_189:\n      dup2\n      sload\n      dup2\n      mstore\n      swap1\n      0x01\n      add\n      swap1\n      0x20\n      add\n      dup1\n      dup4\n      gt\n      tag_189\n      jumpi\n      dup3\n      swap1\n      sub\n      0x1f\n      and\n      dup3\n      add\n      swap2\n    tag_187:\n      pop\n      pop\n      pop\n      pop\n      pop\n      swap1\n      dup1\n      0x01\n      add\n      0x00\n      swap1\n      sload\n      swap1\n      0x0100\n      exp\n      swap1\n      div\n      sub(exp(0x02, 0xa0), 0x01)\n      and\n      swap1\n      dup1\n      0x02\n      add\n      sload\n      swap1\n      dup1\n      0x03\n      add\n      mload(0x40)\n      dup1\n      0x40\n      add\n      0x40\n      mstore\n      swap1\n      dup2\n      0x00\n      dup3\n      add\n      dup1\n      sload\n      tag_190\n      swap1\n      tag_185\n      jump\t// in\n    tag_190:\n      dup1\n      0x1f\n      add\n      0x20\n      dup1\n      swap2\n      div\n      mul\n      0x20\n      add\n      mload(0x40)\n      swap1\n      dup2\n      add\n      0x40\n      mstore\n      dup1\n      swap3\n      swap2\n      swap1\n      dup2\n      dup2\n      mstore\n      0x20\n      add\n      dup3\n      dup1\n      sload\n      tag_191\n      swap1\n      tag_185\n      jump\t// in\n    tag_191:\n      dup1\n      iszero\n      tag_192\n      jumpi\n      dup1\n      0x1f\n      lt\n      tag_193\n      jumpi\n      0x0100\n      dup1\n      dup4\n      sload\n      div\n      mul\n      dup4\n      mstore\n      swap2\n      0x20\n      add\n      swap2\n      jump(tag_192)\n    tag_193:\n      dup3\n      add\n      swap2\n      swap1\n      0x00\n      mstore\n      keccak256(0x00, 0x20)\n      swap1\n    tag_194:\n      dup2\n      sload\n      dup2\n      mstore\n      swap1\n      0x01\n      add\n      swap1\n      0x20\n      add\n      dup1\n      dup4\n      gt\n      tag_194\n      jumpi\n      dup3\n      swap1\n      sub\n      0x1f\n      and\n      dup3\n      add\n      swap2\n    tag_192:\n      pop\n      pop\n      pop\n      pop\n      pop\n      dup2\n      mstore\n      0x20\n      add\n      0x01\n      dup3\n      add\n      sload\n      dup2\n      mstore\n      pop\n      pop\n      swap1\n      pop\n      dup5\n      jump\t// out\n        /* \"sportsbet/contracts/sportsbetting.sol\":381:400  Team[] public teams */\n    tag_38:\n      0x02\n      dup2\n      dup2\n      sload\n      dup2\n      lt\n      tag_195\n      jumpi\n      0x00\n      dup1\n      revert\n    tag_195:\n      swap1\n      0x00\n      mstore\n      keccak256(0x00, 0x20)\n      swap1\n      0x02\n      mul\n      add\n      0x00\n      swap2\n      pop\n      swap1\n      pop\n      dup1\n      0x00\n      add\n      dup1\n      sload\n      tag_197\n      swap1\n      tag_185\n      jump\t// in\n    tag_197:\n      dup1\n      0x1f\n      add\n      0x20\n      dup1\n      swap2\n      div\n      mul\n      0x20\n      add\n      mload(0x40)\n      swap1\n      dup2\n      add\n      0x40\n      mstore\n      dup1\n      swap3\n      swap2\n      swap1\n      dup2\n      dup2\n      mstore\n      0x20\n      add\n      dup3\n      dup1\n      sload\n      tag_198\n      swap1\n      tag_185\n      jump\t// in\n    tag_198:\n      dup1\n      iszero\n      tag_199\n      jumpi\n      dup1\n      0x1f\n      lt\n      tag_200\n      jumpi\n      0x0100\n      dup1\n      dup4\n      sload\n      div\n      mul\n      dup4\n      mstore\n      swap2\n      0x20\n      add\n      swap2\n      jump(tag_199)\n    tag_200:\n      dup3\n      add\n      swap2\n      swap1\n      0x00\n      mstore\n      keccak256(0x00, 0x20)\n      swap1\n    tag_201:\n      dup2\n      sload\n      dup2\n      mstore\n      swap1\n      0x01\n      add\n      swap1\n      0x20\n      add\n      dup1\n      dup4\n      gt\n      tag_201\n      jumpi\n      dup3\n      swap1\n      sub\n      0x1f\n      and\n      dup3\n      add\n      swap2\n    tag_199:\n      pop\n      pop\n      pop\n      pop\n      pop\n      swap1\n      dup1\n      0x01\n      add\n      sload\n      swap1\n      pop\n      dup3\n      jump\t// out\n        /* \"sportsbet/contracts/Ownable.sol\":1263:1390  function renounceOwnership() public onlyOwner {... */\n    tag_43:\n        /* \"sportsbet/contracts/Ownable.sol\":960:964  bool */\n      0x00\n        /* \"sportsbet/contracts/Ownable.sol\":993:999  _owner */\n      sload\n      sub(exp(0x02, 0xa0), 0x01)\n      and\n        /* \"sportsbet/contracts/Ownable.sol\":979:989  msg.sender */\n      caller\n        /* \"sportsbet/contracts/Ownable.sol\":979:999  msg.sender == _owner */\n      eq\n        /* \"sportsbet/contracts/Ownable.sol\":813:831  require(isOwner()) */\n      tag_204\n      jumpi\n      0x00\n      dup1\n      revert\n    tag_204:\n        /* \"sportsbet/contracts/Ownable.sol\":1357:1358  0 */\n      0x00\n        /* \"sportsbet/contracts/Ownable.sol\":1341:1347  _owner */\n      dup1\n      sload\n        /* \"sportsbet/contracts/Ownable.sol\":1320:1360  OwnershipTransferred(_owner, address(0)) */\n      mload(0x40)\n      sub(exp(0x02, 0xa0), 0x01)\n        /* \"sportsbet/contracts/Ownable.sol\":1341:1347  _owner */\n      swap1\n      swap2\n      and\n      swap1\n        /* \"sportsbet/contracts/Ownable.sol\":1320:1360  OwnershipTransferred(_owner, address(0)) */\n      0x8be0079c531659141344cd1fd0a4f28419497f9722a3daafe3b4186f6b6457e0\n      swap1\n        /* \"sportsbet/contracts/Ownable.sol\":1357:1358  0 */\n      dup4\n      swap1\n        /* \"sportsbet/contracts/Ownable.sol\":1320:1360  OwnershipTransferred(_owner, address(0)) */\n      log3\n        /* \"sportsbet/contracts/Ownable.sol\":1383:1384  0 */\n      0x00\n        /* \"sportsbet/contracts/Ownable.sol\":1366:1385  _owner = address(0) */\n      dup1\n      sload\n      not(0xffffffffffffffffffffffffffffffffffffffff)\n      and\n      swap1\n      sstore\n        /* \"sportsbet/contracts/Ownable.sol\":1263:1390  function renounceOwnership() public onlyOwner {... */\n      jump\t// out\n        /* \"sportsbet/contracts/sportsbetting.sol\":655:747  function createTeam (string memory _name) public {... */\n    tag_58:\n        /* \"sportsbet/contracts/sportsbetting.sol\":725:739  Team(_name, 0) */\n      0x40\n      dup1\n      mload\n      dup1\n      dup3\n      add\n      swap1\n      swap2\n      mstore\n      dup2\n      dup2\n      mstore\n      0x00\n      0x20\n      dup1\n      dup4\n      add\n      dup3\n      swap1\n      mstore\n        /* \"sportsbet/contracts/sportsbetting.sol\":714:719  teams */\n      0x02\n        /* \"sportsbet/contracts/sportsbetting.sol\":714:740  teams.push(Team(_name, 0)) */\n      dup1\n      sload\n      0x01\n      dup2\n      add\n      dup3\n      sstore\n      swap3\n      dup2\n      swap1\n      mstore\n      dup4\n      mload\n      dup1\n      mload\n      swap4\n      swap1\n      swap2\n      mul\n      0x405787fa12a823e0f2b7631cc41b3ba8828b3321ca811111fa75cd3aa3bb5ace\n      add\n      swap3\n      tag_210\n      swap3\n      dup5\n      swap3\n      add\n      swap1\n      tag_211\n      jump\t// in\n    tag_210:\n      pop\n      0x20\n      dup3\n      add\n      mload\n      dup2\n      0x01\n      add\n      sstore\n      pop\n      pop\n        /* \"sportsbet/contracts/sportsbetting.sol\":655:747  function createTeam (string memory _name) public {... */\n      pop\n      jump\t// out\n        /* \"sportsbet/contracts/sportsbetting.sol\":867:1573  function createBet (string memory _name, uint _team) external payable { ... */\n    tag_62:\n        /* \"sportsbet/contracts/sportsbetting.sol\":971:976  Owner */\n      and(sub(exp(0x02, 0xa0), 0x01), sload(0x03))\n        /* \"sportsbet/contracts/sportsbetting.sol\":957:967  msg.sender */\n      caller\n        /* \"sportsbet/contracts/sportsbetting.sol\":957:976  msg.sender != Owner */\n      sub\n        /* \"sportsbet/contracts/sportsbetting.sol\":948:1015  require (msg.sender != Owner, \"owner is not allowed to make a bet\") */\n      tag_213\n      jumpi\n      mload(0x40)\n      mul(0x461bcd, exp(0x02, 0xe5))\n      dup2\n      mstore\n        /* \"#utility.yul\":8459:8461   */\n      0x20\n        /* \"sportsbet/contracts/sportsbetting.sol\":948:1015  require (msg.sender != Owner, \"owner is not allowed to make a bet\") */\n      0x04\n      dup3\n      add\n        /* \"#utility.yul\":8441:8462   */\n      mstore\n        /* \"#utility.yul\":8498:8500   */\n      0x22\n        /* \"#utility.yul\":8478:8496   */\n      0x24\n      dup3\n      add\n        /* \"#utility.yul\":8471:8501   */\n      mstore\n        /* \"#utility.yul\":8537:8571   */\n      0x6f776e6572206973206e6f7420616c6c6f77656420746f206d616b6520612062\n        /* \"#utility.yul\":8517:8535   */\n      0x44\n      dup3\n      add\n        /* \"#utility.yul\":8510:8572   */\n      mstore\n        /* \"#utility.yul\":8608:8612   */\n      0x6574000000000000000000000000000000000000000000000000000000000000\n        /* \"#utility.yul\":8588:8606   */\n      0x64\n      dup3\n      add\n        /* \"#utility.yul\":8581:8613   */\n      mstore\n        /* \"#utility.yul\":8630:8649   */\n      0x84\n      add\n        /* \"sportsbet/contracts/sportsbetting.sol\":948:1015  require (msg.sender != Owner, \"owner is not allowed to make a bet\") */\n      tag_126\n        /* \"#utility.yul\":8257:8655   */\n      jump\n        /* \"sportsbet/contracts/sportsbetting.sol\":948:1015  require (msg.sender != Owner, \"owner is not allowed to make a bet\") */\n    tag_213:\n        /* \"sportsbet/contracts/sportsbetting.sol\":1045:1055  msg.sender */\n      caller\n        /* \"sportsbet/contracts/sportsbetting.sol\":1034:1056  betAmounts[msg.sender] */\n      0x00\n      swap1\n      dup2\n      mstore\n        /* \"sportsbet/contracts/sportsbetting.sol\":1034:1044  betAmounts */\n      0x04\n        /* \"sportsbet/contracts/sportsbetting.sol\":1034:1056  betAmounts[msg.sender] */\n      0x20\n      mstore\n      0x40\n      swap1\n      keccak256\n      sload\n        /* \"sportsbet/contracts/sportsbetting.sol\":1034:1061  betAmounts[msg.sender] == 0 */\n      iszero\n        /* \"sportsbet/contracts/sportsbetting.sol\":1025:1089  require (betAmounts[msg.sender] == 0, \"Only one bet is allowed\") */\n      tag_216\n      jumpi\n      mload(0x40)\n      mul(0x461bcd, exp(0x02, 0xe5))\n      dup2\n      mstore\n        /* \"#utility.yul\":8862:8864   */\n      0x20\n        /* \"sportsbet/contracts/sportsbetting.sol\":1025:1089  require (betAmounts[msg.sender] == 0, \"Only one bet is allowed\") */\n      0x04\n      dup3\n      add\n        /* \"#utility.yul\":8844:8865   */\n      mstore\n        /* \"#utility.yul\":8901:8903   */\n      0x17\n        /* \"#utility.yul\":8881:8899   */\n      0x24\n      dup3\n      add\n        /* \"#utility.yul\":8874:8904   */\n      mstore\n        /* \"#utility.yul\":8940:8965   */\n      0x4f6e6c79206f6e652062657420697320616c6c6f776564000000000000000000\n        /* \"#utility.yul\":8920:8938   */\n      0x44\n      dup3\n      add\n        /* \"#utility.yul\":8913:8966   */\n      mstore\n        /* \"#utility.yul\":8983:9001   */\n      0x64\n      add\n        /* \"sportsbet/contracts/sportsbetting.sol\":1025:1089  require (betAmounts[msg.sender] == 0, \"Only one bet is allowed\") */\n      tag_126\n        /* \"#utility.yul\":8660:9007   */\n      jump\n        /* \"sportsbet/contracts/sportsbetting.sol\":1025:1089  require (betAmounts[msg.sender] == 0, \"Only one bet is allowed\") */\n    tag_216:\n        /* \"sportsbet/contracts/sportsbetting.sol\":1124:1133  msg.value */\n      callvalue\n        /* \"sportsbet/contracts/sportsbetting.sol\":1099:1109  betAmounts */\n      0x04\n        /* \"sportsbet/contracts/sportsbetting.sol\":1099:1121  betAmounts[msg.sender] */\n      0x00\n        /* \"sportsbet/contracts/sportsbetting.sol\":1110:1120  msg.sender */\n      caller\n      sub(exp(0x02, 0xa0), 0x01)\n        /* \"sportsbet/contracts/sportsbetting.sol\":1099:1121  betAmounts[msg.sender] */\n      and\n      sub(exp(0x02, 0xa0), 0x01)\n      and\n      dup2\n      mstore\n      0x20\n      add\n      swap1\n      dup2\n      mstore\n      0x20\n      add\n      0x00\n      keccak256\n        /* \"sportsbet/contracts/sportsbetting.sol\":1099:1133  betAmounts[msg.sender] = msg.value */\n      dup2\n      swap1\n      sstore\n      pop\n        /* \"sportsbet/contracts/sportsbetting.sol\":1143:1147  bets */\n      0x01\n        /* \"sportsbet/contracts/sportsbetting.sol\":1153:1200  bet(_name, msg.sender, msg.value, teams[_team]) */\n      mload(0x40)\n      dup1\n      0x80\n      add\n      0x40\n      mstore\n      dup1\n        /* \"sportsbet/contracts/sportsbetting.sol\":1157:1162  _name */\n      dup5\n        /* \"sportsbet/contracts/sportsbetting.sol\":1153:1200  bet(_name, msg.sender, msg.value, teams[_team]) */\n      dup2\n      mstore\n      0x20\n      add\n        /* \"sportsbet/contracts/sportsbetting.sol\":1164:1174  msg.sender */\n      caller\n      sub(exp(0x02, 0xa0), 0x01)\n        /* \"sportsbet/contracts/sportsbetting.sol\":1153:1200  bet(_name, msg.sender, msg.value, teams[_team]) */\n      and\n      dup2\n      mstore\n      0x20\n      add\n        /* \"sportsbet/contracts/sportsbetting.sol\":1176:1185  msg.value */\n      callvalue\n        /* \"sportsbet/contracts/sportsbetting.sol\":1153:1200  bet(_name, msg.sender, msg.value, teams[_team]) */\n      dup2\n      mstore\n      0x20\n      add\n        /* \"sportsbet/contracts/sportsbetting.sol\":1187:1192  teams */\n      0x02\n        /* \"sportsbet/contracts/sportsbetting.sol\":1193:1198  _team */\n      dup5\n        /* \"sportsbet/contracts/sportsbetting.sol\":1187:1199  teams[_team] */\n      dup2\n      sload\n      dup2\n      lt\n      tag_220\n      jumpi\n      tag_220\n      tag_76\n      jump\t// in\n    tag_220:\n      swap1\n      0x00\n      mstore\n      keccak256(0x00, 0x20)\n      swap1\n      0x02\n      mul\n      add\n        /* \"sportsbet/contracts/sportsbetting.sol\":1153:1200  bet(_name, msg.sender, msg.value, teams[_team]) */\n      mload(0x40)\n      dup1\n      0x40\n      add\n      0x40\n      mstore\n      swap1\n      dup2\n      0x00\n      dup3\n      add\n      dup1\n      sload\n      tag_222\n      swap1\n      tag_185\n      jump\t// in\n    tag_222:\n      dup1\n      0x1f\n      add\n      0x20\n      dup1\n      swap2\n      div\n      mul\n      0x20\n      add\n      mload(0x40)\n      swap1\n      dup2\n      add\n      0x40\n      mstore\n      dup1\n      swap3\n      swap2\n      swap1\n      dup2\n      dup2\n      mstore\n      0x20\n      add\n      dup3\n      dup1\n      sload\n      tag_223\n      swap1\n      tag_185\n      jump\t// in\n    tag_223:\n      dup1\n      iszero\n      tag_224\n      jumpi\n      dup1\n      0x1f\n      lt\n      tag_225\n      jumpi\n      0x0100\n      dup1\n      dup4\n      sload\n      div\n      mul\n      dup4\n      mstore\n      swap2\n      0x20\n      add\n      swap2\n      jump(tag_224)\n    tag_225:\n      dup3\n      add\n      swap2\n      swap1\n      0x00\n      mstore\n      keccak256(0x00, 0x20)\n      swap1\n    tag_226:\n      dup2\n      sload\n      dup2\n      mstore\n      swap1\n      0x01\n      add\n      swap1\n      0x20\n      add\n      dup1\n      dup4\n      gt\n      tag_226\n      jumpi\n      dup3\n      swap1\n      sub\n      0x1f\n      and\n      dup3\n      add\n      swap2\n    tag_224:\n      pop\n      pop\n      pop\n      swap2\n      dup4\n      mstore\n      pop\n      pop\n      0x01\n      swap2\n      dup3\n      add\n      sload\n      0x20\n      swap2\n      dup3\n      add\n      mstore\n      swap2\n      swap1\n      swap3\n      mstore\n        /* \"sportsbet/contracts/sportsbetting.sol\":1143:1201  bets.push(bet(_name, msg.sender, msg.value, teams[_team])) */\n      dup4\n      sload\n      swap2\n      dup3\n      add\n      dup5\n      sstore\n      0x00\n      swap4\n      dup5\n      mstore\n      swap3\n      dup4\n      swap1\n      keccak256\n      dup3\n      mload\n      dup1\n      mload\n      swap4\n      swap5\n      0x05\n      swap1\n      swap4\n      mul\n      swap1\n      swap2\n      add\n      swap3\n      tag_228\n      swap3\n      dup5\n      swap3\n      add\n      swap1\n      tag_211\n      jump\t// in\n    tag_228:\n      pop\n      0x20\n      dup3\n      dup2\n      add\n      mload\n      0x01\n      dup4\n      add\n      dup1\n      sload\n      not(0xffffffffffffffffffffffffffffffffffffffff)\n      and\n      sub(exp(0x02, 0xa0), 0x01)\n      swap1\n      swap3\n      and\n      swap2\n      swap1\n      swap2\n      or\n      swap1\n      sstore\n      0x40\n      dup4\n      add\n      mload\n      0x02\n      dup4\n      add\n      sstore\n      0x60\n      dup4\n      add\n      mload\n      dup1\n      mload\n      dup1\n      mload\n      swap2\n      swap3\n      0x03\n      dup6\n      add\n      swap3\n      tag_229\n      swap3\n      dup5\n      swap3\n      add\n      swap1\n      tag_211\n      jump\t// in\n    tag_229:\n      pop\n      0x20\n      dup3\n      add\n      mload\n      dup2\n      0x01\n      add\n      sstore\n      pop\n      pop\n      pop\n      pop\n        /* \"sportsbet/contracts/sportsbetting.sol\":1215:1220  _team */\n      dup1\n        /* \"sportsbet/contracts/sportsbetting.sol\":1224:1225  0 */\n      0x00\n        /* \"sportsbet/contracts/sportsbetting.sol\":1215:1225  _team == 0 */\n      sub\n        /* \"sportsbet/contracts/sportsbetting.sol\":1211:1282  if (_team == 0) {... */\n      tag_230\n      jumpi\n        /* \"sportsbet/contracts/sportsbetting.sol\":1262:1271  msg.value */\n      callvalue\n        /* \"sportsbet/contracts/sportsbetting.sol\":1241:1246  teams */\n      0x02\n        /* \"sportsbet/contracts/sportsbetting.sol\":1247:1248  0 */\n      0x00\n        /* \"sportsbet/contracts/sportsbetting.sol\":1241:1249  teams[0] */\n      dup2\n      sload\n      dup2\n      lt\n      tag_232\n      jumpi\n      tag_232\n      tag_76\n      jump\t// in\n    tag_232:\n      swap1\n      0x00\n      mstore\n      keccak256(0x00, 0x20)\n      swap1\n      0x02\n      mul\n      add\n        /* \"sportsbet/contracts/sportsbetting.sol\":1241:1258  teams[0].totalbet */\n      0x01\n      add\n      0x00\n        /* \"sportsbet/contracts/sportsbetting.sol\":1241:1271  teams[0].totalbet += msg.value */\n      dup3\n      dup3\n      sload\n      tag_234\n      swap2\n      swap1\n      tag_114\n      jump\t// in\n    tag_234:\n      swap1\n      swap2\n      sstore\n      pop\n      pop\n        /* \"sportsbet/contracts/sportsbetting.sol\":1211:1282  if (_team == 0) {... */\n    tag_230:\n        /* \"sportsbet/contracts/sportsbetting.sol\":1296:1301  _team */\n      dup1\n        /* \"sportsbet/contracts/sportsbetting.sol\":1305:1306  1 */\n      0x01\n        /* \"sportsbet/contracts/sportsbetting.sol\":1296:1306  _team == 1 */\n      sub\n        /* \"sportsbet/contracts/sportsbetting.sol\":1292:1363  if (_team == 1) {... */\n      tag_235\n      jumpi\n        /* \"sportsbet/contracts/sportsbetting.sol\":1343:1352  msg.value */\n      callvalue\n        /* \"sportsbet/contracts/sportsbetting.sol\":1322:1327  teams */\n      0x02\n        /* \"sportsbet/contracts/sportsbetting.sol\":1328:1329  1 */\n      0x01\n        /* \"sportsbet/contracts/sportsbetting.sol\":1322:1330  teams[1] */\n      dup2\n      sload\n      dup2\n      lt\n      tag_237\n      jumpi\n      tag_237\n      tag_76\n      jump\t// in\n    tag_237:\n      swap1\n      0x00\n      mstore\n      keccak256(0x00, 0x20)\n      swap1\n      0x02\n      mul\n      add\n        /* \"sportsbet/contracts/sportsbetting.sol\":1322:1339  teams[1].totalbet */\n      0x01\n      add\n      0x00\n        /* \"sportsbet/contracts/sportsbetting.sol\":1322:1352  teams[1].totalbet += msg.value */\n      dup3\n      dup3\n      sload\n      tag_239\n      swap2\n      swap1\n      tag_114\n      jump\t// in\n    tag_239:\n      swap1\n      swap2\n      sstore\n      pop\n      pop\n        /* \"sportsbet/contracts/sportsbetting.sol\":1292:1363  if (_team == 1) {... */\n    tag_235:\n        /* \"sportsbet/contracts/sportsbetting.sol\":1397:1402  Owner */\n      sload(0x03)\n        /* \"sportsbet/contracts/sportsbetting.sol\":1397:1429  Owner.call{value: msg.value}(\"\") */\n      mload(0x40)\n        /* \"sportsbet/contracts/sportsbetting.sol\":1382:1391  bool sent */\n      0x00\n      swap2\n      sub(exp(0x02, 0xa0), 0x01)\n        /* \"sportsbet/contracts/sportsbetting.sol\":1397:1402  Owner */\n      and\n      swap1\n        /* \"sportsbet/contracts/sportsbetting.sol\":1415:1424  msg.value */\n      callvalue\n      swap1\n        /* \"sportsbet/contracts/sportsbetting.sol\":1382:1391  bool sent */\n      dup4\n        /* \"sportsbet/contracts/sportsbetting.sol\":1397:1429  Owner.call{value: msg.value}(\"\") */\n      dup2\n        /* \"sportsbet/contracts/sportsbetting.sol\":1382:1391  bool sent */\n      dup2\n        /* \"sportsbet/contracts/sportsbetting.sol\":1397:1429  Owner.call{value: msg.value}(\"\") */\n      dup2\n        /* \"sportsbet/contracts/sportsbetting.sol\":1415:1424  msg.value */\n      dup6\n        /* \"sportsbet/contracts/sportsbetting.sol\":1397:1402  Owner */\n      dup8\n        /* \"sportsbet/contracts/sportsbetting.sol\":1397:1429  Owner.call{value: msg.value}(\"\") */\n      gas\n      call\n      swap3\n      pop\n      pop\n      pop\n      returndatasize\n      dup1\n      0x00\n      dup2\n      eq\n      tag_243\n      jumpi\n      mload(0x40)\n      swap2\n      pop\n      and(add(returndatasize, 0x3f), not(0x1f))\n      dup3\n      add\n      0x40\n      mstore\n      returndatasize\n      dup3\n      mstore\n      returndatasize\n      0x00\n      0x20\n      dup5\n      add\n      returndatacopy\n      jump(tag_242)\n    tag_243:\n      0x60\n      swap2\n      pop\n    tag_242:\n      pop\n        /* \"sportsbet/contracts/sportsbetting.sol\":1381:1429  (bool sent, ) = Owner.call{value: msg.value}(\"\") */\n      pop\n      swap1\n      pop\n        /* \"sportsbet/contracts/sportsbetting.sol\":1447:1451  sent */\n      dup1\n        /* \"sportsbet/contracts/sportsbetting.sol\":1439:1476  require(sent, \"Failed to send Ether\") */\n      tag_244\n      jumpi\n      mload(0x40)\n      mul(0x461bcd, exp(0x02, 0xe5))\n      dup2\n      mstore\n      0x04\n      add\n      tag_126\n      swap1\n      tag_127\n      jump\t// in\n    tag_244:\n        /* \"sportsbet/contracts/sportsbetting.sol\":1495:1504  msg.value */\n      callvalue\n        /* \"sportsbet/contracts/sportsbetting.sol\":1486:1491  total */\n      0x05\n      0x00\n        /* \"sportsbet/contracts/sportsbetting.sol\":1486:1504  total += msg.value */\n      dup3\n      dup3\n      sload\n      tag_246\n      swap2\n      swap1\n      tag_114\n      jump\t// in\n    tag_246:\n      swap3\n      pop\n      pop\n      dup2\n      swap1\n      sstore\n      pop\n        /* \"sportsbet/contracts/sportsbetting.sol\":1519:1562  NewBet(msg.sender, msg.value, teams[_team]) */\n      0x948a46eba9469fc822b082631d32f2456ea94a35179d32230095b6f34fb341cb\n        /* \"sportsbet/contracts/sportsbetting.sol\":1526:1536  msg.sender */\n      caller\n        /* \"sportsbet/contracts/sportsbetting.sol\":1538:1547  msg.value */\n      callvalue\n        /* \"sportsbet/contracts/sportsbetting.sol\":1549:1554  teams */\n      0x02\n        /* \"sportsbet/contracts/sportsbetting.sol\":1555:1560  _team */\n      dup6\n        /* \"sportsbet/contracts/sportsbetting.sol\":1549:1561  teams[_team] */\n      dup2\n      sload\n      dup2\n      lt\n      tag_248\n      jumpi\n      tag_248\n      tag_76\n      jump\t// in\n    tag_248:\n      swap1\n      0x00\n      mstore\n      keccak256(0x00, 0x20)\n      swap1\n      0x02\n      mul\n      add\n        /* \"sportsbet/contracts/sportsbetting.sol\":1519:1562  NewBet(msg.sender, msg.value, teams[_team]) */\n      mload(0x40)\n      tag_250\n      swap4\n      swap3\n      swap2\n      swap1\n      tag_251\n      jump\t// in\n    tag_250:\n      mload(0x40)\n      dup1\n      swap2\n      sub\n      swap1\n      log1\n        /* \"sportsbet/contracts/sportsbetting.sol\":937:1573  { ... */\n      pop\n        /* \"sportsbet/contracts/sportsbetting.sol\":867:1573  function createBet (string memory _name, uint _team) external payable { ... */\n      pop\n      pop\n      jump\t// out\n        /* \"sportsbet/contracts/Ownable.sol\":1548:1649  function transferOwnership(address newOwner) public onlyOwner {... */\n    tag_72:\n        /* \"sportsbet/contracts/Ownable.sol\":960:964  bool */\n      0x00\n        /* \"sportsbet/contracts/Ownable.sol\":993:999  _owner */\n      sload\n      sub(exp(0x02, 0xa0), 0x01)\n      and\n        /* \"sportsbet/contracts/Ownable.sol\":979:989  msg.sender */\n      caller\n        /* \"sportsbet/contracts/Ownable.sol\":979:999  msg.sender == _owner */\n      eq\n        /* \"sportsbet/contracts/Ownable.sol\":813:831  require(isOwner()) */\n      tag_254\n      jumpi\n      0x00\n      dup1\n      revert\n    tag_254:\n        /* \"sportsbet/contracts/Ownable.sol\":1616:1644  _transferOwnership(newOwner) */\n      tag_256\n        /* \"sportsbet/contracts/Ownable.sol\":1635:1643  newOwner */\n      dup2\n        /* \"sportsbet/contracts/Ownable.sol\":1616:1634  _transferOwnership */\n      tag_257\n        /* \"sportsbet/contracts/Ownable.sol\":1616:1644  _transferOwnership(newOwner) */\n      jump\t// in\n    tag_256:\n        /* \"sportsbet/contracts/Ownable.sol\":1548:1649  function transferOwnership(address newOwner) public onlyOwner {... */\n      pop\n      jump\t// out\n        /* \"sportsbet/contracts/Ownable.sol\":1780:1949  function _transferOwnership(address newOwner) internal {... */\n    tag_257:\n      sub(exp(0x02, 0xa0), 0x01)\n        /* \"sportsbet/contracts/Ownable.sol\":1849:1871  newOwner != address(0) */\n      dup2\n      and\n        /* \"sportsbet/contracts/Ownable.sol\":1841:1872  require(newOwner != address(0)) */\n      tag_259\n      jumpi\n      0x00\n      dup1\n      revert\n    tag_259:\n        /* \"sportsbet/contracts/Ownable.sol\":1904:1910  _owner */\n      0x00\n      dup1\n      sload\n        /* \"sportsbet/contracts/Ownable.sol\":1883:1921  OwnershipTransferred(_owner, newOwner) */\n      mload(0x40)\n      sub(exp(0x02, 0xa0), 0x01)\n      dup1\n      dup6\n      and\n      swap4\n        /* \"sportsbet/contracts/Ownable.sol\":1904:1910  _owner */\n      swap3\n      and\n      swap2\n        /* \"sportsbet/contracts/Ownable.sol\":1883:1921  OwnershipTransferred(_owner, newOwner) */\n      0x8be0079c531659141344cd1fd0a4f28419497f9722a3daafe3b4186f6b6457e0\n      swap2\n      log3\n        /* \"sportsbet/contracts/Ownable.sol\":1927:1933  _owner */\n      0x00\n        /* \"sportsbet/contracts/Ownable.sol\":1927:1944  _owner = newOwner */\n      dup1\n      sload\n      not(0xffffffffffffffffffffffffffffffffffffffff)\n      and\n      sub(exp(0x02, 0xa0), 0x01)\n      swap3\n      swap1\n      swap3\n      and\n      swap2\n      swap1\n      swap2\n      or\n      swap1\n      sstore\n        /* \"sportsbet/contracts/Ownable.sol\":1780:1949  function _transferOwnership(address newOwner) internal {... */\n      jump\t// out\n    tag_211:\n      dup3\n      dup1\n      sload\n      tag_260\n      swap1\n      tag_185\n      jump\t// in\n    tag_260:\n      swap1\n      0x00\n      mstore\n      keccak256(0x00, 0x20)\n      swap1\n      0x1f\n      add\n      0x20\n      swap1\n      div\n      dup2\n      add\n      swap3\n      dup3\n      tag_262\n      jumpi\n      0x00\n      dup6\n      sstore\n      jump(tag_265)\n    tag_262:\n      dup3\n      0x1f\n      lt\n      tag_263\n      jumpi\n      dup1\n      mload\n      not(0xff)\n      and\n      dup4\n      dup1\n      add\n      or\n      dup6\n      sstore\n      jump(tag_265)\n    tag_263:\n      dup3\n      dup1\n      add\n      0x01\n      add\n      dup6\n      sstore\n      dup3\n      iszero\n      tag_265\n      jumpi\n      swap2\n      dup3\n      add\n    tag_264:\n      dup3\n      dup2\n      gt\n      iszero\n      tag_265\n      jumpi\n      dup3\n      mload\n      dup3\n      sstore\n      swap2\n      0x20\n      add\n      swap2\n      swap1\n      0x01\n      add\n      swap1\n      jump(tag_264)\n    tag_265:\n      pop\n      tag_266\n      swap3\n      swap2\n      pop\n      tag_267\n      jump\t// in\n    tag_266:\n      pop\n      swap1\n      jump\t// out\n    tag_267:\n    tag_268:\n      dup1\n      dup3\n      gt\n      iszero\n      tag_266\n      jumpi\n      0x00\n      dup2\n      sstore\n      0x01\n      add\n      jump(tag_268)\n        /* \"#utility.yul\":14:194   */\n    tag_18:\n        /* \"#utility.yul\":73:79   */\n      0x00\n        /* \"#utility.yul\":126:128   */\n      0x20\n        /* \"#utility.yul\":114:123   */\n      dup3\n        /* \"#utility.yul\":105:112   */\n      dup5\n        /* \"#utility.yul\":101:124   */\n      sub\n        /* \"#utility.yul\":97:129   */\n      slt\n        /* \"#utility.yul\":94:146   */\n      iszero\n      tag_277\n      jumpi\n        /* \"#utility.yul\":142:143   */\n      0x00\n        /* \"#utility.yul\":139:140   */\n      dup1\n        /* \"#utility.yul\":132:144   */\n      revert\n        /* \"#utility.yul\":94:146   */\n    tag_277:\n      pop\n        /* \"#utility.yul\":165:188   */\n      calldataload\n      swap2\n        /* \"#utility.yul\":14:194   */\n      swap1\n      pop\n      jump\t// out\n        /* \"#utility.yul\":381:639   */\n    tag_270:\n        /* \"#utility.yul\":453:454   */\n      0x00\n        /* \"#utility.yul\":463:576   */\n    tag_280:\n        /* \"#utility.yul\":477:483   */\n      dup4\n        /* \"#utility.yul\":474:475   */\n      dup2\n        /* \"#utility.yul\":471:484   */\n      lt\n        /* \"#utility.yul\":463:576   */\n      iszero\n      tag_282\n      jumpi\n        /* \"#utility.yul\":553:564   */\n      dup2\n      dup2\n      add\n        /* \"#utility.yul\":547:565   */\n      mload\n        /* \"#utility.yul\":534:545   */\n      dup4\n      dup3\n      add\n        /* \"#utility.yul\":527:566   */\n      mstore\n        /* \"#utility.yul\":499:501   */\n      0x20\n        /* \"#utility.yul\":492:502   */\n      add\n        /* \"#utility.yul\":463:576   */\n      jump(tag_280)\n    tag_282:\n        /* \"#utility.yul\":594:600   */\n      dup4\n        /* \"#utility.yul\":591:592   */\n      dup2\n        /* \"#utility.yul\":588:601   */\n      gt\n        /* \"#utility.yul\":585:633   */\n      iszero\n      tag_283\n      jumpi\n        /* \"#utility.yul\":629:630   */\n      0x00\n        /* \"#utility.yul\":620:626   */\n      dup5\n        /* \"#utility.yul\":615:618   */\n      dup5\n        /* \"#utility.yul\":611:627   */\n      add\n        /* \"#utility.yul\":604:631   */\n      mstore\n        /* \"#utility.yul\":585:633   */\n    tag_283:\n      pop\n        /* \"#utility.yul\":381:639   */\n      pop\n      pop\n      pop\n      jump\t// out\n        /* \"#utility.yul\":644:902   */\n    tag_271:\n        /* \"#utility.yul\":686:689   */\n      0x00\n        /* \"#utility.yul\":724:729   */\n      dup2\n        /* \"#utility.yul\":718:730   */\n      mload\n        /* \"#utility.yul\":751:757   */\n      dup1\n        /* \"#utility.yul\":746:749   */\n      dup5\n        /* \"#utility.yul\":739:758   */\n      mstore\n        /* \"#utility.yul\":767:830   */\n      tag_285\n        /* \"#utility.yul\":823:829   */\n      dup2\n        /* \"#utility.yul\":816:820   */\n      0x20\n        /* \"#utility.yul\":811:814   */\n      dup7\n        /* \"#utility.yul\":807:821   */\n      add\n        /* \"#utility.yul\":800:804   */\n      0x20\n        /* \"#utility.yul\":793:798   */\n      dup7\n        /* \"#utility.yul\":789:805   */\n      add\n        /* \"#utility.yul\":767:830   */\n      tag_270\n      jump\t// in\n    tag_285:\n        /* \"#utility.yul\":884:886   */\n      0x1f\n        /* \"#utility.yul\":863:878   */\n      add\n      not(0x1f)\n        /* \"#utility.yul\":859:888   */\n      and\n        /* \"#utility.yul\":850:889   */\n      swap3\n      swap1\n      swap3\n      add\n        /* \"#utility.yul\":891:895   */\n      0x20\n        /* \"#utility.yul\":846:896   */\n      add\n      swap3\n        /* \"#utility.yul\":644:902   */\n      swap2\n      pop\n      pop\n      jump\t// out\n        /* \"#utility.yul\":907:1674   */\n    tag_30:\n        /* \"#utility.yul\":1182:1185   */\n      0x80\n        /* \"#utility.yul\":1171:1180   */\n      dup2\n        /* \"#utility.yul\":1164:1186   */\n      mstore\n        /* \"#utility.yul\":1145:1149   */\n      0x00\n        /* \"#utility.yul\":1209:1255   */\n      tag_287\n        /* \"#utility.yul\":1250:1253   */\n      0x80\n        /* \"#utility.yul\":1239:1248   */\n      dup4\n        /* \"#utility.yul\":1235:1254   */\n      add\n        /* \"#utility.yul\":1227:1233   */\n      dup8\n        /* \"#utility.yul\":1209:1255   */\n      tag_271\n      jump\t// in\n    tag_287:\n      sub(exp(0x02, 0xa0), 0x01)\n        /* \"#utility.yul\":1295:1301   */\n      dup7\n        /* \"#utility.yul\":1291:1346   */\n      and\n        /* \"#utility.yul\":1286:1288   */\n      0x20\n        /* \"#utility.yul\":1275:1284   */\n      dup5\n        /* \"#utility.yul\":1271:1289   */\n      add\n        /* \"#utility.yul\":1264:1347   */\n      mstore\n        /* \"#utility.yul\":1383:1389   */\n      dup5\n        /* \"#utility.yul\":1378:1380   */\n      0x40\n        /* \"#utility.yul\":1367:1376   */\n      dup5\n        /* \"#utility.yul\":1363:1381   */\n      add\n        /* \"#utility.yul\":1356:1390   */\n      mstore\n        /* \"#utility.yul\":1438:1447   */\n      dup3\n        /* \"#utility.yul\":1430:1436   */\n      dup2\n        /* \"#utility.yul\":1426:1448   */\n      sub\n        /* \"#utility.yul\":1421:1423   */\n      0x60\n        /* \"#utility.yul\":1410:1419   */\n      dup5\n        /* \"#utility.yul\":1406:1424   */\n      add\n        /* \"#utility.yul\":1399:1449   */\n      mstore\n        /* \"#utility.yul\":1484:1490   */\n      dup4\n        /* \"#utility.yul\":1478:1491   */\n      mload\n        /* \"#utility.yul\":1515:1517   */\n      0x40\n        /* \"#utility.yul\":1507:1513   */\n      dup3\n        /* \"#utility.yul\":1500:1518   */\n      mstore\n        /* \"#utility.yul\":1541:1589   */\n      tag_288\n        /* \"#utility.yul\":1585:1587   */\n      0x40\n        /* \"#utility.yul\":1577:1583   */\n      dup4\n        /* \"#utility.yul\":1573:1588   */\n      add\n        /* \"#utility.yul\":1559:1571   */\n      dup3\n        /* \"#utility.yul\":1541:1589   */\n      tag_271\n      jump\t// in\n    tag_288:\n        /* \"#utility.yul\":1527:1589   */\n      swap1\n      pop\n        /* \"#utility.yul\":1640:1642   */\n      0x20\n        /* \"#utility.yul\":1632:1638   */\n      dup6\n        /* \"#utility.yul\":1628:1643   */\n      add\n        /* \"#utility.yul\":1622:1644   */\n      mload\n        /* \"#utility.yul\":1617:1619   */\n      0x20\n        /* \"#utility.yul\":1609:1615   */\n      dup4\n        /* \"#utility.yul\":1605:1620   */\n      add\n        /* \"#utility.yul\":1598:1645   */\n      mstore\n        /* \"#utility.yul\":1662:1668   */\n      dup1\n        /* \"#utility.yul\":1654:1668   */\n      swap3\n      pop\n      pop\n      pop\n        /* \"#utility.yul\":907:1674   */\n      swap6\n      swap5\n      pop\n      pop\n      pop\n      pop\n      pop\n      jump\t// out\n        /* \"#utility.yul\":1679:1970   */\n    tag_40:\n        /* \"#utility.yul\":1856:1858   */\n      0x40\n        /* \"#utility.yul\":1845:1854   */\n      dup2\n        /* \"#utility.yul\":1838:1859   */\n      mstore\n        /* \"#utility.yul\":1819:1823   */\n      0x00\n        /* \"#utility.yul\":1876:1921   */\n      tag_290\n        /* \"#utility.yul\":1917:1919   */\n      0x40\n        /* \"#utility.yul\":1906:1915   */\n      dup4\n        /* \"#utility.yul\":1902:1920   */\n      add\n        /* \"#utility.yul\":1894:1900   */\n      dup6\n        /* \"#utility.yul\":1876:1921   */\n      tag_271\n      jump\t// in\n    tag_290:\n        /* \"#utility.yul\":1868:1921   */\n      swap1\n      pop\n        /* \"#utility.yul\":1957:1963   */\n      dup3\n        /* \"#utility.yul\":1952:1954   */\n      0x20\n        /* \"#utility.yul\":1941:1950   */\n      dup4\n        /* \"#utility.yul\":1937:1955   */\n      add\n        /* \"#utility.yul\":1930:1964   */\n      mstore\n        /* \"#utility.yul\":1679:1970   */\n      swap4\n      swap3\n      pop\n      pop\n      pop\n      jump\t// out\n        /* \"#utility.yul\":2398:2582   */\n    tag_272:\n      mul(0x4e487b71, exp(0x02, 0xe0))\n        /* \"#utility.yul\":2447:2448   */\n      0x00\n        /* \"#utility.yul\":2440:2528   */\n      mstore\n        /* \"#utility.yul\":2547:2551   */\n      0x41\n        /* \"#utility.yul\":2544:2545   */\n      0x04\n        /* \"#utility.yul\":2537:2552   */\n      mstore\n        /* \"#utility.yul\":2571:2575   */\n      0x24\n        /* \"#utility.yul\":2568:2569   */\n      0x00\n        /* \"#utility.yul\":2561:2576   */\n      revert\n        /* \"#utility.yul\":2587:3306   */\n    tag_273:\n        /* \"#utility.yul\":2630:2635   */\n      0x00\n        /* \"#utility.yul\":2683:2686   */\n      dup3\n        /* \"#utility.yul\":2676:2680   */\n      0x1f\n        /* \"#utility.yul\":2668:2674   */\n      dup4\n        /* \"#utility.yul\":2664:2681   */\n      add\n        /* \"#utility.yul\":2660:2687   */\n      slt\n        /* \"#utility.yul\":2650:2705   */\n      tag_295\n      jumpi\n        /* \"#utility.yul\":2701:2702   */\n      0x00\n        /* \"#utility.yul\":2698:2699   */\n      dup1\n        /* \"#utility.yul\":2691:2703   */\n      revert\n        /* \"#utility.yul\":2650:2705   */\n    tag_295:\n        /* \"#utility.yul\":2737:2743   */\n      dup2\n        /* \"#utility.yul\":2724:2744   */\n      calldataload\n        /* \"#utility.yul\":2763:2781   */\n      0xffffffffffffffff\n        /* \"#utility.yul\":2800:2802   */\n      dup1\n        /* \"#utility.yul\":2796:2798   */\n      dup3\n        /* \"#utility.yul\":2793:2803   */\n      gt\n        /* \"#utility.yul\":2790:2826   */\n      iszero\n      tag_297\n      jumpi\n        /* \"#utility.yul\":2806:2824   */\n      tag_297\n      tag_272\n      jump\t// in\n    tag_297:\n        /* \"#utility.yul\":2881:2883   */\n      0x40\n        /* \"#utility.yul\":2875:2884   */\n      mload\n        /* \"#utility.yul\":2849:2851   */\n      0x1f\n        /* \"#utility.yul\":2935:2948   */\n      dup4\n      add\n      not(0x1f)\n        /* \"#utility.yul\":2931:2953   */\n      swap1\n      dup2\n      and\n        /* \"#utility.yul\":2955:2957   */\n      0x3f\n        /* \"#utility.yul\":2927:2958   */\n      add\n        /* \"#utility.yul\":2923:2963   */\n      and\n        /* \"#utility.yul\":2911:2964   */\n      dup2\n      add\n      swap1\n        /* \"#utility.yul\":2979:2997   */\n      dup3\n      dup3\n      gt\n        /* \"#utility.yul\":2999:3021   */\n      dup2\n      dup4\n      lt\n        /* \"#utility.yul\":2976:3022   */\n      or\n        /* \"#utility.yul\":2973:3045   */\n      iszero\n      tag_299\n      jumpi\n        /* \"#utility.yul\":3025:3043   */\n      tag_299\n      tag_272\n      jump\t// in\n    tag_299:\n        /* \"#utility.yul\":3065:3075   */\n      dup2\n        /* \"#utility.yul\":3061:3063   */\n      0x40\n        /* \"#utility.yul\":3054:3076   */\n      mstore\n        /* \"#utility.yul\":3100:3102   */\n      dup4\n        /* \"#utility.yul\":3092:3098   */\n      dup2\n        /* \"#utility.yul\":3085:3103   */\n      mstore\n        /* \"#utility.yul\":3146:3149   */\n      dup7\n        /* \"#utility.yul\":3139:3143   */\n      0x20\n        /* \"#utility.yul\":3134:3136   */\n      dup6\n        /* \"#utility.yul\":3126:3132   */\n      dup9\n        /* \"#utility.yul\":3122:3137   */\n      add\n        /* \"#utility.yul\":3118:3144   */\n      add\n        /* \"#utility.yul\":3115:3150   */\n      gt\n        /* \"#utility.yul\":3112:3167   */\n      iszero\n      tag_300\n      jumpi\n        /* \"#utility.yul\":3163:3164   */\n      0x00\n        /* \"#utility.yul\":3160:3161   */\n      dup1\n        /* \"#utility.yul\":3153:3165   */\n      revert\n        /* \"#utility.yul\":3112:3167   */\n    tag_300:\n        /* \"#utility.yul\":3227:3229   */\n      dup4\n        /* \"#utility.yul\":3220:3224   */\n      0x20\n        /* \"#utility.yul\":3212:3218   */\n      dup8\n        /* \"#utility.yul\":3208:3225   */\n      add\n        /* \"#utility.yul\":3201:3205   */\n      0x20\n        /* \"#utility.yul\":3193:3199   */\n      dup4\n        /* \"#utility.yul\":3189:3206   */\n      add\n        /* \"#utility.yul\":3176:3230   */\n      calldatacopy\n        /* \"#utility.yul\":3274:3275   */\n      0x00\n        /* \"#utility.yul\":3267:3271   */\n      0x20\n        /* \"#utility.yul\":3262:3264   */\n      dup6\n        /* \"#utility.yul\":3254:3260   */\n      dup4\n        /* \"#utility.yul\":3250:3265   */\n      add\n        /* \"#utility.yul\":3246:3272   */\n      add\n        /* \"#utility.yul\":3239:3276   */\n      mstore\n        /* \"#utility.yul\":3294:3300   */\n      dup1\n        /* \"#utility.yul\":3285:3300   */\n      swap5\n      pop\n      pop\n      pop\n      pop\n      pop\n        /* \"#utility.yul\":2587:3306   */\n      swap3\n      swap2\n      pop\n      pop\n      jump\t// out\n        /* \"#utility.yul\":3311:3633   */\n    tag_57:\n        /* \"#utility.yul\":3380:3386   */\n      0x00\n        /* \"#utility.yul\":3433:3435   */\n      0x20\n        /* \"#utility.yul\":3421:3430   */\n      dup3\n        /* \"#utility.yul\":3412:3419   */\n      dup5\n        /* \"#utility.yul\":3408:3431   */\n      sub\n        /* \"#utility.yul\":3404:3436   */\n      slt\n        /* \"#utility.yul\":3401:3453   */\n      iszero\n      tag_302\n      jumpi\n        /* \"#utility.yul\":3449:3450   */\n      0x00\n        /* \"#utility.yul\":3446:3447   */\n      dup1\n        /* \"#utility.yul\":3439:3451   */\n      revert\n        /* \"#utility.yul\":3401:3453   */\n    tag_302:\n        /* \"#utility.yul\":3489:3498   */\n      dup2\n        /* \"#utility.yul\":3476:3499   */\n      calldataload\n        /* \"#utility.yul\":3522:3540   */\n      0xffffffffffffffff\n        /* \"#utility.yul\":3514:3520   */\n      dup2\n        /* \"#utility.yul\":3511:3541   */\n      gt\n        /* \"#utility.yul\":3508:3558   */\n      iszero\n      tag_303\n      jumpi\n        /* \"#utility.yul\":3554:3555   */\n      0x00\n        /* \"#utility.yul\":3551:3552   */\n      dup1\n        /* \"#utility.yul\":3544:3556   */\n      revert\n        /* \"#utility.yul\":3508:3558   */\n    tag_303:\n        /* \"#utility.yul\":3577:3627   */\n      tag_304\n        /* \"#utility.yul\":3619:3626   */\n      dup5\n        /* \"#utility.yul\":3610:3616   */\n      dup3\n        /* \"#utility.yul\":3599:3608   */\n      dup6\n        /* \"#utility.yul\":3595:3617   */\n      add\n        /* \"#utility.yul\":3577:3627   */\n      tag_273\n      jump\t// in\n    tag_304:\n        /* \"#utility.yul\":3567:3627   */\n      swap5\n        /* \"#utility.yul\":3311:3633   */\n      swap4\n      pop\n      pop\n      pop\n      pop\n      jump\t// out\n        /* \"#utility.yul\":3638:4028   */\n    tag_61:\n        /* \"#utility.yul\":3716:3722   */\n      0x00\n        /* \"#utility.yul\":3724:3730   */\n      dup1\n        /* \"#utility.yul\":3777:3779   */\n      0x40\n        /* \"#utility.yul\":3765:3774   */\n      dup4\n        /* \"#utility.yul\":3756:3763   */\n      dup6\n        /* \"#utility.yul\":3752:3775   */\n      sub\n        /* \"#utility.yul\":3748:3780   */\n      slt\n        /* \"#utility.yul\":3745:3797   */\n      iszero\n      tag_306\n      jumpi\n        /* \"#utility.yul\":3793:3794   */\n      0x00\n        /* \"#utility.yul\":3790:3791   */\n      dup1\n        /* \"#utility.yul\":3783:3795   */\n      revert\n        /* \"#utility.yul\":3745:3797   */\n    tag_306:\n        /* \"#utility.yul\":3833:3842   */\n      dup3\n        /* \"#utility.yul\":3820:3843   */\n      calldataload\n        /* \"#utility.yul\":3866:3884   */\n      0xffffffffffffffff\n        /* \"#utility.yul\":3858:3864   */\n      dup2\n        /* \"#utility.yul\":3855:3885   */\n      gt\n        /* \"#utility.yul\":3852:3902   */\n      iszero\n      tag_307\n      jumpi\n        /* \"#utility.yul\":3898:3899   */\n      0x00\n        /* \"#utility.yul\":3895:3896   */\n      dup1\n        /* \"#utility.yul\":3888:3900   */\n      revert\n        /* \"#utility.yul\":3852:3902   */\n    tag_307:\n        /* \"#utility.yul\":3921:3971   */\n      tag_308\n        /* \"#utility.yul\":3963:3970   */\n      dup6\n        /* \"#utility.yul\":3954:3960   */\n      dup3\n        /* \"#utility.yul\":3943:3952   */\n      dup7\n        /* \"#utility.yul\":3939:3961   */\n      add\n        /* \"#utility.yul\":3921:3971   */\n      tag_273\n      jump\t// in\n    tag_308:\n        /* \"#utility.yul\":3911:3971   */\n      swap6\n        /* \"#utility.yul\":4018:4020   */\n      0x20\n        /* \"#utility.yul\":4003:4021   */\n      swap5\n      swap1\n      swap5\n      add\n        /* \"#utility.yul\":3990:4022   */\n      calldataload\n      swap5\n      pop\n      pop\n      pop\n      pop\n        /* \"#utility.yul\":3638:4028   */\n      jump\t// out\n        /* \"#utility.yul\":4033:4342   */\n    tag_66:\n        /* \"#utility.yul\":4092:4098   */\n      0x00\n        /* \"#utility.yul\":4145:4147   */\n      0x20\n        /* \"#utility.yul\":4133:4142   */\n      dup3\n        /* \"#utility.yul\":4124:4131   */\n      dup5\n        /* \"#utility.yul\":4120:4143   */\n      sub\n        /* \"#utility.yul\":4116:4148   */\n      slt\n        /* \"#utility.yul\":4113:4165   */\n      iszero\n      tag_310\n      jumpi\n        /* \"#utility.yul\":4161:4162   */\n      0x00\n        /* \"#utility.yul\":4158:4159   */\n      dup1\n        /* \"#utility.yul\":4151:4163   */\n      revert\n        /* \"#utility.yul\":4113:4165   */\n    tag_310:\n        /* \"#utility.yul\":4200:4209   */\n      dup2\n        /* \"#utility.yul\":4187:4210   */\n      calldataload\n      sub(exp(0x02, 0xa0), 0x01)\n        /* \"#utility.yul\":4243:4248   */\n      dup2\n        /* \"#utility.yul\":4239:4293   */\n      and\n        /* \"#utility.yul\":4232:4237   */\n      dup2\n        /* \"#utility.yul\":4229:4294   */\n      eq\n        /* \"#utility.yul\":4219:4312   */\n      tag_311\n      jumpi\n        /* \"#utility.yul\":4308:4309   */\n      0x00\n        /* \"#utility.yul\":4305:4306   */\n      dup1\n        /* \"#utility.yul\":4298:4310   */\n      revert\n        /* \"#utility.yul\":4219:4312   */\n    tag_311:\n        /* \"#utility.yul\":4331:4336   */\n      swap4\n        /* \"#utility.yul\":4033:4342   */\n      swap3\n      pop\n      pop\n      pop\n      jump\t// out\n        /* \"#utility.yul\":4347:4531   */\n    tag_76:\n      mul(0x4e487b71, exp(0x02, 0xe0))\n        /* \"#utility.yul\":4396:4397   */\n      0x00\n        /* \"#utility.yul\":4389:4477   */\n      mstore\n        /* \"#utility.yul\":4496:4500   */\n      0x32\n        /* \"#utility.yul\":4493:4494   */\n      0x04\n        /* \"#utility.yul\":4486:4501   */\n      mstore\n        /* \"#utility.yul\":4520:4524   */\n      0x24\n        /* \"#utility.yul\":4517:4518   */\n      0x00\n        /* \"#utility.yul\":4510:4525   */\n      revert\n        /* \"#utility.yul\":4796:5070   */\n    tag_89:\n        /* \"#utility.yul\":4925:4928   */\n      0x00\n        /* \"#utility.yul\":4963:4969   */\n      dup3\n        /* \"#utility.yul\":4957:4970   */\n      mload\n        /* \"#utility.yul\":4979:5032   */\n      tag_315\n        /* \"#utility.yul\":5025:5031   */\n      dup2\n        /* \"#utility.yul\":5020:5023   */\n      dup5\n        /* \"#utility.yul\":5013:5017   */\n      0x20\n        /* \"#utility.yul\":5005:5011   */\n      dup8\n        /* \"#utility.yul\":5001:5018   */\n      add\n        /* \"#utility.yul\":4979:5032   */\n      tag_270\n      jump\t// in\n    tag_315:\n        /* \"#utility.yul\":5048:5064   */\n      swap2\n      swap1\n      swap2\n      add\n      swap3\n        /* \"#utility.yul\":4796:5070   */\n      swap2\n      pop\n      pop\n      jump\t// out\n        /* \"#utility.yul\":5075:5259   */\n    tag_93:\n        /* \"#utility.yul\":5145:5151   */\n      0x00\n        /* \"#utility.yul\":5198:5200   */\n      0x20\n        /* \"#utility.yul\":5186:5195   */\n      dup3\n        /* \"#utility.yul\":5177:5184   */\n      dup5\n        /* \"#utility.yul\":5173:5196   */\n      sub\n        /* \"#utility.yul\":5169:5201   */\n      slt\n        /* \"#utility.yul\":5166:5218   */\n      iszero\n      tag_317\n      jumpi\n        /* \"#utility.yul\":5214:5215   */\n      0x00\n        /* \"#utility.yul\":5211:5212   */\n      dup1\n        /* \"#utility.yul\":5204:5216   */\n      revert\n        /* \"#utility.yul\":5166:5218   */\n    tag_317:\n      pop\n        /* \"#utility.yul\":5237:5253   */\n      mload\n      swap2\n        /* \"#utility.yul\":5075:5259   */\n      swap1\n      pop\n      jump\t// out\n        /* \"#utility.yul\":5264:5701   */\n    tag_185:\n        /* \"#utility.yul\":5349:5350   */\n      0x02\n        /* \"#utility.yul\":5339:5351   */\n      dup2\n      div\n        /* \"#utility.yul\":5396:5397   */\n      0x01\n        /* \"#utility.yul\":5386:5398   */\n      dup3\n      and\n      dup1\n        /* \"#utility.yul\":5407:5468   */\n      tag_319\n      jumpi\n        /* \"#utility.yul\":5461:5465   */\n      0x7f\n        /* \"#utility.yul\":5453:5459   */\n      dup3\n        /* \"#utility.yul\":5449:5466   */\n      and\n        /* \"#utility.yul\":5439:5466   */\n      swap2\n      pop\n        /* \"#utility.yul\":5407:5468   */\n    tag_319:\n        /* \"#utility.yul\":5514:5516   */\n      0x20\n        /* \"#utility.yul\":5506:5512   */\n      dup3\n        /* \"#utility.yul\":5503:5517   */\n      lt\n        /* \"#utility.yul\":5483:5501   */\n      dup2\n        /* \"#utility.yul\":5480:5518   */\n      sub\n        /* \"#utility.yul\":5477:5695   */\n      tag_320\n      jumpi\n      mul(0x4e487b71, exp(0x02, 0xe0))\n        /* \"#utility.yul\":5548:5549   */\n      0x00\n        /* \"#utility.yul\":5541:5629   */\n      mstore\n        /* \"#utility.yul\":5652:5656   */\n      0x22\n        /* \"#utility.yul\":5649:5650   */\n      0x04\n        /* \"#utility.yul\":5642:5657   */\n      mstore\n        /* \"#utility.yul\":5680:5684   */\n      0x24\n        /* \"#utility.yul\":5677:5678   */\n      0x00\n        /* \"#utility.yul\":5670:5685   */\n      revert\n        /* \"#utility.yul\":5477:5695   */\n    tag_320:\n      pop\n        /* \"#utility.yul\":5264:5701   */\n      swap2\n      swap1\n      pop\n      jump\t// out\n        /* \"#utility.yul\":5706:6519   */\n    tag_98:\n        /* \"#utility.yul\":5834:5837   */\n      0x00\n        /* \"#utility.yul\":5863:5864   */\n      dup1\n        /* \"#utility.yul\":5896:5902   */\n      dup4\n        /* \"#utility.yul\":5890:5903   */\n      sload\n        /* \"#utility.yul\":5926:5962   */\n      tag_322\n        /* \"#utility.yul\":5952:5961   */\n      dup2\n        /* \"#utility.yul\":5926:5962   */\n      tag_185\n      jump\t// in\n    tag_322:\n        /* \"#utility.yul\":5981:5982   */\n      0x01\n        /* \"#utility.yul\":5998:6016   */\n      dup3\n      dup2\n      and\n        /* \"#utility.yul\":6025:6129   */\n      dup1\n      iszero\n      tag_324\n      jumpi\n        /* \"#utility.yul\":6143:6144   */\n      0x01\n        /* \"#utility.yul\":6138:6494   */\n      dup2\n      eq\n      tag_325\n      jumpi\n        /* \"#utility.yul\":5991:6494   */\n      jump(tag_323)\n        /* \"#utility.yul\":6025:6129   */\n    tag_324:\n      not(0xff)\n        /* \"#utility.yul\":6058:6082   */\n      dup5\n      and\n        /* \"#utility.yul\":6046:6083   */\n      dup8\n      mstore\n        /* \"#utility.yul\":6103:6119   */\n      dup3\n      dup8\n      add\n      swap5\n      pop\n        /* \"#utility.yul\":6025:6129   */\n      jump(tag_323)\n        /* \"#utility.yul\":6138:6494   */\n    tag_325:\n        /* \"#utility.yul\":6169:6175   */\n      dup8\n        /* \"#utility.yul\":6166:6167   */\n      0x00\n        /* \"#utility.yul\":6159:6176   */\n      mstore\n        /* \"#utility.yul\":6199:6203   */\n      0x20\n        /* \"#utility.yul\":6244:6246   */\n      dup1\n        /* \"#utility.yul\":6241:6242   */\n      0x00\n        /* \"#utility.yul\":6231:6247   */\n      keccak256\n        /* \"#utility.yul\":6269:6270   */\n      0x00\n        /* \"#utility.yul\":6283:6448   */\n    tag_326:\n        /* \"#utility.yul\":6297:6303   */\n      dup6\n        /* \"#utility.yul\":6294:6295   */\n      dup2\n        /* \"#utility.yul\":6291:6304   */\n      lt\n        /* \"#utility.yul\":6283:6448   */\n      iszero\n      tag_328\n      jumpi\n        /* \"#utility.yul\":6375:6389   */\n      dup2\n      sload\n        /* \"#utility.yul\":6362:6373   */\n      dup11\n      dup3\n      add\n        /* \"#utility.yul\":6355:6390   */\n      mstore\n        /* \"#utility.yul\":6418:6434   */\n      swap1\n      dup5\n      add\n      swap1\n        /* \"#utility.yul\":6312:6322   */\n      dup3\n      add\n        /* \"#utility.yul\":6283:6448   */\n      jump(tag_326)\n    tag_328:\n        /* \"#utility.yul\":6287:6290   */\n      pop\n      pop\n      pop\n        /* \"#utility.yul\":6477:6483   */\n      dup3\n        /* \"#utility.yul\":6472:6475   */\n      dup8\n        /* \"#utility.yul\":6468:6484   */\n      add\n        /* \"#utility.yul\":6461:6484   */\n      swap5\n      pop\n        /* \"#utility.yul\":5991:6494   */\n    tag_323:\n      pop\n        /* \"#utility.yul\":6510:6513   */\n      swap3\n      swap7\n        /* \"#utility.yul\":5706:6519   */\n      swap6\n      pop\n      pop\n      pop\n      pop\n      pop\n      pop\n      jump\t// out\n        /* \"#utility.yul\":6524:6708   */\n    tag_274:\n      mul(0x4e487b71, exp(0x02, 0xe0))\n        /* \"#utility.yul\":6573:6574   */\n      0x00\n        /* \"#utility.yul\":6566:6654   */\n      mstore\n        /* \"#utility.yul\":6673:6677   */\n      0x11\n        /* \"#utility.yul\":6670:6671   */\n      0x04\n        /* \"#utility.yul\":6663:6678   */\n      mstore\n        /* \"#utility.yul\":6697:6701   */\n      0x24\n        /* \"#utility.yul\":6694:6695   */\n      0x00\n        /* \"#utility.yul\":6687:6702   */\n      revert\n        /* \"#utility.yul\":6713:6881   */\n    tag_110:\n        /* \"#utility.yul\":6753:6760   */\n      0x00\n        /* \"#utility.yul\":6819:6820   */\n      dup2\n        /* \"#utility.yul\":6815:6816   */\n      0x00\n        /* \"#utility.yul\":6811:6817   */\n      not\n        /* \"#utility.yul\":6807:6821   */\n      div\n        /* \"#utility.yul\":6804:6805   */\n      dup4\n        /* \"#utility.yul\":6801:6822   */\n      gt\n        /* \"#utility.yul\":6796:6797   */\n      dup3\n        /* \"#utility.yul\":6789:6798   */\n      iszero\n        /* \"#utility.yul\":6782:6799   */\n      iszero\n        /* \"#utility.yul\":6778:6823   */\n      and\n        /* \"#utility.yul\":6775:6846   */\n      iszero\n      tag_332\n      jumpi\n        /* \"#utility.yul\":6826:6844   */\n      tag_332\n      tag_274\n      jump\t// in\n    tag_332:\n      pop\n        /* \"#utility.yul\":6866:6875   */\n      mul\n      swap1\n        /* \"#utility.yul\":6713:6881   */\n      jump\t// out\n        /* \"#utility.yul\":6886:7160   */\n    tag_112:\n        /* \"#utility.yul\":6926:6927   */\n      0x00\n        /* \"#utility.yul\":6952:6953   */\n      dup3\n        /* \"#utility.yul\":6942:7131   */\n      tag_334\n      jumpi\n      mul(0x4e487b71, exp(0x02, 0xe0))\n        /* \"#utility.yul\":6984:6985   */\n      0x00\n        /* \"#utility.yul\":6977:7065   */\n      mstore\n        /* \"#utility.yul\":7088:7092   */\n      0x12\n        /* \"#utility.yul\":7085:7086   */\n      0x04\n        /* \"#utility.yul\":7078:7093   */\n      mstore\n        /* \"#utility.yul\":7116:7120   */\n      0x24\n        /* \"#utility.yul\":7113:7114   */\n      0x00\n        /* \"#utility.yul\":7106:7121   */\n      revert\n        /* \"#utility.yul\":6942:7131   */\n    tag_334:\n      pop\n        /* \"#utility.yul\":7145:7154   */\n      div\n      swap1\n        /* \"#utility.yul\":6886:7160   */\n      jump\t// out\n        /* \"#utility.yul\":7165:7293   */\n    tag_114:\n        /* \"#utility.yul\":7205:7208   */\n      0x00\n        /* \"#utility.yul\":7236:7237   */\n      dup3\n        /* \"#utility.yul\":7232:7238   */\n      not\n        /* \"#utility.yul\":7229:7230   */\n      dup3\n        /* \"#utility.yul\":7226:7239   */\n      gt\n        /* \"#utility.yul\":7223:7262   */\n      iszero\n      tag_337\n      jumpi\n        /* \"#utility.yul\":7242:7260   */\n      tag_337\n      tag_274\n      jump\t// in\n    tag_337:\n      pop\n        /* \"#utility.yul\":7278:7287   */\n      add\n      swap1\n        /* \"#utility.yul\":7165:7293   */\n      jump\t// out\n        /* \"#utility.yul\":7508:7852   */\n    tag_127:\n        /* \"#utility.yul\":7710:7712   */\n      0x20\n        /* \"#utility.yul\":7692:7713   */\n      dup1\n      dup3\n      mstore\n        /* \"#utility.yul\":7749:7751   */\n      0x14\n        /* \"#utility.yul\":7729:7747   */\n      swap1\n      dup3\n      add\n        /* \"#utility.yul\":7722:7752   */\n      mstore\n        /* \"#utility.yul\":7788:7810   */\n      0x4661696c656420746f2073656e64204574686572000000000000000000000000\n        /* \"#utility.yul\":7783:7785   */\n      0x40\n        /* \"#utility.yul\":7768:7786   */\n      dup3\n      add\n        /* \"#utility.yul\":7761:7811   */\n      mstore\n        /* \"#utility.yul\":7843:7845   */\n      0x60\n        /* \"#utility.yul\":7828:7846   */\n      add\n      swap1\n        /* \"#utility.yul\":7508:7852   */\n      jump\t// out\n        /* \"#utility.yul\":7857:7992   */\n    tag_129:\n        /* \"#utility.yul\":7896:7899   */\n      0x00\n        /* \"#utility.yul\":7917:7934   */\n      0x01\n      dup3\n      add\n        /* \"#utility.yul\":7914:7957   */\n      tag_342\n      jumpi\n        /* \"#utility.yul\":7937:7955   */\n      tag_342\n      tag_274\n      jump\t// in\n    tag_342:\n      pop\n        /* \"#utility.yul\":7984:7985   */\n      0x01\n        /* \"#utility.yul\":7973:7986   */\n      add\n      swap1\n        /* \"#utility.yul\":7857:7992   */\n      jump\t// out\n        /* \"#utility.yul\":9012:10253   */\n    tag_251:\n      sub(exp(0x02, 0xa0), 0x01)\n        /* \"#utility.yul\":9240:9246   */\n      dup5\n        /* \"#utility.yul\":9236:9291   */\n      and\n        /* \"#utility.yul\":9225:9234   */\n      dup2\n        /* \"#utility.yul\":9218:9292   */\n      mstore\n        /* \"#utility.yul\":9199:9203   */\n      0x00\n        /* \"#utility.yul\":9311:9313   */\n      0x20\n        /* \"#utility.yul\":9349:9355   */\n      dup5\n        /* \"#utility.yul\":9344:9346   */\n      dup2\n        /* \"#utility.yul\":9333:9342   */\n      dup5\n        /* \"#utility.yul\":9329:9347   */\n      add\n        /* \"#utility.yul\":9322:9356   */\n      mstore\n        /* \"#utility.yul\":9392:9394   */\n      0x60\n        /* \"#utility.yul\":9387:9389   */\n      0x40\n        /* \"#utility.yul\":9376:9385   */\n      dup5\n        /* \"#utility.yul\":9372:9390   */\n      add\n        /* \"#utility.yul\":9365:9395   */\n      mstore\n        /* \"#utility.yul\":9431:9433   */\n      0x40\n        /* \"#utility.yul\":9426:9428   */\n      0x60\n        /* \"#utility.yul\":9415:9424   */\n      dup5\n        /* \"#utility.yul\":9411:9429   */\n      add\n        /* \"#utility.yul\":9404:9434   */\n      mstore\n        /* \"#utility.yul\":9454:9455   */\n      0x00\n        /* \"#utility.yul\":9487:9493   */\n      dup5\n        /* \"#utility.yul\":9481:9494   */\n      sload\n        /* \"#utility.yul\":9517:9553   */\n      tag_347\n        /* \"#utility.yul\":9543:9552   */\n      dup2\n        /* \"#utility.yul\":9517:9553   */\n      tag_185\n      jump\t// in\n    tag_347:\n        /* \"#utility.yul\":9590:9596   */\n      dup1\n        /* \"#utility.yul\":9584:9587   */\n      0xa0\n        /* \"#utility.yul\":9573:9582   */\n      dup8\n        /* \"#utility.yul\":9569:9588   */\n      add\n        /* \"#utility.yul\":9562:9597   */\n      mstore\n        /* \"#utility.yul\":9616:9619   */\n      0xc0\n        /* \"#utility.yul\":9638:9639   */\n      0x01\n        /* \"#utility.yul\":9670:9672   */\n      dup1\n        /* \"#utility.yul\":9659:9668   */\n      dup5\n        /* \"#utility.yul\":9655:9673   */\n      and\n        /* \"#utility.yul\":9687:9688   */\n      0x00\n        /* \"#utility.yul\":9682:9804   */\n      dup2\n      eq\n      tag_349\n      jumpi\n        /* \"#utility.yul\":9818:9819   */\n      0x01\n        /* \"#utility.yul\":9813:10167   */\n      dup2\n      eq\n      tag_350\n      jumpi\n        /* \"#utility.yul\":9648:10167   */\n      jump(tag_348)\n        /* \"#utility.yul\":9682:9804   */\n    tag_349:\n      not(0xff)\n        /* \"#utility.yul\":9730:9754   */\n      dup6\n      and\n        /* \"#utility.yul\":9710:9728   */\n      dup10\n      dup5\n      add\n        /* \"#utility.yul\":9703:9755   */\n      mstore\n        /* \"#utility.yul\":9790:9793   */\n      0xe0\n        /* \"#utility.yul\":9775:9794   */\n      dup10\n      add\n      swap6\n      pop\n        /* \"#utility.yul\":9682:9804   */\n      jump(tag_348)\n        /* \"#utility.yul\":9813:10167   */\n    tag_350:\n        /* \"#utility.yul\":9844:9850   */\n      dup10\n        /* \"#utility.yul\":9841:9842   */\n      0x00\n        /* \"#utility.yul\":9834:9851   */\n      mstore\n        /* \"#utility.yul\":9892:9894   */\n      dup7\n        /* \"#utility.yul\":9889:9890   */\n      0x00\n        /* \"#utility.yul\":9879:9895   */\n      keccak256\n        /* \"#utility.yul\":9917:9918   */\n      0x00\n        /* \"#utility.yul\":9931:10111   */\n    tag_351:\n        /* \"#utility.yul\":9945:9951   */\n      dup6\n        /* \"#utility.yul\":9942:9943   */\n      dup2\n        /* \"#utility.yul\":9939:9952   */\n      lt\n        /* \"#utility.yul\":9931:10111   */\n      iszero\n      tag_353\n      jumpi\n        /* \"#utility.yul\":10038:10052   */\n      dup2\n      sload\n        /* \"#utility.yul\":10014:10031   */\n      dup12\n      dup3\n      add\n        /* \"#utility.yul\":10010:10036   */\n      dup7\n      add\n        /* \"#utility.yul\":10003:10053   */\n      mstore\n        /* \"#utility.yul\":10081:10097   */\n      swap1\n      dup4\n      add\n      swap1\n        /* \"#utility.yul\":9960:9970   */\n      dup9\n      add\n        /* \"#utility.yul\":9931:10111   */\n      jump(tag_351)\n    tag_353:\n        /* \"#utility.yul\":10135:10152   */\n      dup11\n      add\n        /* \"#utility.yul\":10131:10157   */\n      dup5\n      add\n      swap7\n      pop\n      pop\n        /* \"#utility.yul\":9648:10167   */\n    tag_348:\n      pop\n        /* \"#utility.yul\":10222:10224   */\n      dup1\n        /* \"#utility.yul\":10214:10220   */\n      dup10\n        /* \"#utility.yul\":10210:10225   */\n      add\n        /* \"#utility.yul\":10204:10226   */\n      sload\n        /* \"#utility.yul\":10198:10201   */\n      0x80\n        /* \"#utility.yul\":10187:10196   */\n      dup10\n        /* \"#utility.yul\":10183:10202   */\n      add\n        /* \"#utility.yul\":10176:10227   */\n      mstore\n      pop\n      pop\n      pop\n      pop\n        /* \"#utility.yul\":10244:10247   */\n      dup1\n        /* \"#utility.yul\":10236:10247   */\n      swap3\n      pop\n      pop\n      pop\n        /* \"#utility.yul\":9012:10253   */\n      swap5\n      swap4\n      pop\n      pop\n      pop\n      pop\n      jump\t// out\n\n    auxdata: 0xa2646970667358221220be6fe58e6351d318808259d7dc5ef84f3916f31c70f7613303d9394aa531987464736f6c634300080d0033\n}\n",
				"bytecode": {
					"linkReferences": {},
					"object": "6080604081905260008054600160a060020a031916339081178255917f8be0079c531659141344cd1fd0a4f28419497f9722a3daafe3b4186f6b6457e0908290a360038054600160a060020a031916331790556040805160808101825260059181019182527f7465616d31000000000000000000000000000000000000000000000000000000606082015290815260006020808301829052600280546001810182559281905283518051939091026000805160206200181f8339815191520192620000ce92849201906200016b565b506020918201516001918201556040805160808101825260059181019182527f7465616d320000000000000000000000000000000000000000000000000000006060820152908152600081840181905260028054938401815590819052815180519294939091026000805160206200181f833981519152019262000158928492909101906200016b565b5060208201518160010155505062000266565b828054620001799062000211565b90600052602060002090601f0160209004810192826200019d5760008555620001e8565b82601f10620001b857805160ff1916838001178555620001e8565b82800160010185558215620001e8579182015b82811115620001e8578251825591602001919060010190620001cb565b50620001f6929150620001fa565b5090565b5b80821115620001f65760008155600101620001fb565b6002810460018216806200022657607f821691505b60208210810362000260577f4e487b7100000000000000000000000000000000000000000000000000000000600052602260045260246000fd5b50919050565b6115a980620002766000396000f3fe6080604052600436106100c4576000357c0100000000000000000000000000000000000000000000000000000000900480638da5cb5b116100815780638da5cb5b1461019a5780638f32d59b146101c2578063972fa53f146101ed578063d67042061461020d578063ebcfcf6b14610220578063f2fde38b1461024d57600080fd5b80630e89da56146100c957806320f73162146100fc57806322af00fa146101115780632ddbd13a146101415780633ed2b77a14610157578063715018a614610185575b600080fd5b3480156100d557600080fd5b506100e96100e43660046110b6565b61026d565b6040519081526020015b60405180910390f35b61010f61010a3660046110b6565b61029b565b005b34801561011d57600080fd5b5061013161012c3660046110b6565b610859565b6040516100f3949392919061112b565b34801561014d57600080fd5b506100e960055481565b34801561016357600080fd5b506101776101723660046110b6565b6109da565b6040516100f3929190611188565b34801561019157600080fd5b5061010f610a96565b3480156101a657600080fd5b50600054604051600160a060020a0390911681526020016100f3565b3480156101ce57600080fd5b50600054600160a060020a0316331460405190151581526020016100f3565b3480156101f957600080fd5b5061010f610208366004611250565b610b04565b61010f61021b36600461128d565b610b71565b34801561022c57600080fd5b506100e961023b3660046112d2565b60046020526000908152604090205481565b34801561025957600080fd5b5061010f6102683660046112d2565b610f7f565b60006002828154811061028257610282611302565b9060005260206000209060020201600101549050919050565b600054600160a060020a031633146102b257600080fd5b6000816000036105295760005b600154811015610527576040517f7465616d31000000000000000000000000000000000000000000000000000000602082015260029060250160408051601f19818403018152908290526103129161131b565b602060405180830381855afa15801561032f573d6000803e3d6000fd5b5050506040513d601f19601f820116820180604052508101906103529190611337565b60026001838154811061036757610367611302565b906000526020600020906005020160030160000160405160200161038b919061138d565b60408051601f19818403018152908290526103a59161131b565b602060405180830381855afa1580156103c2573d6000803e3d6000fd5b5050506040513d601f19601f820116820180604052508101906103e59190611337565b03610515576000600182815481106103ff576103ff611302565b600091825260209091206001600590920201810154600160a060020a031691506127109061042c9061026d565b610436600061026d565b61044290612710611418565b61044c9190611437565b6104589061271061145c565b6001848154811061046b5761046b611302565b9060005260206000209060050201600201546104879190611418565b6104919190611437565b9250600081600160a060020a03168460405160006040518083038185875af1925050503d80600081146104e0576040519150601f19603f3d011682016040523d82523d6000602084013e6104e5565b606091505b50509050806105125760405160e560020a62461bcd02815260040161050990611474565b60405180910390fd5b50505b8061051f816114ab565b9150506102bf565b505b816001036107955760005b600154811015610793576040517f7465616d32000000000000000000000000000000000000000000000000000000602082015260029060250160408051601f19818403018152908290526105879161131b565b602060405180830381855afa1580156105a4573d6000803e3d6000fd5b5050506040513d601f19601f820116820180604052508101906105c79190611337565b6002600183815481106105dc576105dc611302565b9060005260206000209060050201600301600001604051602001610600919061138d565b60408051601f198184030181529082905261061a9161131b565b602060405180830381855afa158015610637573d6000803e3d6000fd5b5050506040513d601f19601f8201168201806040525081019061065a9190611337565b036107815760006001828154811061067457610674611302565b600091825260209091206001600590920201810154600160a060020a03169150612710906106a19061026d565b6106ab600061026d565b6106b790612710611418565b6106c19190611437565b6106cd9061271061145c565b600184815481106106e0576106e0611302565b9060005260206000209060050201600201546106fc9190611418565b6107069190611437565b9250600081600160a060020a03168460405160006040518083038185875af1925050503d8060008114610755576040519150601f19603f3d011682016040523d82523d6000602084013e61075a565b606091505b505090508061077e5760405160e560020a62461bcd02815260040161050990611474565b50505b8061078b816114ab565b915050610534565b505b600060058190556002805482906107ae576107ae611302565b906000526020600020906002020160010181905550600060026001815481106107d9576107d9611302565b90600052602060002090600202016001018190555060005b600154811015610854576000600460006001848154811061081457610814611302565b6000918252602080832060016005909302019190910154600160a060020a031683528201929092526040019020558061084c816114ab565b9150506107f1565b505050565b6001818154811061086957600080fd5b906000526020600020906005020160009150905080600001805461088c90611350565b80601f01602080910402602001604051908101604052809291908181526020018280546108b890611350565b80156109055780601f106108da57610100808354040283529160200191610905565b820191906000526020600020905b8154815290600101906020018083116108e857829003601f168201915b5050505050908060010160009054906101000a9004600160a060020a0316908060020154908060030160405180604001604052908160008201805461094990611350565b80601f016020809104026020016040519081016040528092919081815260200182805461097590611350565b80156109c25780601f10610997576101008083540402835291602001916109c2565b820191906000526020600020905b8154815290600101906020018083116109a557829003601f168201915b50505050508152602001600182015481525050905084565b600281815481106109ea57600080fd5b9060005260206000209060020201600091509050806000018054610a0d90611350565b80601f0160208091040260200160405190810160405280929190818152602001828054610a3990611350565b8015610a865780601f10610a5b57610100808354040283529160200191610a86565b820191906000526020600020905b815481529060010190602001808311610a6957829003601f168201915b5050505050908060010154905082565b600054600160a060020a03163314610aad57600080fd5b60008054604051600160a060020a03909116907f8be0079c531659141344cd1fd0a4f28419497f9722a3daafe3b4186f6b6457e0908390a36000805473ffffffffffffffffffffffffffffffffffffffff19169055565b6040805180820190915281815260006020808301829052600280546001810182559281905283518051939091027f405787fa12a823e0f2b7631cc41b3ba8828b3321ca811111fa75cd3aa3bb5ace0192610b61928492019061101d565b5060208201518160010155505050565b600354600160a060020a03163303610bf45760405160e560020a62461bcd02815260206004820152602260248201527f6f776e6572206973206e6f7420616c6c6f77656420746f206d616b652061206260448201527f65740000000000000000000000000000000000000000000000000000000000006064820152608401610509565b3360009081526004602052604090205415610c545760405160e560020a62461bcd02815260206004820152601760248201527f4f6e6c79206f6e652062657420697320616c6c6f7765640000000000000000006044820152606401610509565b346004600033600160a060020a0316600160a060020a03168152602001908152602001600020819055506001604051806080016040528084815260200133600160a060020a0316815260200134815260200160028481548110610cb957610cb9611302565b9060005260206000209060020201604051806040016040529081600082018054610ce290611350565b80601f0160208091040260200160405190810160405280929190818152602001828054610d0e90611350565b8015610d5b5780601f10610d3057610100808354040283529160200191610d5b565b820191906000526020600020905b815481529060010190602001808311610d3e57829003601f168201915b50505091835250506001918201546020918201529190925283549182018455600093845292839020825180519394600590930290910192610d9f928492019061101d565b5060208281015160018301805473ffffffffffffffffffffffffffffffffffffffff1916600160a060020a039092169190911790556040830151600283015560608301518051805191926003850192610dfb928492019061101d565b50602082015181600101555050505080600003610e4d57346002600081548110610e2757610e27611302565b90600052602060002090600202016001016000828254610e47919061145c565b90915550505b80600103610e9057346002600181548110610e6a57610e6a611302565b90600052602060002090600202016001016000828254610e8a919061145c565b90915550505b600354604051600091600160a060020a03169034908381818185875af1925050503d8060008114610edd576040519150601f19603f3d011682016040523d82523d6000602084013e610ee2565b606091505b5050905080610f065760405160e560020a62461bcd02815260040161050990611474565b3460056000828254610f18919061145c565b925050819055507f948a46eba9469fc822b082631d32f2456ea94a35179d32230095b6f34fb341cb333460028581548110610f5557610f55611302565b9060005260206000209060020201604051610f72939291906114c4565b60405180910390a1505050565b600054600160a060020a03163314610f9657600080fd5b610f9f81610fa2565b50565b600160a060020a038116610fb557600080fd5b60008054604051600160a060020a03808516939216917f8be0079c531659141344cd1fd0a4f28419497f9722a3daafe3b4186f6b6457e091a36000805473ffffffffffffffffffffffffffffffffffffffff1916600160a060020a0392909216919091179055565b82805461102990611350565b90600052602060002090601f01602090048101928261104b5760008555611091565b82601f1061106457805160ff1916838001178555611091565b82800160010185558215611091579182015b82811115611091578251825591602001919060010190611076565b5061109d9291506110a1565b5090565b5b8082111561109d57600081556001016110a2565b6000602082840312156110c857600080fd5b5035919050565b60005b838110156110ea5781810151838201526020016110d2565b838111156110f9576000848401525b50505050565b600081518084526111178160208601602086016110cf565b601f01601f19169290920160200192915050565b60808152600061113e60808301876110ff565b600160a060020a0386166020840152846040840152828103606084015283516040825261116e60408301826110ff565b905060208501516020830152809250505095945050505050565b60408152600061119b60408301856110ff565b90508260208301529392505050565b60e060020a634e487b7102600052604160045260246000fd5b600082601f8301126111d457600080fd5b813567ffffffffffffffff808211156111ef576111ef6111aa565b604051601f8301601f19908116603f01168101908282118183101715611217576112176111aa565b8160405283815286602085880101111561123057600080fd5b836020870160208301376000602085830101528094505050505092915050565b60006020828403121561126257600080fd5b813567ffffffffffffffff81111561127957600080fd5b611285848285016111c3565b949350505050565b600080604083850312156112a057600080fd5b823567ffffffffffffffff8111156112b757600080fd5b6112c3858286016111c3565b95602094909401359450505050565b6000602082840312156112e457600080fd5b8135600160a060020a03811681146112fb57600080fd5b9392505050565b60e060020a634e487b7102600052603260045260246000fd5b6000825161132d8184602087016110cf565b9190910192915050565b60006020828403121561134957600080fd5b5051919050565b60028104600182168061136457607f821691505b6020821081036113875760e060020a634e487b7102600052602260045260246000fd5b50919050565b600080835461139b81611350565b600182811680156113b357600181146113c4576113f3565b60ff198416875282870194506113f3565b8760005260208060002060005b858110156113ea5781548a8201529084019082016113d1565b50505082870194505b50929695505050505050565b60e060020a634e487b7102600052601160045260246000fd5b6000816000190483118215151615611432576114326113ff565b500290565b6000826114575760e060020a634e487b7102600052601260045260246000fd5b500490565b6000821982111561146f5761146f6113ff565b500190565b60208082526014908201527f4661696c656420746f2073656e64204574686572000000000000000000000000604082015260600190565b6000600182016114bd576114bd6113ff565b5060010190565b600160a060020a03841681526000602084818401526060604084015260406060840152600084546114f481611350565b8060a087015260c0600180841660008114611516576001811461152a57611558565b60ff1985168984015260e089019550611558565b896000528660002060005b858110156115505781548b8201860152908301908801611535565b8a0184019650505b5080890154608089015250505050809250505094935050505056fea2646970667358221220be6fe58e6351d318808259d7dc5ef84f3916f31c70f7613303d9394aa531987464736f6c634300080d0033405787fa12a823e0f2b7631cc41b3ba8828b3321ca811111fa75cd3aa3bb5ace",
					"opcodes": "PUSH1 0x80 PUSH1 0x40 DUP2 SWAP1 MSTORE PUSH1 0x0 DUP1 SLOAD PUSH1 0x1 PUSH1 0xA0 PUSH1 0x2 EXP SUB NOT AND CALLER SWAP1 DUP2 OR DUP3 SSTORE SWAP2 PUSH32 0x8BE0079C531659141344CD1FD0A4F28419497F9722A3DAAFE3B4186F6B6457E0 SWAP1 DUP3 SWAP1 LOG3 PUSH1 0x3 DUP1 SLOAD PUSH1 0x1 PUSH1 0xA0 PUSH1 0x2 EXP SUB NOT AND CALLER OR SWAP1 SSTORE PUSH1 0x40 DUP1 MLOAD PUSH1 0x80 DUP2 ADD DUP3 MSTORE PUSH1 0x5 SWAP2 DUP2 ADD SWAP2 DUP3 MSTORE PUSH32 0x7465616D31000000000000000000000000000000000000000000000000000000 PUSH1 0x60 DUP3 ADD MSTORE SWAP1 DUP2 MSTORE PUSH1 0x0 PUSH1 0x20 DUP1 DUP4 ADD DUP3 SWAP1 MSTORE PUSH1 0x2 DUP1 SLOAD PUSH1 0x1 DUP2 ADD DUP3 SSTORE SWAP3 DUP2 SWAP1 MSTORE DUP4 MLOAD DUP1 MLOAD SWAP4 SWAP1 SWAP2 MUL PUSH1 0x0 DUP1 MLOAD PUSH1 0x20 PUSH3 0x181F DUP4 CODECOPY DUP2 MLOAD SWAP2 MSTORE ADD SWAP3 PUSH3 0xCE SWAP3 DUP5 SWAP3 ADD SWAP1 PUSH3 0x16B JUMP JUMPDEST POP PUSH1 0x20 SWAP2 DUP3 ADD MLOAD PUSH1 0x1 SWAP2 DUP3 ADD SSTORE PUSH1 0x40 DUP1 MLOAD PUSH1 0x80 DUP2 ADD DUP3 MSTORE PUSH1 0x5 SWAP2 DUP2 ADD SWAP2 DUP3 MSTORE PUSH32 0x7465616D32000000000000000000000000000000000000000000000000000000 PUSH1 0x60 DUP3 ADD MSTORE SWAP1 DUP2 MSTORE PUSH1 0x0 DUP2 DUP5 ADD DUP2 SWAP1 MSTORE PUSH1 0x2 DUP1 SLOAD SWAP4 DUP5 ADD DUP2 SSTORE SWAP1 DUP2 SWAP1 MSTORE DUP2 MLOAD DUP1 MLOAD SWAP3 SWAP5 SWAP4 SWAP1 SWAP2 MUL PUSH1 0x0 DUP1 MLOAD PUSH1 0x20 PUSH3 0x181F DUP4 CODECOPY DUP2 MLOAD SWAP2 MSTORE ADD SWAP3 PUSH3 0x158 SWAP3 DUP5 SWAP3 SWAP1 SWAP2 ADD SWAP1 PUSH3 0x16B JUMP JUMPDEST POP PUSH1 0x20 DUP3 ADD MLOAD DUP2 PUSH1 0x1 ADD SSTORE POP POP PUSH3 0x266 JUMP JUMPDEST DUP3 DUP1 SLOAD PUSH3 0x179 SWAP1 PUSH3 0x211 JUMP JUMPDEST SWAP1 PUSH1 0x0 MSTORE PUSH1 0x20 PUSH1 0x0 KECCAK256 SWAP1 PUSH1 0x1F ADD PUSH1 0x20 SWAP1 DIV DUP2 ADD SWAP3 DUP3 PUSH3 0x19D JUMPI PUSH1 0x0 DUP6 SSTORE PUSH3 0x1E8 JUMP JUMPDEST DUP3 PUSH1 0x1F LT PUSH3 0x1B8 JUMPI DUP1 MLOAD PUSH1 0xFF NOT AND DUP4 DUP1 ADD OR DUP6 SSTORE PUSH3 0x1E8 JUMP JUMPDEST DUP3 DUP1 ADD PUSH1 0x1 ADD DUP6 SSTORE DUP3 ISZERO PUSH3 0x1E8 JUMPI SWAP2 DUP3 ADD JUMPDEST DUP3 DUP2 GT ISZERO PUSH3 0x1E8 JUMPI DUP3 MLOAD DUP3 SSTORE SWAP2 PUSH1 0x20 ADD SWAP2 SWAP1 PUSH1 0x1 ADD SWAP1 PUSH3 0x1CB JUMP JUMPDEST POP PUSH3 0x1F6 SWAP3 SWAP2 POP PUSH3 0x1FA JUMP JUMPDEST POP SWAP1 JUMP JUMPDEST JUMPDEST DUP1 DUP3 GT ISZERO PUSH3 0x1F6 JUMPI PUSH1 0x0 DUP2 SSTORE PUSH1 0x1 ADD PUSH3 0x1FB JUMP JUMPDEST PUSH1 0x2 DUP2 DIV PUSH1 0x1 DUP3 AND DUP1 PUSH3 0x226 JUMPI PUSH1 0x7F DUP3 AND SWAP2 POP JUMPDEST PUSH1 0x20 DUP3 LT DUP2 SUB PUSH3 0x260 JUMPI PUSH32 0x4E487B7100000000000000000000000000000000000000000000000000000000 PUSH1 0x0 MSTORE PUSH1 0x22 PUSH1 0x4 MSTORE PUSH1 0x24 PUSH1 0x0 REVERT JUMPDEST POP SWAP2 SWAP1 POP JUMP JUMPDEST PUSH2 0x15A9 DUP1 PUSH3 0x276 PUSH1 0x0 CODECOPY PUSH1 0x0 RETURN INVALID PUSH1 0x80 PUSH1 0x40 MSTORE PUSH1 0x4 CALLDATASIZE LT PUSH2 0xC4 JUMPI PUSH1 0x0 CALLDATALOAD PUSH29 0x100000000000000000000000000000000000000000000000000000000 SWAP1 DIV DUP1 PUSH4 0x8DA5CB5B GT PUSH2 0x81 JUMPI DUP1 PUSH4 0x8DA5CB5B EQ PUSH2 0x19A JUMPI DUP1 PUSH4 0x8F32D59B EQ PUSH2 0x1C2 JUMPI DUP1 PUSH4 0x972FA53F EQ PUSH2 0x1ED JUMPI DUP1 PUSH4 0xD6704206 EQ PUSH2 0x20D JUMPI DUP1 PUSH4 0xEBCFCF6B EQ PUSH2 0x220 JUMPI DUP1 PUSH4 0xF2FDE38B EQ PUSH2 0x24D JUMPI PUSH1 0x0 DUP1 REVERT JUMPDEST DUP1 PUSH4 0xE89DA56 EQ PUSH2 0xC9 JUMPI DUP1 PUSH4 0x20F73162 EQ PUSH2 0xFC JUMPI DUP1 PUSH4 0x22AF00FA EQ PUSH2 0x111 JUMPI DUP1 PUSH4 0x2DDBD13A EQ PUSH2 0x141 JUMPI DUP1 PUSH4 0x3ED2B77A EQ PUSH2 0x157 JUMPI DUP1 PUSH4 0x715018A6 EQ PUSH2 0x185 JUMPI JUMPDEST PUSH1 0x0 DUP1 REVERT JUMPDEST CALLVALUE DUP1 ISZERO PUSH2 0xD5 JUMPI PUSH1 0x0 DUP1 REVERT JUMPDEST POP PUSH2 0xE9 PUSH2 0xE4 CALLDATASIZE PUSH1 0x4 PUSH2 0x10B6 JUMP JUMPDEST PUSH2 0x26D JUMP JUMPDEST PUSH1 0x40 MLOAD SWAP1 DUP2 MSTORE PUSH1 0x20 ADD JUMPDEST PUSH1 0x40 MLOAD DUP1 SWAP2 SUB SWAP1 RETURN JUMPDEST PUSH2 0x10F PUSH2 0x10A CALLDATASIZE PUSH1 0x4 PUSH2 0x10B6 JUMP JUMPDEST PUSH2 0x29B JUMP JUMPDEST STOP JUMPDEST CALLVALUE DUP1 ISZERO PUSH2 0x11D JUMPI PUSH1 0x0 DUP1 REVERT JUMPDEST POP PUSH2 0x131 PUSH2 0x12C CALLDATASIZE PUSH1 0x4 PUSH2 0x10B6 JUMP JUMPDEST PUSH2 0x859 JUMP JUMPDEST PUSH1 0x40 MLOAD PUSH2 0xF3 SWAP5 SWAP4 SWAP3 SWAP2 SWAP1 PUSH2 0x112B JUMP JUMPDEST CALLVALUE DUP1 ISZERO PUSH2 0x14D JUMPI PUSH1 0x0 DUP1 REVERT JUMPDEST POP PUSH2 0xE9 PUSH1 0x5 SLOAD DUP2 JUMP JUMPDEST CALLVALUE DUP1 ISZERO PUSH2 0x163 JUMPI PUSH1 0x0 DUP1 REVERT JUMPDEST POP PUSH2 0x177 PUSH2 0x172 CALLDATASIZE PUSH1 0x4 PUSH2 0x10B6 JUMP JUMPDEST PUSH2 0x9DA JUMP JUMPDEST PUSH1 0x40 MLOAD PUSH2 0xF3 SWAP3 SWAP2 SWAP1 PUSH2 0x1188 JUMP JUMPDEST CALLVALUE DUP1 ISZERO PUSH2 0x191 JUMPI PUSH1 0x0 DUP1 REVERT JUMPDEST POP PUSH2 0x10F PUSH2 0xA96 JUMP JUMPDEST CALLVALUE DUP1 ISZERO PUSH2 0x1A6 JUMPI PUSH1 0x0 DUP1 REVERT JUMPDEST POP PUSH1 0x0 SLOAD PUSH1 0x40 MLOAD PUSH1 0x1 PUSH1 0xA0 PUSH1 0x2 EXP SUB SWAP1 SWAP2 AND DUP2 MSTORE PUSH1 0x20 ADD PUSH2 0xF3 JUMP JUMPDEST CALLVALUE DUP1 ISZERO PUSH2 0x1CE JUMPI PUSH1 0x0 DUP1 REVERT JUMPDEST POP PUSH1 0x0 SLOAD PUSH1 0x1 PUSH1 0xA0 PUSH1 0x2 EXP SUB AND CALLER EQ PUSH1 0x40 MLOAD SWAP1 ISZERO ISZERO DUP2 MSTORE PUSH1 0x20 ADD PUSH2 0xF3 JUMP JUMPDEST CALLVALUE DUP1 ISZERO PUSH2 0x1F9 JUMPI PUSH1 0x0 DUP1 REVERT JUMPDEST POP PUSH2 0x10F PUSH2 0x208 CALLDATASIZE PUSH1 0x4 PUSH2 0x1250 JUMP JUMPDEST PUSH2 0xB04 JUMP JUMPDEST PUSH2 0x10F PUSH2 0x21B CALLDATASIZE PUSH1 0x4 PUSH2 0x128D JUMP JUMPDEST PUSH2 0xB71 JUMP JUMPDEST CALLVALUE DUP1 ISZERO PUSH2 0x22C JUMPI PUSH1 0x0 DUP1 REVERT JUMPDEST POP PUSH2 0xE9 PUSH2 0x23B CALLDATASIZE PUSH1 0x4 PUSH2 0x12D2 JUMP JUMPDEST PUSH1 0x4 PUSH1 0x20 MSTORE PUSH1 0x0 SWAP1 DUP2 MSTORE PUSH1 0x40 SWAP1 KECCAK256 SLOAD DUP2 JUMP JUMPDEST CALLVALUE DUP1 ISZERO PUSH2 0x259 JUMPI PUSH1 0x0 DUP1 REVERT JUMPDEST POP PUSH2 0x10F PUSH2 0x268 CALLDATASIZE PUSH1 0x4 PUSH2 0x12D2 JUMP JUMPDEST PUSH2 0xF7F JUMP JUMPDEST PUSH1 0x0 PUSH1 0x2 DUP3 DUP2 SLOAD DUP2 LT PUSH2 0x282 JUMPI PUSH2 0x282 PUSH2 0x1302 JUMP JUMPDEST SWAP1 PUSH1 0x0 MSTORE PUSH1 0x20 PUSH1 0x0 KECCAK256 SWAP1 PUSH1 0x2 MUL ADD PUSH1 0x1 ADD SLOAD SWAP1 POP SWAP2 SWAP1 POP JUMP JUMPDEST PUSH1 0x0 SLOAD PUSH1 0x1 PUSH1 0xA0 PUSH1 0x2 EXP SUB AND CALLER EQ PUSH2 0x2B2 JUMPI PUSH1 0x0 DUP1 REVERT JUMPDEST PUSH1 0x0 DUP2 PUSH1 0x0 SUB PUSH2 0x529 JUMPI PUSH1 0x0 JUMPDEST PUSH1 0x1 SLOAD DUP2 LT ISZERO PUSH2 0x527 JUMPI PUSH1 0x40 MLOAD PUSH32 0x7465616D31000000000000000000000000000000000000000000000000000000 PUSH1 0x20 DUP3 ADD MSTORE PUSH1 0x2 SWAP1 PUSH1 0x25 ADD PUSH1 0x40 DUP1 MLOAD PUSH1 0x1F NOT DUP2 DUP5 SUB ADD DUP2 MSTORE SWAP1 DUP3 SWAP1 MSTORE PUSH2 0x312 SWAP2 PUSH2 0x131B JUMP JUMPDEST PUSH1 0x20 PUSH1 0x40 MLOAD DUP1 DUP4 SUB DUP2 DUP6 GAS STATICCALL ISZERO DUP1 ISZERO PUSH2 0x32F JUMPI RETURNDATASIZE PUSH1 0x0 DUP1 RETURNDATACOPY RETURNDATASIZE PUSH1 0x0 REVERT JUMPDEST POP POP POP PUSH1 0x40 MLOAD RETURNDATASIZE PUSH1 0x1F NOT PUSH1 0x1F DUP3 ADD AND DUP3 ADD DUP1 PUSH1 0x40 MSTORE POP DUP2 ADD SWAP1 PUSH2 0x352 SWAP2 SWAP1 PUSH2 0x1337 JUMP JUMPDEST PUSH1 0x2 PUSH1 0x1 DUP4 DUP2 SLOAD DUP2 LT PUSH2 0x367 JUMPI PUSH2 0x367 PUSH2 0x1302 JUMP JUMPDEST SWAP1 PUSH1 0x0 MSTORE PUSH1 0x20 PUSH1 0x0 KECCAK256 SWAP1 PUSH1 0x5 MUL ADD PUSH1 0x3 ADD PUSH1 0x0 ADD PUSH1 0x40 MLOAD PUSH1 0x20 ADD PUSH2 0x38B SWAP2 SWAP1 PUSH2 0x138D JUMP JUMPDEST PUSH1 0x40 DUP1 MLOAD PUSH1 0x1F NOT DUP2 DUP5 SUB ADD DUP2 MSTORE SWAP1 DUP3 SWAP1 MSTORE PUSH2 0x3A5 SWAP2 PUSH2 0x131B JUMP JUMPDEST PUSH1 0x20 PUSH1 0x40 MLOAD DUP1 DUP4 SUB DUP2 DUP6 GAS STATICCALL ISZERO DUP1 ISZERO PUSH2 0x3C2 JUMPI RETURNDATASIZE PUSH1 0x0 DUP1 RETURNDATACOPY RETURNDATASIZE PUSH1 0x0 REVERT JUMPDEST POP POP POP PUSH1 0x40 MLOAD RETURNDATASIZE PUSH1 0x1F NOT PUSH1 0x1F DUP3 ADD AND DUP3 ADD DUP1 PUSH1 0x40 MSTORE POP DUP2 ADD SWAP1 PUSH2 0x3E5 SWAP2 SWAP1 PUSH2 0x1337 JUMP JUMPDEST SUB PUSH2 0x515 JUMPI PUSH1 0x0 PUSH1 0x1 DUP3 DUP2 SLOAD DUP2 LT PUSH2 0x3FF JUMPI PUSH2 0x3FF PUSH2 0x1302 JUMP JUMPDEST PUSH1 0x0 SWAP2 DUP3 MSTORE PUSH1 0x20 SWAP1 SWAP2 KECCAK256 PUSH1 0x1 PUSH1 0x5 SWAP1 SWAP3 MUL ADD DUP2 ADD SLOAD PUSH1 0x1 PUSH1 0xA0 PUSH1 0x2 EXP SUB AND SWAP2 POP PUSH2 0x2710 SWAP1 PUSH2 0x42C SWAP1 PUSH2 0x26D JUMP JUMPDEST PUSH2 0x436 PUSH1 0x0 PUSH2 0x26D JUMP JUMPDEST PUSH2 0x442 SWAP1 PUSH2 0x2710 PUSH2 0x1418 JUMP JUMPDEST PUSH2 0x44C SWAP2 SWAP1 PUSH2 0x1437 JUMP JUMPDEST PUSH2 0x458 SWAP1 PUSH2 0x2710 PUSH2 0x145C JUMP JUMPDEST PUSH1 0x1 DUP5 DUP2 SLOAD DUP2 LT PUSH2 0x46B JUMPI PUSH2 0x46B PUSH2 0x1302 JUMP JUMPDEST SWAP1 PUSH1 0x0 MSTORE PUSH1 0x20 PUSH1 0x0 KECCAK256 SWAP1 PUSH1 0x5 MUL ADD PUSH1 0x2 ADD SLOAD PUSH2 0x487 SWAP2 SWAP1 PUSH2 0x1418 JUMP JUMPDEST PUSH2 0x491 SWAP2 SWAP1 PUSH2 0x1437 JUMP JUMPDEST SWAP3 POP PUSH1 0x0 DUP2 PUSH1 0x1 PUSH1 0xA0 PUSH1 0x2 EXP SUB AND DUP5 PUSH1 0x40 MLOAD PUSH1 0x0 PUSH1 0x40 MLOAD DUP1 DUP4 SUB DUP2 DUP6 DUP8 GAS CALL SWAP3 POP POP POP RETURNDATASIZE DUP1 PUSH1 0x0 DUP2 EQ PUSH2 0x4E0 JUMPI PUSH1 0x40 MLOAD SWAP2 POP PUSH1 0x1F NOT PUSH1 0x3F RETURNDATASIZE ADD AND DUP3 ADD PUSH1 0x40 MSTORE RETURNDATASIZE DUP3 MSTORE RETURNDATASIZE PUSH1 0x0 PUSH1 0x20 DUP5 ADD RETURNDATACOPY PUSH2 0x4E5 JUMP JUMPDEST PUSH1 0x60 SWAP2 POP JUMPDEST POP POP SWAP1 POP DUP1 PUSH2 0x512 JUMPI PUSH1 0x40 MLOAD PUSH1 0xE5 PUSH1 0x2 EXP PUSH3 0x461BCD MUL DUP2 MSTORE PUSH1 0x4 ADD PUSH2 0x509 SWAP1 PUSH2 0x1474 JUMP JUMPDEST PUSH1 0x40 MLOAD DUP1 SWAP2 SUB SWAP1 REVERT JUMPDEST POP POP JUMPDEST DUP1 PUSH2 0x51F DUP2 PUSH2 0x14AB JUMP JUMPDEST SWAP2 POP POP PUSH2 0x2BF JUMP JUMPDEST POP JUMPDEST DUP2 PUSH1 0x1 SUB PUSH2 0x795 JUMPI PUSH1 0x0 JUMPDEST PUSH1 0x1 SLOAD DUP2 LT ISZERO PUSH2 0x793 JUMPI PUSH1 0x40 MLOAD PUSH32 0x7465616D32000000000000000000000000000000000000000000000000000000 PUSH1 0x20 DUP3 ADD MSTORE PUSH1 0x2 SWAP1 PUSH1 0x25 ADD PUSH1 0x40 DUP1 MLOAD PUSH1 0x1F NOT DUP2 DUP5 SUB ADD DUP2 MSTORE SWAP1 DUP3 SWAP1 MSTORE PUSH2 0x587 SWAP2 PUSH2 0x131B JUMP JUMPDEST PUSH1 0x20 PUSH1 0x40 MLOAD DUP1 DUP4 SUB DUP2 DUP6 GAS STATICCALL ISZERO DUP1 ISZERO PUSH2 0x5A4 JUMPI RETURNDATASIZE PUSH1 0x0 DUP1 RETURNDATACOPY RETURNDATASIZE PUSH1 0x0 REVERT JUMPDEST POP POP POP PUSH1 0x40 MLOAD RETURNDATASIZE PUSH1 0x1F NOT PUSH1 0x1F DUP3 ADD AND DUP3 ADD DUP1 PUSH1 0x40 MSTORE POP DUP2 ADD SWAP1 PUSH2 0x5C7 SWAP2 SWAP1 PUSH2 0x1337 JUMP JUMPDEST PUSH1 0x2 PUSH1 0x1 DUP4 DUP2 SLOAD DUP2 LT PUSH2 0x5DC JUMPI PUSH2 0x5DC PUSH2 0x1302 JUMP JUMPDEST SWAP1 PUSH1 0x0 MSTORE PUSH1 0x20 PUSH1 0x0 KECCAK256 SWAP1 PUSH1 0x5 MUL ADD PUSH1 0x3 ADD PUSH1 0x0 ADD PUSH1 0x40 MLOAD PUSH1 0x20 ADD PUSH2 0x600 SWAP2 SWAP1 PUSH2 0x138D JUMP JUMPDEST PUSH1 0x40 DUP1 MLOAD PUSH1 0x1F NOT DUP2 DUP5 SUB ADD DUP2 MSTORE SWAP1 DUP3 SWAP1 MSTORE PUSH2 0x61A SWAP2 PUSH2 0x131B JUMP JUMPDEST PUSH1 0x20 PUSH1 0x40 MLOAD DUP1 DUP4 SUB DUP2 DUP6 GAS STATICCALL ISZERO DUP1 ISZERO PUSH2 0x637 JUMPI RETURNDATASIZE PUSH1 0x0 DUP1 RETURNDATACOPY RETURNDATASIZE PUSH1 0x0 REVERT JUMPDEST POP POP POP PUSH1 0x40 MLOAD RETURNDATASIZE PUSH1 0x1F NOT PUSH1 0x1F DUP3 ADD AND DUP3 ADD DUP1 PUSH1 0x40 MSTORE POP DUP2 ADD SWAP1 PUSH2 0x65A SWAP2 SWAP1 PUSH2 0x1337 JUMP JUMPDEST SUB PUSH2 0x781 JUMPI PUSH1 0x0 PUSH1 0x1 DUP3 DUP2 SLOAD DUP2 LT PUSH2 0x674 JUMPI PUSH2 0x674 PUSH2 0x1302 JUMP JUMPDEST PUSH1 0x0 SWAP2 DUP3 MSTORE PUSH1 0x20 SWAP1 SWAP2 KECCAK256 PUSH1 0x1 PUSH1 0x5 SWAP1 SWAP3 MUL ADD DUP2 ADD SLOAD PUSH1 0x1 PUSH1 0xA0 PUSH1 0x2 EXP SUB AND SWAP2 POP PUSH2 0x2710 SWAP1 PUSH2 0x6A1 SWAP1 PUSH2 0x26D JUMP JUMPDEST PUSH2 0x6AB PUSH1 0x0 PUSH2 0x26D JUMP JUMPDEST PUSH2 0x6B7 SWAP1 PUSH2 0x2710 PUSH2 0x1418 JUMP JUMPDEST PUSH2 0x6C1 SWAP2 SWAP1 PUSH2 0x1437 JUMP JUMPDEST PUSH2 0x6CD SWAP1 PUSH2 0x2710 PUSH2 0x145C JUMP JUMPDEST PUSH1 0x1 DUP5 DUP2 SLOAD DUP2 LT PUSH2 0x6E0 JUMPI PUSH2 0x6E0 PUSH2 0x1302 JUMP JUMPDEST SWAP1 PUSH1 0x0 MSTORE PUSH1 0x20 PUSH1 0x0 KECCAK256 SWAP1 PUSH1 0x5 MUL ADD PUSH1 0x2 ADD SLOAD PUSH2 0x6FC SWAP2 SWAP1 PUSH2 0x1418 JUMP JUMPDEST PUSH2 0x706 SWAP2 SWAP1 PUSH2 0x1437 JUMP JUMPDEST SWAP3 POP PUSH1 0x0 DUP2 PUSH1 0x1 PUSH1 0xA0 PUSH1 0x2 EXP SUB AND DUP5 PUSH1 0x40 MLOAD PUSH1 0x0 PUSH1 0x40 MLOAD DUP1 DUP4 SUB DUP2 DUP6 DUP8 GAS CALL SWAP3 POP POP POP RETURNDATASIZE DUP1 PUSH1 0x0 DUP2 EQ PUSH2 0x755 JUMPI PUSH1 0x40 MLOAD SWAP2 POP PUSH1 0x1F NOT PUSH1 0x3F RETURNDATASIZE ADD AND DUP3 ADD PUSH1 0x40 MSTORE RETURNDATASIZE DUP3 MSTORE RETURNDATASIZE PUSH1 0x0 PUSH1 0x20 DUP5 ADD RETURNDATACOPY PUSH2 0x75A JUMP JUMPDEST PUSH1 0x60 SWAP2 POP JUMPDEST POP POP SWAP1 POP DUP1 PUSH2 0x77E JUMPI PUSH1 0x40 MLOAD PUSH1 0xE5 PUSH1 0x2 EXP PUSH3 0x461BCD MUL DUP2 MSTORE PUSH1 0x4 ADD PUSH2 0x509 SWAP1 PUSH2 0x1474 JUMP JUMPDEST POP POP JUMPDEST DUP1 PUSH2 0x78B DUP2 PUSH2 0x14AB JUMP JUMPDEST SWAP2 POP POP PUSH2 0x534 JUMP JUMPDEST POP JUMPDEST PUSH1 0x0 PUSH1 0x5 DUP2 SWAP1 SSTORE PUSH1 0x2 DUP1 SLOAD DUP3 SWAP1 PUSH2 0x7AE JUMPI PUSH2 0x7AE PUSH2 0x1302 JUMP JUMPDEST SWAP1 PUSH1 0x0 MSTORE PUSH1 0x20 PUSH1 0x0 KECCAK256 SWAP1 PUSH1 0x2 MUL ADD PUSH1 0x1 ADD DUP2 SWAP1 SSTORE POP PUSH1 0x0 PUSH1 0x2 PUSH1 0x1 DUP2 SLOAD DUP2 LT PUSH2 0x7D9 JUMPI PUSH2 0x7D9 PUSH2 0x1302 JUMP JUMPDEST SWAP1 PUSH1 0x0 MSTORE PUSH1 0x20 PUSH1 0x0 KECCAK256 SWAP1 PUSH1 0x2 MUL ADD PUSH1 0x1 ADD DUP2 SWAP1 SSTORE POP PUSH1 0x0 JUMPDEST PUSH1 0x1 SLOAD DUP2 LT ISZERO PUSH2 0x854 JUMPI PUSH1 0x0 PUSH1 0x4 PUSH1 0x0 PUSH1 0x1 DUP5 DUP2 SLOAD DUP2 LT PUSH2 0x814 JUMPI PUSH2 0x814 PUSH2 0x1302 JUMP JUMPDEST PUSH1 0x0 SWAP2 DUP3 MSTORE PUSH1 0x20 DUP1 DUP4 KECCAK256 PUSH1 0x1 PUSH1 0x5 SWAP1 SWAP4 MUL ADD SWAP2 SWAP1 SWAP2 ADD SLOAD PUSH1 0x1 PUSH1 0xA0 PUSH1 0x2 EXP SUB AND DUP4 MSTORE DUP3 ADD SWAP3 SWAP1 SWAP3 MSTORE PUSH1 0x40 ADD SWAP1 KECCAK256 SSTORE DUP1 PUSH2 0x84C DUP2 PUSH2 0x14AB JUMP JUMPDEST SWAP2 POP POP PUSH2 0x7F1 JUMP JUMPDEST POP POP POP JUMP JUMPDEST PUSH1 0x1 DUP2 DUP2 SLOAD DUP2 LT PUSH2 0x869 JUMPI PUSH1 0x0 DUP1 REVERT JUMPDEST SWAP1 PUSH1 0x0 MSTORE PUSH1 0x20 PUSH1 0x0 KECCAK256 SWAP1 PUSH1 0x5 MUL ADD PUSH1 0x0 SWAP2 POP SWAP1 POP DUP1 PUSH1 0x0 ADD DUP1 SLOAD PUSH2 0x88C SWAP1 PUSH2 0x1350 JUMP JUMPDEST DUP1 PUSH1 0x1F ADD PUSH1 0x20 DUP1 SWAP2 DIV MUL PUSH1 0x20 ADD PUSH1 0x40 MLOAD SWAP1 DUP2 ADD PUSH1 0x40 MSTORE DUP1 SWAP3 SWAP2 SWAP1 DUP2 DUP2 MSTORE PUSH1 0x20 ADD DUP3 DUP1 SLOAD PUSH2 0x8B8 SWAP1 PUSH2 0x1350 JUMP JUMPDEST DUP1 ISZERO PUSH2 0x905 JUMPI DUP1 PUSH1 0x1F LT PUSH2 0x8DA JUMPI PUSH2 0x100 DUP1 DUP4 SLOAD DIV MUL DUP4 MSTORE SWAP2 PUSH1 0x20 ADD SWAP2 PUSH2 0x905 JUMP JUMPDEST DUP3 ADD SWAP2 SWAP1 PUSH1 0x0 MSTORE PUSH1 0x20 PUSH1 0x0 KECCAK256 SWAP1 JUMPDEST DUP2 SLOAD DUP2 MSTORE SWAP1 PUSH1 0x1 ADD SWAP1 PUSH1 0x20 ADD DUP1 DUP4 GT PUSH2 0x8E8 JUMPI DUP3 SWAP1 SUB PUSH1 0x1F AND DUP3 ADD SWAP2 JUMPDEST POP POP POP POP POP SWAP1 DUP1 PUSH1 0x1 ADD PUSH1 0x0 SWAP1 SLOAD SWAP1 PUSH2 0x100 EXP SWAP1 DIV PUSH1 0x1 PUSH1 0xA0 PUSH1 0x2 EXP SUB AND SWAP1 DUP1 PUSH1 0x2 ADD SLOAD SWAP1 DUP1 PUSH1 0x3 ADD PUSH1 0x40 MLOAD DUP1 PUSH1 0x40 ADD PUSH1 0x40 MSTORE SWAP1 DUP2 PUSH1 0x0 DUP3 ADD DUP1 SLOAD PUSH2 0x949 SWAP1 PUSH2 0x1350 JUMP JUMPDEST DUP1 PUSH1 0x1F ADD PUSH1 0x20 DUP1 SWAP2 DIV MUL PUSH1 0x20 ADD PUSH1 0x40 MLOAD SWAP1 DUP2 ADD PUSH1 0x40 MSTORE DUP1 SWAP3 SWAP2 SWAP1 DUP2 DUP2 MSTORE PUSH1 0x20 ADD DUP3 DUP1 SLOAD PUSH2 0x975 SWAP1 PUSH2 0x1350 JUMP JUMPDEST DUP1 ISZERO PUSH2 0x9C2 JUMPI DUP1 PUSH1 0x1F LT PUSH2 0x997 JUMPI PUSH2 0x100 DUP1 DUP4 SLOAD DIV MUL DUP4 MSTORE SWAP2 PUSH1 0x20 ADD SWAP2 PUSH2 0x9C2 JUMP JUMPDEST DUP3 ADD SWAP2 SWAP1 PUSH1 0x0 MSTORE PUSH1 0x20 PUSH1 0x0 KECCAK256 SWAP1 JUMPDEST DUP2 SLOAD DUP2 MSTORE SWAP1 PUSH1 0x1 ADD SWAP1 PUSH1 0x20 ADD DUP1 DUP4 GT PUSH2 0x9A5 JUMPI DUP3 SWAP1 SUB PUSH1 0x1F AND DUP3 ADD SWAP2 JUMPDEST POP POP POP POP POP DUP2 MSTORE PUSH1 0x20 ADD PUSH1 0x1 DUP3 ADD SLOAD DUP2 MSTORE POP POP SWAP1 POP DUP5 JUMP JUMPDEST PUSH1 0x2 DUP2 DUP2 SLOAD DUP2 LT PUSH2 0x9EA JUMPI PUSH1 0x0 DUP1 REVERT JUMPDEST SWAP1 PUSH1 0x0 MSTORE PUSH1 0x20 PUSH1 0x0 KECCAK256 SWAP1 PUSH1 0x2 MUL ADD PUSH1 0x0 SWAP2 POP SWAP1 POP DUP1 PUSH1 0x0 ADD DUP1 SLOAD PUSH2 0xA0D SWAP1 PUSH2 0x1350 JUMP JUMPDEST DUP1 PUSH1 0x1F ADD PUSH1 0x20 DUP1 SWAP2 DIV MUL PUSH1 0x20 ADD PUSH1 0x40 MLOAD SWAP1 DUP2 ADD PUSH1 0x40 MSTORE DUP1 SWAP3 SWAP2 SWAP1 DUP2 DUP2 MSTORE PUSH1 0x20 ADD DUP3 DUP1 SLOAD PUSH2 0xA39 SWAP1 PUSH2 0x1350 JUMP JUMPDEST DUP1 ISZERO PUSH2 0xA86 JUMPI DUP1 PUSH1 0x1F LT PUSH2 0xA5B JUMPI PUSH2 0x100 DUP1 DUP4 SLOAD DIV MUL DUP4 MSTORE SWAP2 PUSH1 0x20 ADD SWAP2 PUSH2 0xA86 JUMP JUMPDEST DUP3 ADD SWAP2 SWAP1 PUSH1 0x0 MSTORE PUSH1 0x20 PUSH1 0x0 KECCAK256 SWAP1 JUMPDEST DUP2 SLOAD DUP2 MSTORE SWAP1 PUSH1 0x1 ADD SWAP1 PUSH1 0x20 ADD DUP1 DUP4 GT PUSH2 0xA69 JUMPI DUP3 SWAP1 SUB PUSH1 0x1F AND DUP3 ADD SWAP2 JUMPDEST POP POP POP POP POP SWAP1 DUP1 PUSH1 0x1 ADD SLOAD SWAP1 POP DUP3 JUMP JUMPDEST PUSH1 0x0 SLOAD PUSH1 0x1 PUSH1 0xA0 PUSH1 0x2 EXP SUB AND CALLER EQ PUSH2 0xAAD JUMPI PUSH1 0x0 DUP1 REVERT JUMPDEST PUSH1 0x0 DUP1 SLOAD PUSH1 0x40 MLOAD PUSH1 0x1 PUSH1 0xA0 PUSH1 0x2 EXP SUB SWAP1 SWAP2 AND SWAP1 PUSH32 0x8BE0079C531659141344CD1FD0A4F28419497F9722A3DAAFE3B4186F6B6457E0 SWAP1 DUP4 SWAP1 LOG3 PUSH1 0x0 DUP1 SLOAD PUSH20 0xFFFFFFFFFFFFFFFFFFFFFFFFFFFFFFFFFFFFFFFF NOT AND SWAP1 SSTORE JUMP JUMPDEST PUSH1 0x40 DUP1 MLOAD DUP1 DUP3 ADD SWAP1 SWAP2 MSTORE DUP2 DUP2 MSTORE PUSH1 0x0 PUSH1 0x20 DUP1 DUP4 ADD DUP3 SWAP1 MSTORE PUSH1 0x2 DUP1 SLOAD PUSH1 0x1 DUP2 ADD DUP3 SSTORE SWAP3 DUP2 SWAP1 MSTORE DUP4 MLOAD DUP1 MLOAD SWAP4 SWAP1 SWAP2 MUL PUSH32 0x405787FA12A823E0F2B7631CC41B3BA8828B3321CA811111FA75CD3AA3BB5ACE ADD SWAP3 PUSH2 0xB61 SWAP3 DUP5 SWAP3 ADD SWAP1 PUSH2 0x101D JUMP JUMPDEST POP PUSH1 0x20 DUP3 ADD MLOAD DUP2 PUSH1 0x1 ADD SSTORE POP POP POP JUMP JUMPDEST PUSH1 0x3 SLOAD PUSH1 0x1 PUSH1 0xA0 PUSH1 0x2 EXP SUB AND CALLER SUB PUSH2 0xBF4 JUMPI PUSH1 0x40 MLOAD PUSH1 0xE5 PUSH1 0x2 EXP PUSH3 0x461BCD MUL DUP2 MSTORE PUSH1 0x20 PUSH1 0x4 DUP3 ADD MSTORE PUSH1 0x22 PUSH1 0x24 DUP3 ADD MSTORE PUSH32 0x6F776E6572206973206E6F7420616C6C6F77656420746F206D616B6520612062 PUSH1 0x44 DUP3 ADD MSTORE PUSH32 0x6574000000000000000000000000000000000000000000000000000000000000 PUSH1 0x64 DUP3 ADD MSTORE PUSH1 0x84 ADD PUSH2 0x509 JUMP JUMPDEST CALLER PUSH1 0x0 SWAP1 DUP2 MSTORE PUSH1 0x4 PUSH1 0x20 MSTORE PUSH1 0x40 SWAP1 KECCAK256 SLOAD ISZERO PUSH2 0xC54 JUMPI PUSH1 0x40 MLOAD PUSH1 0xE5 PUSH1 0x2 EXP PUSH3 0x461BCD MUL DUP2 MSTORE PUSH1 0x20 PUSH1 0x4 DUP3 ADD MSTORE PUSH1 0x17 PUSH1 0x24 DUP3 ADD MSTORE PUSH32 0x4F6E6C79206F6E652062657420697320616C6C6F776564000000000000000000 PUSH1 0x44 DUP3 ADD MSTORE PUSH1 0x64 ADD PUSH2 0x509 JUMP JUMPDEST CALLVALUE PUSH1 0x4 PUSH1 0x0 CALLER PUSH1 0x1 PUSH1 0xA0 PUSH1 0x2 EXP SUB AND PUSH1 0x1 PUSH1 0xA0 PUSH1 0x2 EXP SUB AND DUP2 MSTORE PUSH1 0x20 ADD SWAP1 DUP2 MSTORE PUSH1 0x20 ADD PUSH1 0x0 KECCAK256 DUP2 SWAP1 SSTORE POP PUSH1 0x1 PUSH1 0x40 MLOAD DUP1 PUSH1 0x80 ADD PUSH1 0x40 MSTORE DUP1 DUP5 DUP2 MSTORE PUSH1 0x20 ADD CALLER PUSH1 0x1 PUSH1 0xA0 PUSH1 0x2 EXP SUB AND DUP2 MSTORE PUSH1 0x20 ADD CALLVALUE DUP2 MSTORE PUSH1 0x20 ADD PUSH1 0x2 DUP5 DUP2 SLOAD DUP2 LT PUSH2 0xCB9 JUMPI PUSH2 0xCB9 PUSH2 0x1302 JUMP JUMPDEST SWAP1 PUSH1 0x0 MSTORE PUSH1 0x20 PUSH1 0x0 KECCAK256 SWAP1 PUSH1 0x2 MUL ADD PUSH1 0x40 MLOAD DUP1 PUSH1 0x40 ADD PUSH1 0x40 MSTORE SWAP1 DUP2 PUSH1 0x0 DUP3 ADD DUP1 SLOAD PUSH2 0xCE2 SWAP1 PUSH2 0x1350 JUMP JUMPDEST DUP1 PUSH1 0x1F ADD PUSH1 0x20 DUP1 SWAP2 DIV MUL PUSH1 0x20 ADD PUSH1 0x40 MLOAD SWAP1 DUP2 ADD PUSH1 0x40 MSTORE DUP1 SWAP3 SWAP2 SWAP1 DUP2 DUP2 MSTORE PUSH1 0x20 ADD DUP3 DUP1 SLOAD PUSH2 0xD0E SWAP1 PUSH2 0x1350 JUMP JUMPDEST DUP1 ISZERO PUSH2 0xD5B JUMPI DUP1 PUSH1 0x1F LT PUSH2 0xD30 JUMPI PUSH2 0x100 DUP1 DUP4 SLOAD DIV MUL DUP4 MSTORE SWAP2 PUSH1 0x20 ADD SWAP2 PUSH2 0xD5B JUMP JUMPDEST DUP3 ADD SWAP2 SWAP1 PUSH1 0x0 MSTORE PUSH1 0x20 PUSH1 0x0 KECCAK256 SWAP1 JUMPDEST DUP2 SLOAD DUP2 MSTORE SWAP1 PUSH1 0x1 ADD SWAP1 PUSH1 0x20 ADD DUP1 DUP4 GT PUSH2 0xD3E JUMPI DUP3 SWAP1 SUB PUSH1 0x1F AND DUP3 ADD SWAP2 JUMPDEST POP POP POP SWAP2 DUP4 MSTORE POP POP PUSH1 0x1 SWAP2 DUP3 ADD SLOAD PUSH1 0x20 SWAP2 DUP3 ADD MSTORE SWAP2 SWAP1 SWAP3 MSTORE DUP4 SLOAD SWAP2 DUP3 ADD DUP5 SSTORE PUSH1 0x0 SWAP4 DUP5 MSTORE SWAP3 DUP4 SWAP1 KECCAK256 DUP3 MLOAD DUP1 MLOAD SWAP4 SWAP5 PUSH1 0x5 SWAP1 SWAP4 MUL SWAP1 SWAP2 ADD SWAP3 PUSH2 0xD9F SWAP3 DUP5 SWAP3 ADD SWAP1 PUSH2 0x101D JUMP JUMPDEST POP PUSH1 0x20 DUP3 DUP2 ADD MLOAD PUSH1 0x1 DUP4 ADD DUP1 SLOAD PUSH20 0xFFFFFFFFFFFFFFFFFFFFFFFFFFFFFFFFFFFFFFFF NOT AND PUSH1 0x1 PUSH1 0xA0 PUSH1 0x2 EXP SUB SWAP1 SWAP3 AND SWAP2 SWAP1 SWAP2 OR SWAP1 SSTORE PUSH1 0x40 DUP4 ADD MLOAD PUSH1 0x2 DUP4 ADD SSTORE PUSH1 0x60 DUP4 ADD MLOAD DUP1 MLOAD DUP1 MLOAD SWAP2 SWAP3 PUSH1 0x3 DUP6 ADD SWAP3 PUSH2 0xDFB SWAP3 DUP5 SWAP3 ADD SWAP1 PUSH2 0x101D JUMP JUMPDEST POP PUSH1 0x20 DUP3 ADD MLOAD DUP2 PUSH1 0x1 ADD SSTORE POP POP POP POP DUP1 PUSH1 0x0 SUB PUSH2 0xE4D JUMPI CALLVALUE PUSH1 0x2 PUSH1 0x0 DUP2 SLOAD DUP2 LT PUSH2 0xE27 JUMPI PUSH2 0xE27 PUSH2 0x1302 JUMP JUMPDEST SWAP1 PUSH1 0x0 MSTORE PUSH1 0x20 PUSH1 0x0 KECCAK256 SWAP1 PUSH1 0x2 MUL ADD PUSH1 0x1 ADD PUSH1 0x0 DUP3 DUP3 SLOAD PUSH2 0xE47 SWAP2 SWAP1 PUSH2 0x145C JUMP JUMPDEST SWAP1 SWAP2 SSTORE POP POP JUMPDEST DUP1 PUSH1 0x1 SUB PUSH2 0xE90 JUMPI CALLVALUE PUSH1 0x2 PUSH1 0x1 DUP2 SLOAD DUP2 LT PUSH2 0xE6A JUMPI PUSH2 0xE6A PUSH2 0x1302 JUMP JUMPDEST SWAP1 PUSH1 0x0 MSTORE PUSH1 0x20 PUSH1 0x0 KECCAK256 SWAP1 PUSH1 0x2 MUL ADD PUSH1 0x1 ADD PUSH1 0x0 DUP3 DUP3 SLOAD PUSH2 0xE8A SWAP2 SWAP1 PUSH2 0x145C JUMP JUMPDEST SWAP1 SWAP2 SSTORE POP POP JUMPDEST PUSH1 0x3 SLOAD PUSH1 0x40 MLOAD PUSH1 0x0 SWAP2 PUSH1 0x1 PUSH1 0xA0 PUSH1 0x2 EXP SUB AND SWAP1 CALLVALUE SWAP1 DUP4 DUP2 DUP2 DUP2 DUP6 DUP8 GAS CALL SWAP3 POP POP POP RETURNDATASIZE DUP1 PUSH1 0x0 DUP2 EQ PUSH2 0xEDD JUMPI PUSH1 0x40 MLOAD SWAP2 POP PUSH1 0x1F NOT PUSH1 0x3F RETURNDATASIZE ADD AND DUP3 ADD PUSH1 0x40 MSTORE RETURNDATASIZE DUP3 MSTORE RETURNDATASIZE PUSH1 0x0 PUSH1 0x20 DUP5 ADD RETURNDATACOPY PUSH2 0xEE2 JUMP JUMPDEST PUSH1 0x60 SWAP2 POP JUMPDEST POP POP SWAP1 POP DUP1 PUSH2 0xF06 JUMPI PUSH1 0x40 MLOAD PUSH1 0xE5 PUSH1 0x2 EXP PUSH3 0x461BCD MUL DUP2 MSTORE PUSH1 0x4 ADD PUSH2 0x509 SWAP1 PUSH2 0x1474 JUMP JUMPDEST CALLVALUE PUSH1 0x5 PUSH1 0x0 DUP3 DUP3 SLOAD PUSH2 0xF18 SWAP2 SWAP1 PUSH2 0x145C JUMP JUMPDEST SWAP3 POP POP DUP2 SWAP1 SSTORE POP PUSH32 0x948A46EBA9469FC822B082631D32F2456EA94A35179D32230095B6F34FB341CB CALLER CALLVALUE PUSH1 0x2 DUP6 DUP2 SLOAD DUP2 LT PUSH2 0xF55 JUMPI PUSH2 0xF55 PUSH2 0x1302 JUMP JUMPDEST SWAP1 PUSH1 0x0 MSTORE PUSH1 0x20 PUSH1 0x0 KECCAK256 SWAP1 PUSH1 0x2 MUL ADD PUSH1 0x40 MLOAD PUSH2 0xF72 SWAP4 SWAP3 SWAP2 SWAP1 PUSH2 0x14C4 JUMP JUMPDEST PUSH1 0x40 MLOAD DUP1 SWAP2 SUB SWAP1 LOG1 POP POP POP JUMP JUMPDEST PUSH1 0x0 SLOAD PUSH1 0x1 PUSH1 0xA0 PUSH1 0x2 EXP SUB AND CALLER EQ PUSH2 0xF96 JUMPI PUSH1 0x0 DUP1 REVERT JUMPDEST PUSH2 0xF9F DUP2 PUSH2 0xFA2 JUMP JUMPDEST POP JUMP JUMPDEST PUSH1 0x1 PUSH1 0xA0 PUSH1 0x2 EXP SUB DUP2 AND PUSH2 0xFB5 JUMPI PUSH1 0x0 DUP1 REVERT JUMPDEST PUSH1 0x0 DUP1 SLOAD PUSH1 0x40 MLOAD PUSH1 0x1 PUSH1 0xA0 PUSH1 0x2 EXP SUB DUP1 DUP6 AND SWAP4 SWAP3 AND SWAP2 PUSH32 0x8BE0079C531659141344CD1FD0A4F28419497F9722A3DAAFE3B4186F6B6457E0 SWAP2 LOG3 PUSH1 0x0 DUP1 SLOAD PUSH20 0xFFFFFFFFFFFFFFFFFFFFFFFFFFFFFFFFFFFFFFFF NOT AND PUSH1 0x1 PUSH1 0xA0 PUSH1 0x2 EXP SUB SWAP3 SWAP1 SWAP3 AND SWAP2 SWAP1 SWAP2 OR SWAP1 SSTORE JUMP JUMPDEST DUP3 DUP1 SLOAD PUSH2 0x1029 SWAP1 PUSH2 0x1350 JUMP JUMPDEST SWAP1 PUSH1 0x0 MSTORE PUSH1 0x20 PUSH1 0x0 KECCAK256 SWAP1 PUSH1 0x1F ADD PUSH1 0x20 SWAP1 DIV DUP2 ADD SWAP3 DUP3 PUSH2 0x104B JUMPI PUSH1 0x0 DUP6 SSTORE PUSH2 0x1091 JUMP JUMPDEST DUP3 PUSH1 0x1F LT PUSH2 0x1064 JUMPI DUP1 MLOAD PUSH1 0xFF NOT AND DUP4 DUP1 ADD OR DUP6 SSTORE PUSH2 0x1091 JUMP JUMPDEST DUP3 DUP1 ADD PUSH1 0x1 ADD DUP6 SSTORE DUP3 ISZERO PUSH2 0x1091 JUMPI SWAP2 DUP3 ADD JUMPDEST DUP3 DUP2 GT ISZERO PUSH2 0x1091 JUMPI DUP3 MLOAD DUP3 SSTORE SWAP2 PUSH1 0x20 ADD SWAP2 SWAP1 PUSH1 0x1 ADD SWAP1 PUSH2 0x1076 JUMP JUMPDEST POP PUSH2 0x109D SWAP3 SWAP2 POP PUSH2 0x10A1 JUMP JUMPDEST POP SWAP1 JUMP JUMPDEST JUMPDEST DUP1 DUP3 GT ISZERO PUSH2 0x109D JUMPI PUSH1 0x0 DUP2 SSTORE PUSH1 0x1 ADD PUSH2 0x10A2 JUMP JUMPDEST PUSH1 0x0 PUSH1 0x20 DUP3 DUP5 SUB SLT ISZERO PUSH2 0x10C8 JUMPI PUSH1 0x0 DUP1 REVERT JUMPDEST POP CALLDATALOAD SWAP2 SWAP1 POP JUMP JUMPDEST PUSH1 0x0 JUMPDEST DUP4 DUP2 LT ISZERO PUSH2 0x10EA JUMPI DUP2 DUP2 ADD MLOAD DUP4 DUP3 ADD MSTORE PUSH1 0x20 ADD PUSH2 0x10D2 JUMP JUMPDEST DUP4 DUP2 GT ISZERO PUSH2 0x10F9 JUMPI PUSH1 0x0 DUP5 DUP5 ADD MSTORE JUMPDEST POP POP POP POP JUMP JUMPDEST PUSH1 0x0 DUP2 MLOAD DUP1 DUP5 MSTORE PUSH2 0x1117 DUP2 PUSH1 0x20 DUP7 ADD PUSH1 0x20 DUP7 ADD PUSH2 0x10CF JUMP JUMPDEST PUSH1 0x1F ADD PUSH1 0x1F NOT AND SWAP3 SWAP1 SWAP3 ADD PUSH1 0x20 ADD SWAP3 SWAP2 POP POP JUMP JUMPDEST PUSH1 0x80 DUP2 MSTORE PUSH1 0x0 PUSH2 0x113E PUSH1 0x80 DUP4 ADD DUP8 PUSH2 0x10FF JUMP JUMPDEST PUSH1 0x1 PUSH1 0xA0 PUSH1 0x2 EXP SUB DUP7 AND PUSH1 0x20 DUP5 ADD MSTORE DUP5 PUSH1 0x40 DUP5 ADD MSTORE DUP3 DUP2 SUB PUSH1 0x60 DUP5 ADD MSTORE DUP4 MLOAD PUSH1 0x40 DUP3 MSTORE PUSH2 0x116E PUSH1 0x40 DUP4 ADD DUP3 PUSH2 0x10FF JUMP JUMPDEST SWAP1 POP PUSH1 0x20 DUP6 ADD MLOAD PUSH1 0x20 DUP4 ADD MSTORE DUP1 SWAP3 POP POP POP SWAP6 SWAP5 POP POP POP POP POP JUMP JUMPDEST PUSH1 0x40 DUP2 MSTORE PUSH1 0x0 PUSH2 0x119B PUSH1 0x40 DUP4 ADD DUP6 PUSH2 0x10FF JUMP JUMPDEST SWAP1 POP DUP3 PUSH1 0x20 DUP4 ADD MSTORE SWAP4 SWAP3 POP POP POP JUMP JUMPDEST PUSH1 0xE0 PUSH1 0x2 EXP PUSH4 0x4E487B71 MUL PUSH1 0x0 MSTORE PUSH1 0x41 PUSH1 0x4 MSTORE PUSH1 0x24 PUSH1 0x0 REVERT JUMPDEST PUSH1 0x0 DUP3 PUSH1 0x1F DUP4 ADD SLT PUSH2 0x11D4 JUMPI PUSH1 0x0 DUP1 REVERT JUMPDEST DUP2 CALLDATALOAD PUSH8 0xFFFFFFFFFFFFFFFF DUP1 DUP3 GT ISZERO PUSH2 0x11EF JUMPI PUSH2 0x11EF PUSH2 0x11AA JUMP JUMPDEST PUSH1 0x40 MLOAD PUSH1 0x1F DUP4 ADD PUSH1 0x1F NOT SWAP1 DUP2 AND PUSH1 0x3F ADD AND DUP2 ADD SWAP1 DUP3 DUP3 GT DUP2 DUP4 LT OR ISZERO PUSH2 0x1217 JUMPI PUSH2 0x1217 PUSH2 0x11AA JUMP JUMPDEST DUP2 PUSH1 0x40 MSTORE DUP4 DUP2 MSTORE DUP7 PUSH1 0x20 DUP6 DUP9 ADD ADD GT ISZERO PUSH2 0x1230 JUMPI PUSH1 0x0 DUP1 REVERT JUMPDEST DUP4 PUSH1 0x20 DUP8 ADD PUSH1 0x20 DUP4 ADD CALLDATACOPY PUSH1 0x0 PUSH1 0x20 DUP6 DUP4 ADD ADD MSTORE DUP1 SWAP5 POP POP POP POP POP SWAP3 SWAP2 POP POP JUMP JUMPDEST PUSH1 0x0 PUSH1 0x20 DUP3 DUP5 SUB SLT ISZERO PUSH2 0x1262 JUMPI PUSH1 0x0 DUP1 REVERT JUMPDEST DUP2 CALLDATALOAD PUSH8 0xFFFFFFFFFFFFFFFF DUP2 GT ISZERO PUSH2 0x1279 JUMPI PUSH1 0x0 DUP1 REVERT JUMPDEST PUSH2 0x1285 DUP5 DUP3 DUP6 ADD PUSH2 0x11C3 JUMP JUMPDEST SWAP5 SWAP4 POP POP POP POP JUMP JUMPDEST PUSH1 0x0 DUP1 PUSH1 0x40 DUP4 DUP6 SUB SLT ISZERO PUSH2 0x12A0 JUMPI PUSH1 0x0 DUP1 REVERT JUMPDEST DUP3 CALLDATALOAD PUSH8 0xFFFFFFFFFFFFFFFF DUP2 GT ISZERO PUSH2 0x12B7 JUMPI PUSH1 0x0 DUP1 REVERT JUMPDEST PUSH2 0x12C3 DUP6 DUP3 DUP7 ADD PUSH2 0x11C3 JUMP JUMPDEST SWAP6 PUSH1 0x20 SWAP5 SWAP1 SWAP5 ADD CALLDATALOAD SWAP5 POP POP POP POP JUMP JUMPDEST PUSH1 0x0 PUSH1 0x20 DUP3 DUP5 SUB SLT ISZERO PUSH2 0x12E4 JUMPI PUSH1 0x0 DUP1 REVERT JUMPDEST DUP2 CALLDATALOAD PUSH1 0x1 PUSH1 0xA0 PUSH1 0x2 EXP SUB DUP2 AND DUP2 EQ PUSH2 0x12FB JUMPI PUSH1 0x0 DUP1 REVERT JUMPDEST SWAP4 SWAP3 POP POP POP JUMP JUMPDEST PUSH1 0xE0 PUSH1 0x2 EXP PUSH4 0x4E487B71 MUL PUSH1 0x0 MSTORE PUSH1 0x32 PUSH1 0x4 MSTORE PUSH1 0x24 PUSH1 0x0 REVERT JUMPDEST PUSH1 0x0 DUP3 MLOAD PUSH2 0x132D DUP2 DUP5 PUSH1 0x20 DUP8 ADD PUSH2 0x10CF JUMP JUMPDEST SWAP2 SWAP1 SWAP2 ADD SWAP3 SWAP2 POP POP JUMP JUMPDEST PUSH1 0x0 PUSH1 0x20 DUP3 DUP5 SUB SLT ISZERO PUSH2 0x1349 JUMPI PUSH1 0x0 DUP1 REVERT JUMPDEST POP MLOAD SWAP2 SWAP1 POP JUMP JUMPDEST PUSH1 0x2 DUP2 DIV PUSH1 0x1 DUP3 AND DUP1 PUSH2 0x1364 JUMPI PUSH1 0x7F DUP3 AND SWAP2 POP JUMPDEST PUSH1 0x20 DUP3 LT DUP2 SUB PUSH2 0x1387 JUMPI PUSH1 0xE0 PUSH1 0x2 EXP PUSH4 0x4E487B71 MUL PUSH1 0x0 MSTORE PUSH1 0x22 PUSH1 0x4 MSTORE PUSH1 0x24 PUSH1 0x0 REVERT JUMPDEST POP SWAP2 SWAP1 POP JUMP JUMPDEST PUSH1 0x0 DUP1 DUP4 SLOAD PUSH2 0x139B DUP2 PUSH2 0x1350 JUMP JUMPDEST PUSH1 0x1 DUP3 DUP2 AND DUP1 ISZERO PUSH2 0x13B3 JUMPI PUSH1 0x1 DUP2 EQ PUSH2 0x13C4 JUMPI PUSH2 0x13F3 JUMP JUMPDEST PUSH1 0xFF NOT DUP5 AND DUP8 MSTORE DUP3 DUP8 ADD SWAP5 POP PUSH2 0x13F3 JUMP JUMPDEST DUP8 PUSH1 0x0 MSTORE PUSH1 0x20 DUP1 PUSH1 0x0 KECCAK256 PUSH1 0x0 JUMPDEST DUP6 DUP2 LT ISZERO PUSH2 0x13EA JUMPI DUP2 SLOAD DUP11 DUP3 ADD MSTORE SWAP1 DUP5 ADD SWAP1 DUP3 ADD PUSH2 0x13D1 JUMP JUMPDEST POP POP POP DUP3 DUP8 ADD SWAP5 POP JUMPDEST POP SWAP3 SWAP7 SWAP6 POP POP POP POP POP POP JUMP JUMPDEST PUSH1 0xE0 PUSH1 0x2 EXP PUSH4 0x4E487B71 MUL PUSH1 0x0 MSTORE PUSH1 0x11 PUSH1 0x4 MSTORE PUSH1 0x24 PUSH1 0x0 REVERT JUMPDEST PUSH1 0x0 DUP2 PUSH1 0x0 NOT DIV DUP4 GT DUP3 ISZERO ISZERO AND ISZERO PUSH2 0x1432 JUMPI PUSH2 0x1432 PUSH2 0x13FF JUMP JUMPDEST POP MUL SWAP1 JUMP JUMPDEST PUSH1 0x0 DUP3 PUSH2 0x1457 JUMPI PUSH1 0xE0 PUSH1 0x2 EXP PUSH4 0x4E487B71 MUL PUSH1 0x0 MSTORE PUSH1 0x12 PUSH1 0x4 MSTORE PUSH1 0x24 PUSH1 0x0 REVERT JUMPDEST POP DIV SWAP1 JUMP JUMPDEST PUSH1 0x0 DUP3 NOT DUP3 GT ISZERO PUSH2 0x146F JUMPI PUSH2 0x146F PUSH2 0x13FF JUMP JUMPDEST POP ADD SWAP1 JUMP JUMPDEST PUSH1 0x20 DUP1 DUP3 MSTORE PUSH1 0x14 SWAP1 DUP3 ADD MSTORE PUSH32 0x4661696C656420746F2073656E64204574686572000000000000000000000000 PUSH1 0x40 DUP3 ADD MSTORE PUSH1 0x60 ADD SWAP1 JUMP JUMPDEST PUSH1 0x0 PUSH1 0x1 DUP3 ADD PUSH2 0x14BD JUMPI PUSH2 0x14BD PUSH2 0x13FF JUMP JUMPDEST POP PUSH1 0x1 ADD SWAP1 JUMP JUMPDEST PUSH1 0x1 PUSH1 0xA0 PUSH1 0x2 EXP SUB DUP5 AND DUP2 MSTORE PUSH1 0x0 PUSH1 0x20 DUP5 DUP2 DUP5 ADD MSTORE PUSH1 0x60 PUSH1 0x40 DUP5 ADD MSTORE PUSH1 0x40 PUSH1 0x60 DUP5 ADD MSTORE PUSH1 0x0 DUP5 SLOAD PUSH2 0x14F4 DUP2 PUSH2 0x1350 JUMP JUMPDEST DUP1 PUSH1 0xA0 DUP8 ADD MSTORE PUSH1 0xC0 PUSH1 0x1 DUP1 DUP5 AND PUSH1 0x0 DUP2 EQ PUSH2 0x1516 JUMPI PUSH1 0x1 DUP2 EQ PUSH2 0x152A JUMPI PUSH2 0x1558 JUMP JUMPDEST PUSH1 0xFF NOT DUP6 AND DUP10 DUP5 ADD MSTORE PUSH1 0xE0 DUP10 ADD SWAP6 POP PUSH2 0x1558 JUMP JUMPDEST DUP10 PUSH1 0x0 MSTORE DUP7 PUSH1 0x0 KECCAK256 PUSH1 0x0 JUMPDEST DUP6 DUP2 LT ISZERO PUSH2 0x1550 JUMPI DUP2 SLOAD DUP12 DUP3 ADD DUP7 ADD MSTORE SWAP1 DUP4 ADD SWAP1 DUP9 ADD PUSH2 0x1535 JUMP JUMPDEST DUP11 ADD DUP5 ADD SWAP7 POP POP JUMPDEST POP DUP1 DUP10 ADD SLOAD PUSH1 0x80 DUP10 ADD MSTORE POP POP POP POP DUP1 SWAP3 POP POP POP SWAP5 SWAP4 POP POP POP POP JUMP INVALID LOG2 PUSH5 0x6970667358 0x22 SLT KECCAK256 0xBE PUSH16 0xE58E6351D318808259D7DC5EF84F3916 RETURN SHR PUSH17 0xF7613303D9394AA531987464736F6C6343 STOP ADDMOD 0xD STOP CALLER BLOCKHASH JUMPI DUP8 STATICCALL SLT 0xA8 0x23 0xE0 CALLCODE 0xB7 PUSH4 0x1CC41B3B 0xA8 DUP3 DUP12 CALLER 0x21 0xCA DUP2 GT GT STATICCALL PUSH22 0xCD3AA3BB5ACE00000000000000000000000000000000 "
				},
				"gasEstimates": {
					"creation": {
						"codeDepositCost": "1109000",
						"executionCost": "infinite",
						"totalCost": "infinite"
					},
					"external": {
						"betAmounts(address)": "723",
						"bets(uint256)": "infinite",
						"createBet(string,uint256)": "infinite",
						"createTeam(string)": "infinite",
						"getTotalBetAmount(uint256)": "789",
						"isOwner()": "493",
						"owner()": "463",
						"renounceOwnership()": "22583",
						"teams(uint256)": "infinite",
						"total()": "456",
						"transferOwnership(address)": "22982",
						"winningTeam(uint256)": "infinite"
					}
				},
				"methodIdentifiers": {
					"betAmounts(address)": "ebcfcf6b",
					"bets(uint256)": "22af00fa",
					"createBet(string,uint256)": "d6704206",
					"createTeam(string)": "972fa53f",
					"getTotalBetAmount(uint256)": "0e89da56",
					"isOwner()": "8f32d59b",
					"owner()": "8da5cb5b",
					"renounceOwnership()": "715018a6",
					"teams(uint256)": "3ed2b77a",
					"total()": "2ddbd13a",
					"transferOwnership(address)": "f2fde38b",
					"winningTeam(uint256)": "20f73162"
				}
			},
			"storageLayout": {
				"storage": [
					{
						"astId": 4,
						"contract": "sportsbet/contracts/sportsbetting.sol:sportsbetting",
						"label": "_owner",
						"offset": 0,
						"slot": "0",
						"type": "t_address"
					},
					{
						"astId": 153,
						"contract": "sportsbet/contracts/sportsbetting.sol:sportsbetting",
						"label": "bets",
						"offset": 0,
						"slot": "1",
						"type": "t_array(t_struct(bet)149_storage)dyn_storage"
					},
					{
						"astId": 157,
						"contract": "sportsbet/contracts/sportsbetting.sol:sportsbetting",
						"label": "teams",
						"offset": 0,
						"slot": "2",
						"type": "t_array(t_struct(Team)139_storage)dyn_storage"
					},
					{
						"astId": 159,
						"contract": "sportsbet/contracts/sportsbetting.sol:sportsbetting",
						"label": "Owner",
						"offset": 0,
						"slot": "3",
						"type": "t_address_payable"
					},
					{
						"astId": 163,
						"contract": "sportsbet/contracts/sportsbetting.sol:sportsbetting",
						"label": "betAmounts",
						"offset": 0,
						"slot": "4",
						"type": "t_mapping(t_address,t_uint256)"
					},
					{
						"astId": 165,
						"contract": "sportsbet/contracts/sportsbetting.sol:sportsbetting",
						"label": "total",
						"offset": 0,
						"slot": "5",
						"type": "t_uint256"
					}
				],
				"types": {
					"t_address": {
						"encoding": "inplace",
						"label": "address",
						"numberOfBytes": "20"
					},
					"t_address_payable": {
						"encoding": "inplace",
						"label": "address payable",
						"numberOfBytes": "20"
					},
					"t_array(t_struct(Team)139_storage)dyn_storage": {
						"base": "t_struct(Team)139_storage",
						"encoding": "dynamic_array",
						"label": "struct sportsbetting.Team[]",
						"numberOfBytes": "32"
					},
					"t_array(t_struct(bet)149_storage)dyn_storage": {
						"base": "t_struct(bet)149_storage",
						"encoding": "dynamic_array",
						"label": "struct sportsbetting.bet[]",
						"numberOfBytes": "32"
					},
					"t_mapping(t_address,t_uint256)": {
						"encoding": "mapping",
						"key": "t_address",
						"label": "mapping(address => uint256)",
						"numberOfBytes": "32",
						"value": "t_uint256"
					},
					"t_string_storage": {
						"encoding": "bytes",
						"label": "string",
						"numberOfBytes": "32"
					},
					"t_struct(Team)139_storage": {
						"encoding": "inplace",
						"label": "struct sportsbetting.Team",
						"members": [
							{
								"astId": 136,
								"contract": "sportsbet/contracts/sportsbetting.sol:sportsbetting",
								"label": "teamname",
								"offset": 0,
								"slot": "0",
								"type": "t_string_storage"
							},
							{
								"astId": 138,
								"contract": "sportsbet/contracts/sportsbetting.sol:sportsbetting",
								"label": "totalbet",
								"offset": 0,
								"slot": "1",
								"type": "t_uint256"
							}
						],
						"numberOfBytes": "64"
					},
					"t_struct(bet)149_storage": {
						"encoding": "inplace",
						"label": "struct sportsbetting.bet",
						"members": [
							{
								"astId": 141,
								"contract": "sportsbet/contracts/sportsbetting.sol:sportsbetting",
								"label": "name",
								"offset": 0,
								"slot": "0",
								"type": "t_string_storage"
							},
							{
								"astId": 143,
								"contract": "sportsbet/contracts/sportsbetting.sol:sportsbetting",
								"label": "addr",
								"offset": 0,
								"slot": "1",
								"type": "t_address"
							},
							{
								"astId": 145,
								"contract": "sportsbet/contracts/sportsbetting.sol:sportsbetting",
								"label": "amount",
								"offset": 0,
								"slot": "2",
								"type": "t_uint256"
							},
							{
								"astId": 148,
								"contract": "sportsbet/contracts/sportsbetting.sol:sportsbetting",
								"label": "team",
								"offset": 0,
								"slot": "3",
								"type": "t_struct(Team)139_storage"
							}
						],
						"numberOfBytes": "160"
					},
					"t_uint256": {
						"encoding": "inplace",
						"label": "uint256",
						"numberOfBytes": "32"
					}
				}
			},
			"userdoc": {
				"kind": "user",
				"methods": {
					"renounceOwnership()": {
						"notice": "Renouncing to ownership will leave the contract without an owner. It will not be possible to call the functions with the `onlyOwner` modifier anymore."
					}
				},
				"version": 1
			}
		}
	}
}