{
  "contractName": "sportsbetting",
  "abi": [
    {
      "inputs": [],
      "stateMutability": "payable",
      "type": "constructor",
      "payable": true
    },
    {
      "anonymous": false,
      "inputs": [
        {
          "indexed": false,
          "internalType": "address",
          "name": "addr",
          "type": "address"
        },
        {
          "indexed": false,
          "internalType": "uint256",
          "name": "amount",
          "type": "uint256"
        },
        {
          "components": [
            {
              "internalType": "string",
              "name": "teamname",
              "type": "string"
            },
            {
              "internalType": "uint256",
              "name": "totalbet",
              "type": "uint256"
            }
          ],
          "indexed": false,
          "internalType": "struct sportsbetting.Team",
          "name": "team",
          "type": "tuple"
        }
      ],
      "name": "NewBet",
      "type": "event"
    },
    {
      "anonymous": false,
      "inputs": [
        {
          "indexed": true,
          "internalType": "address",
          "name": "previousOwner",
          "type": "address"
        },
        {
          "indexed": true,
          "internalType": "address",
          "name": "newOwner",
          "type": "address"
        }
      ],
      "name": "OwnershipTransferred",
      "type": "event"
    },
    {
      "inputs": [
        {
          "internalType": "address",
          "name": "",
          "type": "address"
        }
      ],
      "name": "betAmounts",
      "outputs": [
        {
          "internalType": "uint256",
          "name": "",
          "type": "uint256"
        }
      ],
      "stateMutability": "view",
      "type": "function",
      "constant": true
    },
    {
      "inputs": [
        {
          "internalType": "uint256",
          "name": "",
          "type": "uint256"
        }
      ],
      "name": "bets",
      "outputs": [
        {
          "internalType": "string",
          "name": "name",
          "type": "string"
        },
        {
          "internalType": "address",
          "name": "addr",
          "type": "address"
        },
        {
          "internalType": "uint256",
          "name": "amount",
          "type": "uint256"
        },
        {
          "components": [
            {
              "internalType": "string",
              "name": "teamname",
              "type": "string"
            },
            {
              "internalType": "uint256",
              "name": "totalbet",
              "type": "uint256"
            }
          ],
          "internalType": "struct sportsbetting.Team",
          "name": "team",
          "type": "tuple"
        }
      ],
      "stateMutability": "view",
      "type": "function",
      "constant": true
    },
    {
      "inputs": [],
      "name": "isOwner",
      "outputs": [
        {
          "internalType": "bool",
          "name": "",
          "type": "bool"
        }
      ],
      "stateMutability": "view",
      "type": "function",
      "constant": true
    },
    {
      "inputs": [],
      "name": "owner",
      "outputs": [
        {
          "internalType": "address",
          "name": "",
          "type": "address"
        }
      ],
      "stateMutability": "view",
      "type": "function",
      "constant": true
    },
    {
      "inputs": [],
      "name": "renounceOwnership",
      "outputs": [],
      "stateMutability": "nonpayable",
      "type": "function"
    },
    {
      "inputs": [
        {
          "internalType": "uint256",
          "name": "",
          "type": "uint256"
        }
      ],
      "name": "teams",
      "outputs": [
        {
          "internalType": "string",
          "name": "teamname",
          "type": "string"
        },
        {
          "internalType": "uint256",
          "name": "totalbet",
          "type": "uint256"
        }
      ],
      "stateMutability": "view",
      "type": "function",
      "constant": true
    },
    {
      "inputs": [],
      "name": "total",
      "outputs": [
        {
          "internalType": "uint256",
          "name": "",
          "type": "uint256"
        }
      ],
      "stateMutability": "view",
      "type": "function",
      "constant": true
    },
    {
      "inputs": [
        {
          "internalType": "address",
          "name": "newOwner",
          "type": "address"
        }
      ],
      "name": "transferOwnership",
      "outputs": [],
      "stateMutability": "nonpayable",
      "type": "function"
    },
    {
      "inputs": [
        {
          "internalType": "string",
          "name": "_name",
          "type": "string"
        }
      ],
      "name": "createTeam",
      "outputs": [],
      "stateMutability": "nonpayable",
      "type": "function"
    },
    {
      "inputs": [
        {
          "internalType": "uint256",
          "name": "_team",
          "type": "uint256"
        }
      ],
      "name": "getTotalBetAmount",
      "outputs": [
        {
          "internalType": "uint256",
          "name": "",
          "type": "uint256"
        }
      ],
      "stateMutability": "view",
      "type": "function",
      "constant": true
    },
    {
      "inputs": [
        {
          "internalType": "string",
          "name": "_name",
          "type": "string"
        },
        {
          "internalType": "uint256",
          "name": "_team",
          "type": "uint256"
        }
      ],
      "name": "createBet",
      "outputs": [],
      "stateMutability": "payable",
      "type": "function",
      "payable": true
    },
    {
      "inputs": [
        {
          "internalType": "uint256",
          "name": "_team",
          "type": "uint256"
        }
      ],
      "name": "winningTeam",
      "outputs": [],
      "stateMutability": "payable",
      "type": "function",
      "payable": true
    }
  ],
  "bytecode": "0x60806040819052600080546001600160a01b031916339081178255917f8be0079c531659141344cd1fd0a4f28419497f9722a3daafe3b4186f6b6457e0908290a3600380546001600160a01b03191633179055604080516080810182526005918101918252647465616d3160d81b60608201529081526000602080830182905260028054600181018255928190528351805193909102600080516020620017638339815191520192620000b692849201906200013b565b50602091820151600191820155604080516080810182526005918101918252643a32b0b69960d91b60608201529081526000818401819052600280549384018155908190528151805192949390910260008051602062001763833981519152019262000128928492909101906200013b565b506020820151816001015550506200021d565b8280546200014990620001e1565b90600052602060002090601f0160209004810192826200016d5760008555620001b8565b82601f106200018857805160ff1916838001178555620001b8565b82800160010185558215620001b8579182015b82811115620001b85782518255916020019190600101906200019b565b50620001c6929150620001ca565b5090565b5b80821115620001c65760008155600101620001cb565b600181811c90821680620001f657607f821691505b6020821081036200021757634e487b7160e01b600052602260045260246000fd5b50919050565b611536806200022d6000396000f3fe6080604052600436106100a75760003560e01c80638da5cb5b116100645780638da5cb5b1461017d5780638f32d59b146101a5578063972fa53f146101d0578063d6704206146101f0578063ebcfcf6b14610203578063f2fde38b1461023057600080fd5b80630e89da56146100ac57806320f73162146100df57806322af00fa146100f45780632ddbd13a146101245780633ed2b77a1461013a578063715018a614610168575b600080fd5b3480156100b857600080fd5b506100cc6100c7366004611089565b610250565b6040519081526020015b60405180910390f35b6100f26100ed366004611089565b61027e565b005b34801561010057600080fd5b5061011461010f366004611089565b610850565b6040516100d694939291906110fe565b34801561013057600080fd5b506100cc60055481565b34801561014657600080fd5b5061015a610155366004611089565b6109d1565b6040516100d692919061115c565b34801561017457600080fd5b506100f2610a8d565b34801561018957600080fd5b506000546040516001600160a01b0390911681526020016100d6565b3480156101b157600080fd5b506000546001600160a01b0316331460405190151581526020016100d6565b3480156101dc57600080fd5b506100f26101eb366004611221565b610aee565b6100f26101fe36600461125e565b610b5b565b34801561020f57600080fd5b506100cc61021e3660046112a3565b60046020526000908152604090205481565b34801561023c57600080fd5b506100f261024b3660046112a3565b610f5f565b600060028281548110610265576102656112d3565b9060005260206000209060020201600101549050919050565b6000546001600160a01b0316331461029557600080fd5b6000816000036105135760005b60015481101561051157604051647465616d3160d81b602082015260029060250160408051601f19818403018152908290526102dd916112e9565b602060405180830381855afa1580156102fa573d6000803e3d6000fd5b5050506040513d601f19601f8201168201806040525081019061031d9190611305565b600260018381548110610332576103326112d3565b90600052602060002090600502016003016000016040516020016103569190611358565b60408051601f1981840301815290829052610370916112e9565b602060405180830381855afa15801561038d573d6000803e3d6000fd5b5050506040513d601f19601f820116820180604052508101906103b09190611305565b036104ff576000600182815481106103ca576103ca6112d3565b600091825260208220600160059092020101546001600160a01b03169150612710906103f590610250565b6103ff6001610250565b61040b906127106113e0565b61041591906113ff565b61042190612710611421565b60018481548110610434576104346112d3565b90600052602060002090600502016002015461045091906113e0565b61045a91906113ff565b92506000816001600160a01b03168460405160006040518083038185875af1925050503d80600081146104a9576040519150601f19603f3d011682016040523d82523d6000602084013e6104ae565b606091505b50509050806104fc5760405162461bcd60e51b81526020600482015260156024820152744661696c656420746f2073656e642045746865723160581b60448201526064015b60405180910390fd5b50505b8061050981611439565b9150506102a2565b505b8160010361078c5760005b60015481101561078a57604051643a32b0b69960d91b602082015260029060250160408051601f1981840301815290829052610559916112e9565b602060405180830381855afa158015610576573d6000803e3d6000fd5b5050506040513d601f19601f820116820180604052508101906105999190611305565b6002600183815481106105ae576105ae6112d3565b90600052602060002090600502016003016000016040516020016105d29190611358565b60408051601f19818403018152908290526105ec916112e9565b602060405180830381855afa158015610609573d6000803e3d6000fd5b5050506040513d601f19601f8201168201806040525081019061062c9190611305565b0361077857600060018281548110610646576106466112d3565b6000918252602090912060016005909202018101546001600160a01b031691506127109061067390610250565b61067d6000610250565b610689906127106113e0565b61069391906113ff565b61069f90612710611421565b600184815481106106b2576106b26112d3565b9060005260206000209060050201600201546106ce91906113e0565b6106d891906113ff565b92506000816001600160a01b03168460405160006040518083038185875af1925050503d8060008114610727576040519150601f19603f3d011682016040523d82523d6000602084013e61072c565b606091505b50509050806107755760405162461bcd60e51b81526020600482015260156024820152742330b4b632b2103a379039b2b7321022ba3432b91960591b60448201526064016104f3565b50505b8061078281611439565b91505061051e565b505b600060058190556002805482906107a5576107a56112d3565b906000526020600020906002020160010181905550600060026001815481106107d0576107d06112d3565b90600052602060002090600202016001018190555060005b60015481101561084b576000600460006001848154811061080b5761080b6112d3565b60009182526020808320600160059093020191909101546001600160a01b031683528201929092526040019020558061084381611439565b9150506107e8565b505050565b6001818154811061086057600080fd5b90600052602060002090600502016000915090508060000180546108839061131e565b80601f01602080910402602001604051908101604052809291908181526020018280546108af9061131e565b80156108fc5780601f106108d1576101008083540402835291602001916108fc565b820191906000526020600020905b8154815290600101906020018083116108df57829003601f168201915b5050505050908060010160009054906101000a90046001600160a01b031690806002015490806003016040518060400160405290816000820180546109409061131e565b80601f016020809104026020016040519081016040528092919081815260200182805461096c9061131e565b80156109b95780601f1061098e576101008083540402835291602001916109b9565b820191906000526020600020905b81548152906001019060200180831161099c57829003601f168201915b50505050508152602001600182015481525050905084565b600281815481106109e157600080fd5b9060005260206000209060020201600091509050806000018054610a049061131e565b80601f0160208091040260200160405190810160405280929190818152602001828054610a309061131e565b8015610a7d5780601f10610a5257610100808354040283529160200191610a7d565b820191906000526020600020905b815481529060010190602001808311610a6057829003601f168201915b5050505050908060010154905082565b6000546001600160a01b03163314610aa457600080fd5b600080546040516001600160a01b03909116907f8be0079c531659141344cd1fd0a4f28419497f9722a3daafe3b4186f6b6457e0908390a3600080546001600160a01b0319169055565b6040805180820190915281815260006020808301829052600280546001810182559281905283518051939091027f405787fa12a823e0f2b7631cc41b3ba8828b3321ca811111fa75cd3aa3bb5ace0192610b4b9284920190610ff0565b5060208201518160010155505050565b6003546001600160a01b03163303610bc05760405162461bcd60e51b815260206004820152602260248201527f6f776e6572206973206e6f7420616c6c6f77656420746f206d616b6520612062604482015261195d60f21b60648201526084016104f3565b3360009081526004602052604090205415610c1d5760405162461bcd60e51b815260206004820152601760248201527f4f6e6c79206f6e652062657420697320616c6c6f77656400000000000000000060448201526064016104f3565b3460046000336001600160a01b03166001600160a01b031681526020019081526020016000208190555060016040518060800160405280848152602001336001600160a01b0316815260200134815260200160028481548110610c8257610c826112d3565b9060005260206000209060020201604051806040016040529081600082018054610cab9061131e565b80601f0160208091040260200160405190810160405280929190818152602001828054610cd79061131e565b8015610d245780601f10610cf957610100808354040283529160200191610d24565b820191906000526020600020905b815481529060010190602001808311610d0757829003601f168201915b50505091835250506001918201546020918201529190925283549182018455600093845292839020825180519394600590930290910192610d689284920190610ff0565b506020828101516001830180546001600160a01b0319166001600160a01b039092169190911790556040830151600283015560608301518051805191926003850192610db79284920190610ff0565b50602082015181600101555050505080600003610e0957346002600081548110610de357610de36112d3565b90600052602060002090600202016001016000828254610e039190611421565b90915550505b80600103610e4c57346002600181548110610e2657610e266112d3565b90600052602060002090600202016001016000828254610e469190611421565b90915550505b6003546040516000916001600160a01b03169034908381818185875af1925050503d8060008114610e99576040519150601f19603f3d011682016040523d82523d6000602084013e610e9e565b606091505b5050905080610ee65760405162461bcd60e51b81526020600482015260146024820152732330b4b632b2103a379039b2b7321022ba3432b960611b60448201526064016104f3565b3460056000828254610ef89190611421565b925050819055507f948a46eba9469fc822b082631d32f2456ea94a35179d32230095b6f34fb341cb333460028581548110610f3557610f356112d3565b9060005260206000209060020201604051610f5293929190611452565b60405180910390a1505050565b6000546001600160a01b03163314610f7657600080fd5b610f7f81610f82565b50565b6001600160a01b038116610f9557600080fd5b600080546040516001600160a01b03808516939216917f8be0079c531659141344cd1fd0a4f28419497f9722a3daafe3b4186f6b6457e091a3600080546001600160a01b0319166001600160a01b0392909216919091179055565b828054610ffc9061131e565b90600052602060002090601f01602090048101928261101e5760008555611064565b82601f1061103757805160ff1916838001178555611064565b82800160010185558215611064579182015b82811115611064578251825591602001919060010190611049565b50611070929150611074565b5090565b5b808211156110705760008155600101611075565b60006020828403121561109b57600080fd5b5035919050565b60005b838110156110bd5781810151838201526020016110a5565b838111156110cc576000848401525b50505050565b600081518084526110ea8160208601602086016110a2565b601f01601f19169290920160200192915050565b60808152600061111160808301876110d2565b6001600160a01b038616602084015260408084018690528382036060850152845181835290611142908301826110d2565b905060208501516020830152809250505095945050505050565b60408152600061116f60408301856110d2565b90508260208301529392505050565b634e487b7160e01b600052604160045260246000fd5b600082601f8301126111a557600080fd5b813567ffffffffffffffff808211156111c0576111c061117e565b604051601f8301601f19908116603f011681019082821181831017156111e8576111e861117e565b8160405283815286602085880101111561120157600080fd5b836020870160208301376000602085830101528094505050505092915050565b60006020828403121561123357600080fd5b813567ffffffffffffffff81111561124a57600080fd5b61125684828501611194565b949350505050565b6000806040838503121561127157600080fd5b823567ffffffffffffffff81111561128857600080fd5b61129485828601611194565b95602094909401359450505050565b6000602082840312156112b557600080fd5b81356001600160a01b03811681146112cc57600080fd5b9392505050565b634e487b7160e01b600052603260045260246000fd5b600082516112fb8184602087016110a2565b9190910192915050565b60006020828403121561131757600080fd5b5051919050565b600181811c9082168061133257607f821691505b60208210810361135257634e487b7160e01b600052602260045260246000fd5b50919050565b60008083546113668161131e565b6001828116801561137e576001811461138f576113be565b60ff198416875282870194506113be565b8760005260208060002060005b858110156113b55781548a82015290840190820161139c565b50505082870194505b50929695505050505050565b634e487b7160e01b600052601160045260246000fd5b60008160001904831182151516156113fa576113fa6113ca565b500290565b60008261141c57634e487b7160e01b600052601260045260246000fd5b500490565b60008219821115611434576114346113ca565b500190565b60006001820161144b5761144b6113ca565b5060010190565b60018060a01b03841681526000602084818401526060604084015260406060840152600084546114818161131e565b8060a087015260c06001808416600081146114a357600181146114b7576114e5565b60ff1985168984015260e0890195506114e5565b896000528660002060005b858110156114dd5781548b82018601529083019088016114c2565b8a0184019650505b5080890154608089015250505050809250505094935050505056fea264697066735822122030c0ada2238c793cb6ef0b3e3d3e1d882474d61d3ae2912fe285fdd3e4cc8f2964736f6c634300080d0033405787fa12a823e0f2b7631cc41b3ba8828b3321ca811111fa75cd3aa3bb5ace",
  "immutableReferences": {},
  "source": "// SPDX-License-Identifier: MIT\npragma solidity 0.8.13;\nimport \"./Ownable.sol\";\n\ncontract sportsbetting is Ownable{\n\n    event NewBet(address addr, uint amount, Team team);\n\n    struct Team {\n        string teamname ;\n        uint totalbet;\n    }\n\n    struct bet {\n        string name;\n        address addr;\n        uint amount;\n        Team team;\n    }\n    bet[] public bets;\n    Team[] public teams ;\n    address payable Owner;\n    mapping (address => uint) public betAmounts;\n    uint public total;\n\n    constructor() payable {\n        Owner = payable(msg.sender);\n        teams.push(Team(\"team1\", 0));\n        teams.push(Team(\"team2\", 0));\n    }\n\n    function createTeam (string memory _name) public {\n        teams.push(Team(_name, 0));\n    }\n\n    function getTotalBetAmount (uint _team) public view returns (uint) {\n    return teams[_team].totalbet;\n    }\n\n    function createBet (string memory _name, uint _team) external payable { \n        require (msg.sender != Owner, \"owner is not allowed to make a bet\");\n        require (betAmounts[msg.sender] == 0, \"Only one bet is allowed\");\n        betAmounts[msg.sender] = msg.value;\n        bets.push(bet(_name, msg.sender, msg.value, teams[_team]));\n        if (_team == 0) {\n            teams[0].totalbet += msg.value;\n        }\n         if (_team == 1) {\n            teams[1].totalbet += msg.value;\n        }\n        \n        (bool sent, ) = Owner.call{value: msg.value}(\"\");\n        require(sent, \"Failed to send Ether\");\n        total += msg.value;\n        emit NewBet(msg.sender, msg.value, teams[_team]);\n        }\n    \n    function winningTeam(uint _team) public payable onlyOwner() {\n        uint slice;\n        if (_team == 0){\n            for (uint i = 0; i < bets.length; i++){\n                if (sha256(abi.encodePacked((bets[i].team.teamname))) == sha256(abi.encodePacked(\"team1\"))){\n                    address payable receiver = payable(bets[i].addr);\n                    slice = (bets[i].amount * (10000 + (getTotalBetAmount(1) * 10000 / getTotalBetAmount(0)))) / 10000;\n                    (bool sent,) = receiver.call{ value: slice }(\"\");\n                    require(sent, \"Failed to send Ether1\");\n                }\n            }\n        }\n        if (_team == 1){\n            for (uint i = 0; i < bets.length; i++){\n                if (sha256(abi.encodePacked((bets[i].team.teamname))) == sha256(abi.encodePacked(\"team2\"))){\n                    address payable receiver = payable(bets[i].addr);\n                    slice = (bets[i].amount * (10000 + (getTotalBetAmount(0) * 10000 / getTotalBetAmount(1)))) / 10000;\n                    (bool sent,) = receiver.call{ value: slice }(\"\");\n                    require(sent, \"Failed to send Ether2\");\n                }\n            }\n        }\n        total = 0;\n        teams[0].totalbet = 0;\n        teams[1].totalbet = 0;\n\n        for (uint i = 0; i < bets.length; i++) {\n            betAmounts[bets[i].addr] = 0;\n        }\n\n\n    }\n}\n",
  "sourcePath": "/home/emir/sportsbet/contracts/sportsbetting.sol",
  "compiler": {
    "name": "solc",
    "version": "0.8.13+commit.abaa5c0e.Emscripten.clang"
  },
  "schemaVersion": "3.4.10",
  "updatedAt": "2022-10-09T13:00:28.013Z",
  "networkType": "ethereum",
  "devdoc": {
    "kind": "dev",
    "methods": {
      "isOwner()": {
        "returns": {
          "_0": "true if `msg.sender` is the owner of the contract."
        }
      },
      "owner()": {
        "returns": {
          "_0": "the address of the owner."
        }
      },
      "renounceOwnership()": {
        "details": "Allows the current owner to relinquish control of the contract."
      },
      "transferOwnership(address)": {
        "details": "Allows the current owner to transfer control of the contract to a newOwner.",
        "params": {
          "newOwner": "The address to transfer ownership to."
        }
      }
    },
    "version": 1
  },
  "userdoc": {
    "kind": "user",
    "methods": {
      "renounceOwnership()": {
        "notice": "Renouncing to ownership will leave the contract without an owner. It will not be possible to call the functions with the `onlyOwner` modifier anymore."
      }
    },
    "version": 1
  }
}